{
  "contractName": "ProductEscrow",
  "abi": [
    {
      "inputs": [
        {
          "internalType": "string",
          "name": "_name",
          "type": "string"
        },
        {
          "internalType": "uint256",
          "name": "_price",
          "type": "uint256"
        },
        {
          "internalType": "address",
          "name": "_owner",
          "type": "address"
        }
      ],
      "stateMutability": "nonpayable",
      "type": "constructor"
    },
    {
      "anonymous": false,
      "inputs": [
        {
          "indexed": false,
          "internalType": "address",
          "name": "buyer",
          "type": "address"
        },
        {
          "indexed": false,
          "internalType": "uint256",
          "name": "price",
          "type": "uint256"
        }
      ],
      "name": "ProductPurchased",
      "type": "event"
    },
    {
      "anonymous": false,
      "inputs": [
        {
          "indexed": false,
          "internalType": "address",
          "name": "transporter",
          "type": "address"
        },
        {
          "indexed": false,
          "internalType": "uint256",
          "name": "fee",
          "type": "uint256"
        }
      ],
      "name": "TransporterCreated",
      "type": "event"
    },
    {
      "inputs": [],
      "name": "buyer",
      "outputs": [
        {
          "internalType": "address payable",
          "name": "",
          "type": "address"
        }
      ],
      "stateMutability": "view",
      "type": "function"
    },
    {
      "inputs": [],
      "name": "deliveryFee",
      "outputs": [
        {
          "internalType": "uint256",
          "name": "",
          "type": "uint256"
        }
      ],
      "stateMutability": "view",
      "type": "function"
    },
    {
      "inputs": [],
      "name": "id",
      "outputs": [
        {
          "internalType": "uint256",
          "name": "",
          "type": "uint256"
        }
      ],
      "stateMutability": "view",
      "type": "function"
    },
    {
      "inputs": [],
      "name": "name",
      "outputs": [
        {
          "internalType": "string",
          "name": "",
          "type": "string"
        }
      ],
      "stateMutability": "view",
      "type": "function"
    },
    {
      "inputs": [],
      "name": "owner",
      "outputs": [
        {
          "internalType": "address payable",
          "name": "",
          "type": "address"
        }
      ],
      "stateMutability": "view",
      "type": "function"
    },
    {
      "inputs": [],
      "name": "price",
      "outputs": [
        {
          "internalType": "uint256",
          "name": "",
          "type": "uint256"
        }
      ],
      "stateMutability": "view",
      "type": "function"
    },
    {
      "inputs": [],
      "name": "purchased",
      "outputs": [
        {
          "internalType": "bool",
          "name": "",
          "type": "bool"
        }
      ],
      "stateMutability": "view",
      "type": "function"
    },
    {
      "inputs": [],
      "name": "securityDeposit",
      "outputs": [
        {
          "internalType": "uint256",
          "name": "",
          "type": "uint256"
        }
      ],
      "stateMutability": "view",
      "type": "function"
    },
    {
      "inputs": [],
      "name": "transporter",
      "outputs": [
        {
          "internalType": "address payable",
          "name": "",
          "type": "address"
        }
      ],
      "stateMutability": "view",
      "type": "function"
    },
    {
      "inputs": [
        {
          "internalType": "uint256",
          "name": "",
          "type": "uint256"
        }
      ],
      "name": "transporterAddresses",
      "outputs": [
        {
          "internalType": "address",
          "name": "",
          "type": "address"
        }
      ],
      "stateMutability": "view",
      "type": "function"
    },
    {
      "inputs": [],
      "name": "transporterCount",
      "outputs": [
        {
          "internalType": "uint256",
          "name": "",
          "type": "uint256"
        }
      ],
      "stateMutability": "view",
      "type": "function"
    },
    {
      "inputs": [
        {
          "internalType": "address",
          "name": "",
          "type": "address"
        }
      ],
      "name": "transporters",
      "outputs": [
        {
          "internalType": "uint256",
          "name": "fee",
          "type": "uint256"
        }
      ],
      "stateMutability": "view",
      "type": "function"
    },
    {
      "inputs": [],
      "name": "depositPurchase",
      "outputs": [],
      "stateMutability": "payable",
      "type": "function"
    },
    {
      "inputs": [],
      "name": "withdrawProductPrice",
      "outputs": [],
      "stateMutability": "nonpayable",
      "type": "function"
    },
    {
      "inputs": [
        {
          "internalType": "address payable",
          "name": "_transporter",
          "type": "address"
        }
      ],
      "name": "setTransporter",
      "outputs": [],
      "stateMutability": "payable",
      "type": "function"
    },
    {
      "inputs": [
        {
          "internalType": "uint256",
          "name": "_feeInEther",
          "type": "uint256"
        }
      ],
      "name": "createTransporter",
      "outputs": [],
      "stateMutability": "payable",
      "type": "function"
    },
    {
      "inputs": [],
      "name": "getAllTransporters",
      "outputs": [
        {
          "internalType": "address[]",
          "name": "",
          "type": "address[]"
        },
        {
          "internalType": "uint256[]",
          "name": "",
          "type": "uint256[]"
        }
      ],
      "stateMutability": "view",
      "type": "function"
    }
  ],
  "bytecode": "0x60806040523480156200001157600080fd5b5060405162001ecb38038062001ecb83398181016040528101906200003791906200024e565b82600190805190602001906200004f929190620000fe565b508160028190555080600360006101000a81548173ffffffffffffffffffffffffffffffffffffffff021916908373ffffffffffffffffffffffffffffffffffffffff1602179055506000600360146101000a81548160ff0219169083151502179055506000600460006101000a81548173ffffffffffffffffffffffffffffffffffffffff021916908373ffffffffffffffffffffffffffffffffffffffff16021790555050505062000460565b8280546200010c9062000398565b90600052602060002090601f0160209004810192826200013057600085556200017c565b82601f106200014b57805160ff19168380011785556200017c565b828001600101855582156200017c579182015b828111156200017b5782518255916020019190600101906200015e565b5b5090506200018b91906200018f565b5090565b5b80821115620001aa57600081600090555060010162000190565b5090565b6000620001c5620001bf84620002f1565b620002bd565b905082815260208101848484011115620001de57600080fd5b620001eb84828562000362565b509392505050565b60008151905062000204816200042c565b92915050565b600082601f8301126200021c57600080fd5b81516200022e848260208601620001ae565b91505092915050565b600081519050620002488162000446565b92915050565b6000806000606084860312156200026457600080fd5b600084015167ffffffffffffffff8111156200027f57600080fd5b6200028d868287016200020a565b9350506020620002a08682870162000237565b9250506040620002b386828701620001f3565b9150509250925092565b6000604051905081810181811067ffffffffffffffff82111715620002e757620002e6620003fd565b5b8060405250919050565b600067ffffffffffffffff8211156200030f576200030e620003fd565b5b601f19601f8301169050602081019050919050565b6000620003318262000338565b9050919050565b600073ffffffffffffffffffffffffffffffffffffffff82169050919050565b6000819050919050565b60005b838110156200038257808201518184015260208101905062000365565b8381111562000392576000848401525b50505050565b60006002820490506001821680620003b157607f821691505b60208210811415620003c857620003c7620003ce565b5b50919050565b7f4e487b7100000000000000000000000000000000000000000000000000000000600052602260045260246000fd5b7f4e487b7100000000000000000000000000000000000000000000000000000000600052604160045260246000fd5b620004378162000324565b81146200044357600080fd5b50565b620004518162000358565b81146200045d57600080fd5b50565b611a5b80620004706000396000f3fe6080604052600436106100fe5760003560e01c80638da5cb5b11610095578063d8f133f911610064578063d8f133f9146102c4578063e25bd158146102e0578063e42b02121461031d578063f3cc0f1f14610348578063fa949a0114610373576100fe565b80638da5cb5b146102275780639c8dadae14610252578063a035b1fe1461026e578063af640d0f14610299576100fe565b8063533a559b116100d1578063533a559b1461018e5780637150d8ae146101a557806377db5719146101d0578063879f9c96146101fc576100fe565b806306fdde0314610103578063220e5ab31461012e57806325901b8a1461015957806329dac7c614610163575b600080fd5b34801561010f57600080fd5b506101186103b0565b6040516101259190611604565b60405180910390f35b34801561013a57600080fd5b5061014361043e565b6040516101509190611766565b60405180910390f35b610161610444565b005b34801561016f57600080fd5b50610178610572565b6040516101859190611766565b60405180910390f35b34801561019a57600080fd5b506101a3610578565b005b3480156101b157600080fd5b506101ba6107b9565b6040516101c7919061156e565b60405180910390f35b3480156101dc57600080fd5b506101e56107df565b6040516101f39291906115b2565b60405180910390f35b34801561020857600080fd5b50610211610a04565b60405161021e91906115e9565b60405180910390f35b34801561023357600080fd5b5061023c610a17565b604051610249919061156e565b60405180910390f35b61026c6004803603810190610267919061101e565b610a3d565b005b34801561027a57600080fd5b50610283610d2d565b6040516102909190611766565b60405180910390f35b3480156102a557600080fd5b506102ae610d33565b6040516102bb9190611766565b60405180910390f35b6102de60048036038101906102d99190611047565b610d39565b005b3480156102ec57600080fd5b5061030760048036038101906103029190610ff5565b610f2d565b6040516103149190611766565b60405180910390f35b34801561032957600080fd5b50610332610f4b565b60405161033f919061156e565b60405180910390f35b34801561035457600080fd5b5061035d610f71565b60405161036a9190611766565b60405180910390f35b34801561037f57600080fd5b5061039a60048036038101906103959190611047565b610f77565b6040516103a79190611553565b60405180910390f35b600180546103bd906118f6565b80601f01602080910402602001604051908101604052809291908181526020018280546103e9906118f6565b80156104365780601f1061040b57610100808354040283529160200191610436565b820191906000526020600020905b81548152906001019060200180831161041957829003601f168201915b505050505081565b60085481565b600360149054906101000a900460ff1615610494576040517f08c379a000000000000000000000000000000000000000000000000000000000815260040161048b90611686565b60405180910390fd5b6002543410156104d9576040517f08c379a00000000000000000000000000000000000000000000000000000000081526004016104d090611746565b60405180910390fd5b33600460006101000a81548173ffffffffffffffffffffffffffffffffffffffff021916908373ffffffffffffffffffffffffffffffffffffffff1602179055506001600360146101000a81548160ff0219169083151502179055507f621472621639c4a230476ed039dff3e99add1be6bca286f58ed565e08e781a5f33600254604051610568929190611589565b60405180910390a1565b60055481565b600460009054906101000a900473ffffffffffffffffffffffffffffffffffffffff1673ffffffffffffffffffffffffffffffffffffffff163373ffffffffffffffffffffffffffffffffffffffff1614610608576040517f08c379a00000000000000000000000000000000000000000000000000000000081526004016105ff90611646565b60405180910390fd5b600073ffffffffffffffffffffffffffffffffffffffff16600660009054906101000a900473ffffffffffffffffffffffffffffffffffffffff1673ffffffffffffffffffffffffffffffffffffffff16141561069a576040517f08c379a000000000000000000000000000000000000000000000000000000000815260040161069190611666565b60405180910390fd5b600360149054906101000a900460ff166106e9576040517f08c379a00000000000000000000000000000000000000000000000000000000081526004016106e090611726565b60405180910390fd5b600360009054906101000a900473ffffffffffffffffffffffffffffffffffffffff1673ffffffffffffffffffffffffffffffffffffffff166108fc6002549081150290604051600060405180830381858888f19350505050158015610753573d6000803e3d6000fd5b50600460009054906101000a900473ffffffffffffffffffffffffffffffffffffffff16600360006101000a81548173ffffffffffffffffffffffffffffffffffffffff021916908373ffffffffffffffffffffffffffffffffffffffff160217905550565b600460009054906101000a900473ffffffffffffffffffffffffffffffffffffffff1681565b6060806000600a8054905067ffffffffffffffff811115610829577f4e487b7100000000000000000000000000000000000000000000000000000000600052604160045260246000fd5b6040519080825280602002602001820160405280156108575781602001602082028036833780820191505090505b50905060005b600a8054905081101561096f576000600a82815481106108a6577f4e487b7100000000000000000000000000000000000000000000000000000000600052603260045260246000fd5b9060005260206000200160009054906101000a900473ffffffffffffffffffffffffffffffffffffffff169050600960008273ffffffffffffffffffffffffffffffffffffffff1673ffffffffffffffffffffffffffffffffffffffff1681526020019081526020016000206000015483838151811061094f577f4e487b7100000000000000000000000000000000000000000000000000000000600052603260045260246000fd5b60200260200101818152505050808061096790611928565b91505061085d565b50600a81818054806020026020016040519081016040528092919081815260200182805480156109f457602002820191906000526020600020905b8160009054906101000a900473ffffffffffffffffffffffffffffffffffffffff1673ffffffffffffffffffffffffffffffffffffffff16815260200190600101908083116109aa575b5050505050915092509250509091565b600360149054906101000a900460ff1681565b600360009054906101000a900473ffffffffffffffffffffffffffffffffffffffff1681565b600360009054906101000a900473ffffffffffffffffffffffffffffffffffffffff1673ffffffffffffffffffffffffffffffffffffffff163373ffffffffffffffffffffffffffffffffffffffff1614610acd576040517f08c379a0000000000000000000000000000000000000000000000000000000008152600401610ac4906116a6565b60405180910390fd5b600960008273ffffffffffffffffffffffffffffffffffffffff1673ffffffffffffffffffffffffffffffffffffffff168152602001908152602001600020600001543414610b51576040517f08c379a0000000000000000000000000000000000000000000000000000000008152600401610b4890611626565b60405180910390fd5b6000600960008373ffffffffffffffffffffffffffffffffffffffff1673ffffffffffffffffffffffffffffffffffffffff168152602001908152602001600020600001541415610bd7576040517f08c379a0000000000000000000000000000000000000000000000000000000008152600401610bce906116e6565b60405180910390fd5b3460078190555080600660006101000a81548173ffffffffffffffffffffffffffffffffffffffff021916908373ffffffffffffffffffffffffffffffffffffffff16021790555060005b600a80549050811015610d29576000600a8281548110610c6b577f4e487b7100000000000000000000000000000000000000000000000000000000600052603260045260246000fd5b9060005260206000200160009054906101000a900473ffffffffffffffffffffffffffffffffffffffff1690508273ffffffffffffffffffffffffffffffffffffffff168173ffffffffffffffffffffffffffffffffffffffff1614610d15578073ffffffffffffffffffffffffffffffffffffffff166108fc6002549081150290604051600060405180830381858888f19350505050158015610d13573d6000803e3d6000fd5b505b508080610d2190611928565b915050610c22565b5050565b60025481565b60005481565b6002543414610d7d576040517f08c379a0000000000000000000000000000000000000000000000000000000008152600401610d74906116c6565b60405180910390fd5b6000600960003373ffffffffffffffffffffffffffffffffffffffff1673ffffffffffffffffffffffffffffffffffffffff1681526020019081526020016000206000015414610e02576040517f08c379a0000000000000000000000000000000000000000000000000000000008152600401610df990611706565b60405180910390fd5b6000670de0b6b3a764000082610e18919061180f565b9050604051806020016040528082815250600960003373ffffffffffffffffffffffffffffffffffffffff1673ffffffffffffffffffffffffffffffffffffffff16815260200190815260200160002060008201518160000155905050600a339080600181540180825580915050600190039060005260206000200160009091909190916101000a81548173ffffffffffffffffffffffffffffffffffffffff021916908373ffffffffffffffffffffffffffffffffffffffff16021790555060056000815480929190610eeb90611928565b91905055507f82cd66133dda5e11a8bcba54ad8282733b8517996ec937641ea79418fb1415743382604051610f21929190611589565b60405180910390a15050565b60096020528060005260406000206000915090508060000154905081565b600660009054906101000a900473ffffffffffffffffffffffffffffffffffffffff1681565b60075481565b600a8181548110610f8757600080fd5b906000526020600020016000915054906101000a900473ffffffffffffffffffffffffffffffffffffffff1681565b600081359050610fc5816119e0565b92915050565b600081359050610fda816119f7565b92915050565b600081359050610fef81611a0e565b92915050565b60006020828403121561100757600080fd5b600061101584828501610fb6565b91505092915050565b60006020828403121561103057600080fd5b600061103e84828501610fcb565b91505092915050565b60006020828403121561105957600080fd5b600061106784828501610fe0565b91505092915050565b600061107c83836110af565b60208301905092915050565b60006110948383611535565b60208301905092915050565b6110a98161187b565b82525050565b6110b881611869565b82525050565b6110c781611869565b82525050565b60006110d8826117a1565b6110e281856117dc565b93506110ed83611781565b8060005b8381101561111e5781516111058882611070565b9750611110836117c2565b9250506001810190506110f1565b5085935050505092915050565b6000611136826117ac565b61114081856117ed565b935061114b83611791565b8060005b8381101561117c5781516111638882611088565b975061116e836117cf565b92505060018101905061114f565b5085935050505092915050565b6111928161188d565b82525050565b60006111a3826117b7565b6111ad81856117fe565b93506111bd8185602086016118c3565b6111c6816119cf565b840191505092915050565b60006111de6024836117fe565b91507f53656c6c6572206e6565647320746f206465706f7369742064656c697665727960008301527f20666565000000000000000000000000000000000000000000000000000000006020830152604082019050919050565b60006112446025836117fe565b91507f4f6e6c79207468652062757965722063616e2063616c6c20746869732066756e60008301527f6374696f6e0000000000000000000000000000000000000000000000000000006020830152604082019050919050565b60006112aa6028836117fe565b91507f5472616e73706f72746572206e656564656420746f2063616c6c20746869732060008301527f66756e6374696f6e0000000000000000000000000000000000000000000000006020830152604082019050919050565b60006113106019836117fe565b91507f50726f6475637420616c726561647920707572636861736564000000000000006000830152602082019050919050565b60006113506026836117fe565b91507f4f6e6c79207468652073656c6c65722063616e2063616c6c207468697320667560008301527f6e6374696f6e00000000000000000000000000000000000000000000000000006020830152604082019050919050565b60006113b6602b836117fe565b91507f5472616e73706f727465722068617320746f206465706f73697420736563757260008301527f697479206465706f7369740000000000000000000000000000000000000000006020830152604082019050919050565b600061141c602d836117fe565b91507f5472616e73706f727465722061646472657373206e6f7420666f756e6420696e60008301527f207472616e73706f7274657273000000000000000000000000000000000000006020830152604082019050919050565b6000611482601a836117fe565b91507f5472616e73706f7274657220616c7265616479206578697374730000000000006000830152602082019050919050565b60006114c26019836117fe565b91507f50726f64756374206e6f742079657420707572636861736564000000000000006000830152602082019050919050565b60006115026010836117fe565b91507f4e6f7420656e6f756768204574686572000000000000000000000000000000006000830152602082019050919050565b61153e816118b9565b82525050565b61154d816118b9565b82525050565b600060208201905061156860008301846110be565b92915050565b600060208201905061158360008301846110a0565b92915050565b600060408201905061159e60008301856110be565b6115ab6020830184611544565b9392505050565b600060408201905081810360008301526115cc81856110cd565b905081810360208301526115e0818461112b565b90509392505050565b60006020820190506115fe6000830184611189565b92915050565b6000602082019050818103600083015261161e8184611198565b905092915050565b6000602082019050818103600083015261163f816111d1565b9050919050565b6000602082019050818103600083015261165f81611237565b9050919050565b6000602082019050818103600083015261167f8161129d565b9050919050565b6000602082019050818103600083015261169f81611303565b9050919050565b600060208201905081810360008301526116bf81611343565b9050919050565b600060208201905081810360008301526116df816113a9565b9050919050565b600060208201905081810360008301526116ff8161140f565b9050919050565b6000602082019050818103600083015261171f81611475565b9050919050565b6000602082019050818103600083015261173f816114b5565b9050919050565b6000602082019050818103600083015261175f816114f5565b9050919050565b600060208201905061177b6000830184611544565b92915050565b6000819050602082019050919050565b6000819050602082019050919050565b600081519050919050565b600081519050919050565b600081519050919050565b6000602082019050919050565b6000602082019050919050565b600082825260208201905092915050565b600082825260208201905092915050565b600082825260208201905092915050565b600061181a826118b9565b9150611825836118b9565b9250817fffffffffffffffffffffffffffffffffffffffffffffffffffffffffffffffff048311821515161561185e5761185d611971565b5b828202905092915050565b600061187482611899565b9050919050565b600061188682611899565b9050919050565b60008115159050919050565b600073ffffffffffffffffffffffffffffffffffffffff82169050919050565b6000819050919050565b60005b838110156118e15780820151818401526020810190506118c6565b838111156118f0576000848401525b50505050565b6000600282049050600182168061190e57607f821691505b60208210811415611922576119216119a0565b5b50919050565b6000611933826118b9565b91507fffffffffffffffffffffffffffffffffffffffffffffffffffffffffffffffff82141561196657611965611971565b5b600182019050919050565b7f4e487b7100000000000000000000000000000000000000000000000000000000600052601160045260246000fd5b7f4e487b7100000000000000000000000000000000000000000000000000000000600052602260045260246000fd5b6000601f19601f8301169050919050565b6119e981611869565b81146119f457600080fd5b50565b611a008161187b565b8114611a0b57600080fd5b50565b611a17816118b9565b8114611a2257600080fd5b5056fea264697066735822122032ade249561d4cb834ae2b740ade35ab06d95ccaebb120dd32ed784bcee3665064736f6c63430008000033",
  "immutableReferences": {},
  "source": "// SPDX-License-Identifier: MIT\npragma solidity ^0.8.0;\n\ncontract ProductEscrow {\n    uint public id;\n    string public name;\n    uint public price; // Price in wei\n    address payable public owner;\n    bool public purchased;\n    address payable public buyer;\n    uint public transporterCount;\n    address payable public transporter;\n    uint public deliveryFee;\n    uint public securityDeposit;\n\n    struct TransporterFees {\n        uint fee;\n    }\n\n    mapping(address => TransporterFees) public transporters; // Mapping with transporter address as key\n    address[] public transporterAddresses; // Array to store transporter addresses\n\n    modifier onlyBuyer() {\n        require(msg.sender == buyer, \"Only the buyer can call this function\");\n        _;\n    }\n\n    modifier onlySeller() {\n        require(msg.sender == owner, \"Only the seller can call this function\");\n        _;\n    }\n\n    modifier transporterSet() {\n        require(transporter != address(0), \"Transporter needed to call this function\");\n        _;\n    }\n\n    event ProductPurchased(address buyer, uint price);\n    event TransporterCreated(address transporter, uint fee);\n\n    constructor(string memory _name, uint _price, address _owner) {\n        name = _name;\n        price = _price; // Price is expected to be in wei\n        owner = payable(_owner);\n        purchased = false;\n        buyer = payable(address(0));\n    }\n\n    function depositPurchase() public payable {\n        require(!purchased, \"Product already purchased\");\n        require(msg.value >= price, \"Not enough Ether\");\n\n        buyer = payable(msg.sender);\n        purchased = true;\n        emit ProductPurchased(msg.sender, price);\n    }\n\n    function withdrawProductPrice() public onlyBuyer transporterSet {\n        require(purchased, \"Product not yet purchased\");\n        owner.transfer(price);\n        owner = buyer;\n    }\n\n    function setTransporter(address payable _transporter) external payable onlySeller {\n        require(msg.value == transporters[_transporter].fee, \"Seller needs to deposit delivery fee\");\n        require(transporters[_transporter].fee != 0, \"Transporter address not found in transporters\");\n\n        deliveryFee = msg.value;\n        transporter = _transporter;\n        // Refund all other transporters\n        for (uint i = 0; i < transporterAddresses.length; i++) {\n            address transporterAddress = transporterAddresses[i];\n            if (transporterAddress != _transporter) {\n                payable(transporterAddress).transfer(price);\n            }\n        }\n    }\n\n    function createTransporter(uint _feeInEther) public payable {\n        require(msg.value == price, \"Transporter has to deposit security deposit\");\n        require(transporters[msg.sender].fee == 0, \"Transporter already exists\");\n\n        // Convert fee from ether to wei\n        uint _feeInWei = _feeInEther * 1 ether;\n\n        transporters[msg.sender] = TransporterFees({\n            fee: _feeInWei\n        });\n        transporterAddresses.push(msg.sender);\n        transporterCount++;\n        emit TransporterCreated(msg.sender, _feeInWei);\n    }\n\n    function getAllTransporters() public view returns (address[] memory, uint[] memory) {\n        uint[] memory fees = new uint[](transporterAddresses.length);\n        for (uint i = 0; i < transporterAddresses.length; i++) {\n            address transporterAddress = transporterAddresses[i];\n            fees[i] = transporters[transporterAddress].fee;\n        }\n        return (transporterAddresses, fees);\n    }\n}\n",
  "sourcePath": "/Users/elias.safo/Desktop/BA/DecentralizedMarket2.0/decentralized-marketplace/contracts/ProductEscrow.sol",
  "compiler": {
    "name": "solc",
    "version": "0.8.0+commit.c7dfd78e.Emscripten.clang"
  },
  "schemaVersion": "3.4.16",
  "updatedAt": "2024-07-16T09:39:02.746Z",
  "devdoc": {
    "kind": "dev",
    "methods": {},
    "version": 1
  },
  "userdoc": {
    "kind": "user",
    "methods": {},
    "version": 1
  }
}