{
  "contractName": "ProductEscrow",
  "abi": [
    {
      "inputs": [
        {
          "internalType": "string",
          "name": "_name",
          "type": "string"
        },
        {
          "internalType": "uint256",
          "name": "_price",
          "type": "uint256"
        },
        {
          "internalType": "address",
          "name": "_owner",
          "type": "address"
        }
      ],
      "stateMutability": "nonpayable",
      "type": "constructor"
    },
    {
      "anonymous": false,
      "inputs": [
        {
          "indexed": false,
          "internalType": "address",
          "name": "buyer",
          "type": "address"
        },
        {
          "indexed": false,
          "internalType": "address",
          "name": "transporter",
          "type": "address"
        },
        {
          "indexed": false,
          "internalType": "uint256",
          "name": "price",
          "type": "uint256"
        }
      ],
      "name": "DeliveryConfirmed",
      "type": "event"
    },
    {
      "anonymous": false,
      "inputs": [
        {
          "indexed": false,
          "internalType": "address",
          "name": "buyer",
          "type": "address"
        },
        {
          "indexed": false,
          "internalType": "uint256",
          "name": "price",
          "type": "uint256"
        }
      ],
      "name": "ProductPurchased",
      "type": "event"
    },
    {
      "anonymous": false,
      "inputs": [
        {
          "indexed": false,
          "internalType": "address",
          "name": "transporter",
          "type": "address"
        },
        {
          "indexed": false,
          "internalType": "uint256",
          "name": "fee",
          "type": "uint256"
        }
      ],
      "name": "TransporterCreated",
      "type": "event"
    },
    {
      "anonymous": false,
      "inputs": [
        {
          "indexed": false,
          "internalType": "address",
          "name": "transporter",
          "type": "address"
        },
        {
          "indexed": false,
          "internalType": "uint256",
          "name": "price",
          "type": "uint256"
        }
      ],
      "name": "TransporterSecurityDeposit",
      "type": "event"
    },
    {
      "inputs": [],
      "name": "buyer",
      "outputs": [
        {
          "internalType": "address payable",
          "name": "",
          "type": "address"
        }
      ],
      "stateMutability": "view",
      "type": "function"
    },
    {
      "inputs": [],
      "name": "deliveryFee",
      "outputs": [
        {
          "internalType": "uint256",
          "name": "",
          "type": "uint256"
        }
      ],
      "stateMutability": "view",
      "type": "function"
    },
    {
      "inputs": [],
      "name": "id",
      "outputs": [
        {
          "internalType": "uint256",
          "name": "",
          "type": "uint256"
        }
      ],
      "stateMutability": "view",
      "type": "function"
    },
    {
      "inputs": [],
      "name": "name",
      "outputs": [
        {
          "internalType": "string",
          "name": "",
          "type": "string"
        }
      ],
      "stateMutability": "view",
      "type": "function"
    },
    {
      "inputs": [],
      "name": "owner",
      "outputs": [
        {
          "internalType": "address payable",
          "name": "",
          "type": "address"
        }
      ],
      "stateMutability": "view",
      "type": "function"
    },
    {
      "inputs": [],
      "name": "price",
      "outputs": [
        {
          "internalType": "uint256",
          "name": "",
          "type": "uint256"
        }
      ],
      "stateMutability": "view",
      "type": "function"
    },
    {
      "inputs": [],
      "name": "purchased",
      "outputs": [
        {
          "internalType": "bool",
          "name": "",
          "type": "bool"
        }
      ],
      "stateMutability": "view",
      "type": "function"
    },
    {
      "inputs": [],
      "name": "securityDepositAmount",
      "outputs": [
        {
          "internalType": "uint256",
          "name": "",
          "type": "uint256"
        }
      ],
      "stateMutability": "view",
      "type": "function"
    },
    {
      "inputs": [],
      "name": "transporter",
      "outputs": [
        {
          "internalType": "address payable",
          "name": "",
          "type": "address"
        }
      ],
      "stateMutability": "view",
      "type": "function"
    },
    {
      "inputs": [
        {
          "internalType": "uint256",
          "name": "",
          "type": "uint256"
        }
      ],
      "name": "transporterAddresses",
      "outputs": [
        {
          "internalType": "address",
          "name": "",
          "type": "address"
        }
      ],
      "stateMutability": "view",
      "type": "function"
    },
    {
      "inputs": [],
      "name": "transporterCount",
      "outputs": [
        {
          "internalType": "uint256",
          "name": "",
          "type": "uint256"
        }
      ],
      "stateMutability": "view",
      "type": "function"
    },
    {
      "inputs": [
        {
          "internalType": "address",
          "name": "",
          "type": "address"
        }
      ],
      "name": "transporters",
      "outputs": [
        {
          "internalType": "uint256",
          "name": "fee",
          "type": "uint256"
        }
      ],
      "stateMutability": "view",
      "type": "function"
    },
    {
      "inputs": [],
      "name": "confirmDelivery",
      "outputs": [],
      "stateMutability": "nonpayable",
      "type": "function"
    },
    {
      "inputs": [],
      "name": "depositPurchase",
      "outputs": [],
      "stateMutability": "payable",
      "type": "function"
    },
    {
      "inputs": [
        {
          "internalType": "address payable",
          "name": "_transporter",
          "type": "address"
        }
      ],
      "name": "setTransporter",
      "outputs": [],
      "stateMutability": "payable",
      "type": "function"
    },
    {
      "inputs": [
        {
          "internalType": "uint256",
          "name": "_feeInEther",
          "type": "uint256"
        }
      ],
      "name": "createTransporter",
      "outputs": [],
      "stateMutability": "nonpayable",
      "type": "function"
    },
    {
      "inputs": [],
      "name": "securityDeposit",
      "outputs": [],
      "stateMutability": "payable",
      "type": "function"
    },
    {
      "inputs": [],
      "name": "getAllTransporters",
      "outputs": [
        {
          "internalType": "address[]",
          "name": "",
          "type": "address[]"
        },
        {
          "internalType": "uint256[]",
          "name": "",
          "type": "uint256[]"
        }
      ],
      "stateMutability": "view",
      "type": "function"
    }
  ],
  "bytecode": "0x60806040523480156200001157600080fd5b50604051620021ec380380620021ec83398181016040528101906200003791906200024e565b82600190805190602001906200004f929190620000fe565b508160028190555080600360006101000a81548173ffffffffffffffffffffffffffffffffffffffff021916908373ffffffffffffffffffffffffffffffffffffffff1602179055506000600360146101000a81548160ff0219169083151502179055506000600460006101000a81548173ffffffffffffffffffffffffffffffffffffffff021916908373ffffffffffffffffffffffffffffffffffffffff16021790555050505062000460565b8280546200010c9062000398565b90600052602060002090601f0160209004810192826200013057600085556200017c565b82601f106200014b57805160ff19168380011785556200017c565b828001600101855582156200017c579182015b828111156200017b5782518255916020019190600101906200015e565b5b5090506200018b91906200018f565b5090565b5b80821115620001aa57600081600090555060010162000190565b5090565b6000620001c5620001bf84620002f1565b620002bd565b905082815260208101848484011115620001de57600080fd5b620001eb84828562000362565b509392505050565b60008151905062000204816200042c565b92915050565b600082601f8301126200021c57600080fd5b81516200022e848260208601620001ae565b91505092915050565b600081519050620002488162000446565b92915050565b6000806000606084860312156200026457600080fd5b600084015167ffffffffffffffff8111156200027f57600080fd5b6200028d868287016200020a565b9350506020620002a08682870162000237565b9250506040620002b386828701620001f3565b9150509250925092565b6000604051905081810181811067ffffffffffffffff82111715620002e757620002e6620003fd565b5b8060405250919050565b600067ffffffffffffffff8211156200030f576200030e620003fd565b5b601f19601f8301169050602081019050919050565b6000620003318262000338565b9050919050565b600073ffffffffffffffffffffffffffffffffffffffff82169050919050565b6000819050919050565b60005b838110156200038257808201518184015260208101905062000365565b8381111562000392576000848401525b50505050565b60006002820490506001821680620003b157607f821691505b60208210811415620003c857620003c7620003ce565b5b50919050565b7f4e487b7100000000000000000000000000000000000000000000000000000000600052602260045260246000fd5b7f4e487b7100000000000000000000000000000000000000000000000000000000600052604160045260246000fd5b620004378162000324565b81146200044357600080fd5b50565b620004518162000358565b81146200045d57600080fd5b50565b611d7c80620004706000396000f3fe6080604052600436106101095760003560e01c80638da5cb5b11610095578063d8f133f911610064578063d8f133f9146102d9578063e25bd15814610302578063e42b02121461033f578063f3cc0f1f1461036a578063fa949a011461039557610109565b80638da5cb5b1461023c5780639c8dadae14610267578063a035b1fe14610283578063af640d0f146102ae57610109565b80635e10177b116100dc5780635e10177b146101785780637150d8ae1461018f57806377db5719146101ba5780637df140e0146101e6578063879f9c961461021157610109565b806306fdde031461010e578063220e5ab31461013957806325901b8a1461014357806329dac7c61461014d575b600080fd5b34801561011a57600080fd5b506101236103d2565b6040516101309190611879565b60405180910390f35b610141610460565b005b61014b61061b565b005b34801561015957600080fd5b506101626107da565b60405161016f91906119fb565b60405180910390f35b34801561018457600080fd5b5061018d6107e0565b005b34801561019b57600080fd5b506101a4610acb565b6040516101b191906117ac565b60405180910390f35b3480156101c657600080fd5b506101cf610af1565b6040516101dd929190611827565b60405180910390f35b3480156101f257600080fd5b506101fb610d16565b60405161020891906119fb565b60405180910390f35b34801561021d57600080fd5b50610226610d1c565b604051610233919061185e565b60405180910390f35b34801561024857600080fd5b50610251610d2f565b60405161025e91906117ac565b60405180910390f35b610281600480360381019061027c91906111e7565b610d55565b005b34801561028f57600080fd5b50610298610f3a565b6040516102a591906119fb565b60405180910390f35b3480156102ba57600080fd5b506102c3610f40565b6040516102d091906119fb565b60405180910390f35b3480156102e557600080fd5b5061030060048036038101906102fb9190611210565b610f46565b005b34801561030e57600080fd5b50610329600480360381019061032491906111be565b6110f6565b60405161033691906119fb565b60405180910390f35b34801561034b57600080fd5b50610354611114565b60405161036191906117ac565b60405180910390f35b34801561037657600080fd5b5061037f61113a565b60405161038c91906119fb565b60405180910390f35b3480156103a157600080fd5b506103bc60048036038101906103b79190611210565b611140565b6040516103c99190611791565b60405180910390f35b600180546103df90611c17565b80601f016020809104026020016040519081016040528092919081815260200182805461040b90611c17565b80156104585780601f1061042d57610100808354040283529160200191610458565b820191906000526020600020905b81548152906001019060200180831161043b57829003601f168201915b505050505081565b600660009054906101000a900473ffffffffffffffffffffffffffffffffffffffff1673ffffffffffffffffffffffffffffffffffffffff163373ffffffffffffffffffffffffffffffffffffffff16146104f0576040517f08c379a00000000000000000000000000000000000000000000000000000000081526004016104e79061199b565b60405180910390fd5b600073ffffffffffffffffffffffffffffffffffffffff16600660009054906101000a900473ffffffffffffffffffffffffffffffffffffffff1673ffffffffffffffffffffffffffffffffffffffff161415610582576040517f08c379a0000000000000000000000000000000000000000000000000000000008152600401610579906118db565b60405180910390fd5b6002543410156105c7576040517f08c379a00000000000000000000000000000000000000000000000000000000081526004016105be906118fb565b60405180910390fd5b34600860008282546105d99190611aa4565b925050819055507f201b13bd8ab1bff9ab4fe027b08267af060c2ac596f9c2408338ae9030f9ec9933346040516106119291906117fe565b60405180910390a1565b600360149054906101000a900460ff161561066b576040517f08c379a00000000000000000000000000000000000000000000000000000000081526004016106629061191b565b60405180910390fd5b6002543410156106b0576040517f08c379a00000000000000000000000000000000000000000000000000000000081526004016106a7906119db565b60405180910390fd5b600360009054906101000a900473ffffffffffffffffffffffffffffffffffffffff1673ffffffffffffffffffffffffffffffffffffffff163373ffffffffffffffffffffffffffffffffffffffff161415610741576040517f08c379a00000000000000000000000000000000000000000000000000000000081526004016107389061197b565b60405180910390fd5b33600460006101000a81548173ffffffffffffffffffffffffffffffffffffffff021916908373ffffffffffffffffffffffffffffffffffffffff1602179055506001600360146101000a81548160ff0219169083151502179055507f621472621639c4a230476ed039dff3e99add1be6bca286f58ed565e08e781a5f336002546040516107d09291906117fe565b60405180910390a1565b60055481565b600460009054906101000a900473ffffffffffffffffffffffffffffffffffffffff1673ffffffffffffffffffffffffffffffffffffffff163373ffffffffffffffffffffffffffffffffffffffff1614610870576040517f08c379a0000000000000000000000000000000000000000000000000000000008152600401610867906118bb565b60405180910390fd5b600073ffffffffffffffffffffffffffffffffffffffff16600660009054906101000a900473ffffffffffffffffffffffffffffffffffffffff1673ffffffffffffffffffffffffffffffffffffffff161415610902576040517f08c379a00000000000000000000000000000000000000000000000000000000081526004016108f9906118db565b60405180910390fd5b600360009054906101000a900473ffffffffffffffffffffffffffffffffffffffff1673ffffffffffffffffffffffffffffffffffffffff166108fc6002549081150290604051600060405180830381858888f1935050505015801561096c573d6000803e3d6000fd5b50600660009054906101000a900473ffffffffffffffffffffffffffffffffffffffff1673ffffffffffffffffffffffffffffffffffffffff166108fc6007546008546109b99190611aa4565b9081150290604051600060405180830381858888f193505050501580156109e4573d6000803e3d6000fd5b50600460009054906101000a900473ffffffffffffffffffffffffffffffffffffffff16600360006101000a81548173ffffffffffffffffffffffffffffffffffffffff021916908373ffffffffffffffffffffffffffffffffffffffff1602179055507fdf462b659b1ef8bf3bb666339203dff5a51e2430e9caaf35984dcb2a92c77d66600460009054906101000a900473ffffffffffffffffffffffffffffffffffffffff16600660009054906101000a900473ffffffffffffffffffffffffffffffffffffffff16600254604051610ac1939291906117c7565b60405180910390a1565b600460009054906101000a900473ffffffffffffffffffffffffffffffffffffffff1681565b6060806000600a8054905067ffffffffffffffff811115610b3b577f4e487b7100000000000000000000000000000000000000000000000000000000600052604160045260246000fd5b604051908082528060200260200182016040528015610b695781602001602082028036833780820191505090505b50905060005b600a80549050811015610c81576000600a8281548110610bb8577f4e487b7100000000000000000000000000000000000000000000000000000000600052603260045260246000fd5b9060005260206000200160009054906101000a900473ffffffffffffffffffffffffffffffffffffffff169050600960008273ffffffffffffffffffffffffffffffffffffffff1673ffffffffffffffffffffffffffffffffffffffff16815260200190815260200160002060000154838381518110610c61577f4e487b7100000000000000000000000000000000000000000000000000000000600052603260045260246000fd5b602002602001018181525050508080610c7990611c49565b915050610b6f565b50600a8181805480602002602001604051908101604052809291908181526020018280548015610d0657602002820191906000526020600020905b8160009054906101000a900473ffffffffffffffffffffffffffffffffffffffff1673ffffffffffffffffffffffffffffffffffffffff1681526020019060010190808311610cbc575b5050505050915092509250509091565b60085481565b600360149054906101000a900460ff1681565b600360009054906101000a900473ffffffffffffffffffffffffffffffffffffffff1681565b600360009054906101000a900473ffffffffffffffffffffffffffffffffffffffff1673ffffffffffffffffffffffffffffffffffffffff163373ffffffffffffffffffffffffffffffffffffffff1614610de5576040517f08c379a0000000000000000000000000000000000000000000000000000000008152600401610ddc9061193b565b60405180910390fd5b600960008273ffffffffffffffffffffffffffffffffffffffff1673ffffffffffffffffffffffffffffffffffffffff168152602001908152602001600020600001543414610e69576040517f08c379a0000000000000000000000000000000000000000000000000000000008152600401610e609061189b565b60405180910390fd5b6000600960008373ffffffffffffffffffffffffffffffffffffffff1673ffffffffffffffffffffffffffffffffffffffff168152602001908152602001600020600001541415610eef576040517f08c379a0000000000000000000000000000000000000000000000000000000008152600401610ee69061195b565b60405180910390fd5b3460078190555080600660006101000a81548173ffffffffffffffffffffffffffffffffffffffff021916908373ffffffffffffffffffffffffffffffffffffffff16021790555050565b60025481565b60005481565b6000600960003373ffffffffffffffffffffffffffffffffffffffff1673ffffffffffffffffffffffffffffffffffffffff1681526020019081526020016000206000015414610fcb576040517f08c379a0000000000000000000000000000000000000000000000000000000008152600401610fc2906119bb565b60405180910390fd5b6000670de0b6b3a764000082610fe19190611afa565b9050604051806020016040528082815250600960003373ffffffffffffffffffffffffffffffffffffffff1673ffffffffffffffffffffffffffffffffffffffff16815260200190815260200160002060008201518160000155905050600a339080600181540180825580915050600190039060005260206000200160009091909190916101000a81548173ffffffffffffffffffffffffffffffffffffffff021916908373ffffffffffffffffffffffffffffffffffffffff160217905550600560008154809291906110b490611c49565b91905055507f82cd66133dda5e11a8bcba54ad8282733b8517996ec937641ea79418fb14157433826040516110ea9291906117fe565b60405180910390a15050565b60096020528060005260406000206000915090508060000154905081565b600660009054906101000a900473ffffffffffffffffffffffffffffffffffffffff1681565b60075481565b600a818154811061115057600080fd5b906000526020600020016000915054906101000a900473ffffffffffffffffffffffffffffffffffffffff1681565b60008135905061118e81611d01565b92915050565b6000813590506111a381611d18565b92915050565b6000813590506111b881611d2f565b92915050565b6000602082840312156111d057600080fd5b60006111de8482850161117f565b91505092915050565b6000602082840312156111f957600080fd5b600061120784828501611194565b91505092915050565b60006020828403121561122257600080fd5b6000611230848285016111a9565b91505092915050565b60006112458383611287565b60208301905092915050565b600061125d8383611773565b60208301905092915050565b61127281611bae565b82525050565b61128181611b66565b82525050565b61129081611b54565b82525050565b61129f81611b54565b82525050565b60006112b082611a36565b6112ba8185611a71565b93506112c583611a16565b8060005b838110156112f65781516112dd8882611239565b97506112e883611a57565b9250506001810190506112c9565b5085935050505092915050565b600061130e82611a41565b6113188185611a82565b935061132383611a26565b8060005b8381101561135457815161133b8882611251565b975061134683611a64565b925050600181019050611327565b5085935050505092915050565b61136a81611b78565b82525050565b600061137b82611a4c565b6113858185611a93565b9350611395818560208601611be4565b61139e81611cf0565b840191505092915050565b60006113b6602483611a93565b91507f53656c6c6572206e6565647320746f206465706f7369742064656c697665727960008301527f20666565000000000000000000000000000000000000000000000000000000006020830152604082019050919050565b600061141c602583611a93565b91507f4f6e6c79207468652062757965722063616e2063616c6c20746869732066756e60008301527f6374696f6e0000000000000000000000000000000000000000000000000000006020830152604082019050919050565b6000611482602883611a93565b91507f5472616e73706f72746572206e656564656420746f2063616c6c20746869732060008301527f66756e6374696f6e0000000000000000000000000000000000000000000000006020830152604082019050919050565b60006114e8603983611a93565b91507f5472616e73706f72746572206e6565647320746f206465706f73697420616e2060008301527f616d6f756e7420657175616c20746f20746865207072696365000000000000006020830152604082019050919050565b600061154e601983611a93565b91507f50726f6475637420616c726561647920707572636861736564000000000000006000830152602082019050919050565b600061158e602683611a93565b91507f4f6e6c79207468652073656c6c65722063616e2063616c6c207468697320667560008301527f6e6374696f6e00000000000000000000000000000000000000000000000000006020830152604082019050919050565b60006115f4602d83611a93565b91507f5472616e73706f727465722061646472657373206e6f7420666f756e6420696e60008301527f207472616e73706f7274657273000000000000000000000000000000000000006020830152604082019050919050565b600061165a601683611a93565b91507f43616e6e6f7420627579206f776e2070726f64756374000000000000000000006000830152602082019050919050565b600061169a602b83611a93565b91507f4f6e6c7920746865207472616e73706f727465722063616e2063616c6c20746860008301527f69732066756e6374696f6e0000000000000000000000000000000000000000006020830152604082019050919050565b6000611700601a83611a93565b91507f5472616e73706f7274657220616c7265616479206578697374730000000000006000830152602082019050919050565b6000611740601083611a93565b91507f4e6f7420656e6f756768204574686572000000000000000000000000000000006000830152602082019050919050565b61177c81611ba4565b82525050565b61178b81611ba4565b82525050565b60006020820190506117a66000830184611296565b92915050565b60006020820190506117c16000830184611278565b92915050565b60006060820190506117dc6000830186611269565b6117e96020830185611269565b6117f66040830184611782565b949350505050565b60006040820190506118136000830185611296565b6118206020830184611782565b9392505050565b6000604082019050818103600083015261184181856112a5565b905081810360208301526118558184611303565b90509392505050565b60006020820190506118736000830184611361565b92915050565b600060208201905081810360008301526118938184611370565b905092915050565b600060208201905081810360008301526118b4816113a9565b9050919050565b600060208201905081810360008301526118d48161140f565b9050919050565b600060208201905081810360008301526118f481611475565b9050919050565b60006020820190508181036000830152611914816114db565b9050919050565b6000602082019050818103600083015261193481611541565b9050919050565b6000602082019050818103600083015261195481611581565b9050919050565b60006020820190508181036000830152611974816115e7565b9050919050565b600060208201905081810360008301526119948161164d565b9050919050565b600060208201905081810360008301526119b48161168d565b9050919050565b600060208201905081810360008301526119d4816116f3565b9050919050565b600060208201905081810360008301526119f481611733565b9050919050565b6000602082019050611a106000830184611782565b92915050565b6000819050602082019050919050565b6000819050602082019050919050565b600081519050919050565b600081519050919050565b600081519050919050565b6000602082019050919050565b6000602082019050919050565b600082825260208201905092915050565b600082825260208201905092915050565b600082825260208201905092915050565b6000611aaf82611ba4565b9150611aba83611ba4565b9250827fffffffffffffffffffffffffffffffffffffffffffffffffffffffffffffffff03821115611aef57611aee611c92565b5b828201905092915050565b6000611b0582611ba4565b9150611b1083611ba4565b9250817fffffffffffffffffffffffffffffffffffffffffffffffffffffffffffffffff0483118215151615611b4957611b48611c92565b5b828202905092915050565b6000611b5f82611b84565b9050919050565b6000611b7182611b84565b9050919050565b60008115159050919050565b600073ffffffffffffffffffffffffffffffffffffffff82169050919050565b6000819050919050565b6000611bb982611bc0565b9050919050565b6000611bcb82611bd2565b9050919050565b6000611bdd82611b84565b9050919050565b60005b83811015611c02578082015181840152602081019050611be7565b83811115611c11576000848401525b50505050565b60006002820490506001821680611c2f57607f821691505b60208210811415611c4357611c42611cc1565b5b50919050565b6000611c5482611ba4565b91507fffffffffffffffffffffffffffffffffffffffffffffffffffffffffffffffff821415611c8757611c86611c92565b5b600182019050919050565b7f4e487b7100000000000000000000000000000000000000000000000000000000600052601160045260246000fd5b7f4e487b7100000000000000000000000000000000000000000000000000000000600052602260045260246000fd5b6000601f19601f8301169050919050565b611d0a81611b54565b8114611d1557600080fd5b50565b611d2181611b66565b8114611d2c57600080fd5b50565b611d3881611ba4565b8114611d4357600080fd5b5056fea2646970667358221220ad5c9bffbeed7dfaa5664a3b77e56cb19c34c3dbd161a8ba1aca106d5f6a5d5764736f6c63430008000033",
  "immutableReferences": {},
  "source": "// SPDX-License-Identifier: MIT\npragma solidity ^0.8.0;\n\ncontract ProductEscrow {\n    uint public id;\n    string public name;\n    uint public price; // Price in wei\n    address payable public owner;\n    bool public purchased;\n    address payable public buyer;\n    uint public transporterCount;\n    address payable public transporter;\n    uint public deliveryFee;\n    uint public securityDepositAmount; // Renamed from securityDeposit to securityDepositAmount\n\n\n    struct TransporterFees {\n        uint fee;\n    }\n\n    mapping(address => TransporterFees) public transporters; // Mapping with transporter address as key\n    address[] public transporterAddresses; // Array to store transporter addresses\n\n    modifier onlyBuyer() {\n        require(msg.sender == buyer, \"Only the buyer can call this function\");\n        _;\n    }\n\n    modifier onlySeller() {\n        require(msg.sender == owner, \"Only the seller can call this function\");\n        _;\n    }\n\n    modifier transporterSet() {\n        require(transporter != address(0), \"Transporter needed to call this function\");\n        _;\n    }\n\n    modifier onlyTransporter(){\n        require(msg.sender == transporter, \"Only the transporter can call this function\");\n        _;\n    }\n\n    event ProductPurchased(address buyer, uint price);\n    event TransporterCreated(address transporter, uint fee);\n    event TransporterSecurityDeposit(address transporter, uint price);\n    event DeliveryConfirmed(address buyer, address transporter, uint price);\n\n    constructor(string memory _name, uint _price, address _owner) {\n        name = _name;\n        price = _price; // Price is expected to be in wei\n        owner = payable(_owner);\n        purchased = false;\n        buyer = payable(address(0));\n    }\n\n    function confirmDelivery() public onlyBuyer transporterSet {\n        owner.transfer(price);\n        transporter.transfer(securityDepositAmount + deliveryFee);\n        owner = buyer;\n        emit DeliveryConfirmed(buyer, transporter, price); // Emit an event to notify the transporter\n    }\n\n\n    function depositPurchase() public payable {\n        require(!purchased, \"Product already purchased\");\n        require(msg.value >= price, \"Not enough Ether\");\n        require(msg.sender != owner, \"Cannot buy own product\");\n\n        buyer = payable(msg.sender);\n        purchased = true;\n        emit ProductPurchased(msg.sender, price);\n    }\n\n\n\n    function setTransporter(address payable _transporter) external payable onlySeller {\n        require(msg.value == transporters[_transporter].fee, \"Seller needs to deposit delivery fee\");\n        require(transporters[_transporter].fee != 0, \"Transporter address not found in transporters\");\n\n        deliveryFee = msg.value;\n        transporter = _transporter;\n    }\n\n    function createTransporter(uint _feeInEther) public {\n        require(transporters[msg.sender].fee == 0, \"Transporter already exists\");\n\n        // Convert fee from ether to wei\n        uint _feeInWei = _feeInEther * 1 ether;\n\n        transporters[msg.sender] = TransporterFees({\n            fee: _feeInWei\n        });\n        transporterAddresses.push(msg.sender);\n        transporterCount++;\n        emit TransporterCreated(msg.sender, _feeInWei);\n    }\n\n    function securityDeposit() public payable onlyTransporter transporterSet {\n        require(msg.value >= price, \"Transporter needs to deposit an amount equal to the price\");\n        securityDepositAmount += msg.value; // Update the securityDepositAmount\n        emit TransporterSecurityDeposit(msg.sender, msg.value);\n    }\n\n    function getAllTransporters() public view returns (address[] memory, uint[] memory) {\n        uint[] memory fees = new uint[](transporterAddresses.length);\n        for (uint i = 0; i < transporterAddresses.length; i++) {\n            address transporterAddress = transporterAddresses[i];\n            fees[i] = transporters[transporterAddress].fee;\n        }\n        return (transporterAddresses, fees);\n    }\n}\n",
  "sourcePath": "/Users/elias.safo/Desktop/BA/DecentralizedMarket2.0/decentralized-marketplace/contracts/ProductEscrow.sol",
  "compiler": {
    "name": "solc",
    "version": "0.8.0+commit.c7dfd78e.Emscripten.clang"
  },
  "schemaVersion": "3.4.16",
  "updatedAt": "2024-08-14T16:08:58.025Z",
  "devdoc": {
    "kind": "dev",
    "methods": {},
    "version": 1
  },
  "userdoc": {
    "kind": "user",
    "methods": {},
    "version": 1
  }
}