{
  "contractName": "ProductEscrow",
  "abi": [
    {
      "inputs": [
        {
          "internalType": "string",
          "name": "_name",
          "type": "string"
        },
        {
          "internalType": "uint256",
          "name": "_price",
          "type": "uint256"
        },
        {
          "internalType": "address",
          "name": "_owner",
          "type": "address"
        },
        {
          "internalType": "string",
          "name": "_vcCID",
          "type": "string"
        }
      ],
      "stateMutability": "nonpayable",
      "type": "constructor"
    },
    {
      "anonymous": false,
      "inputs": [
        {
          "indexed": false,
          "internalType": "address",
          "name": "buyer",
          "type": "address"
        },
        {
          "indexed": false,
          "internalType": "address",
          "name": "transporter",
          "type": "address"
        },
        {
          "indexed": false,
          "internalType": "uint256",
          "name": "price",
          "type": "uint256"
        }
      ],
      "name": "DeliveryConfirmed",
      "type": "event"
    },
    {
      "anonymous": false,
      "inputs": [
        {
          "indexed": false,
          "internalType": "address",
          "name": "buyer",
          "type": "address"
        },
        {
          "indexed": false,
          "internalType": "uint256",
          "name": "price",
          "type": "uint256"
        },
        {
          "indexed": false,
          "internalType": "string",
          "name": "vcCID",
          "type": "string"
        }
      ],
      "name": "ProductPurchased",
      "type": "event"
    },
    {
      "anonymous": false,
      "inputs": [
        {
          "indexed": false,
          "internalType": "address",
          "name": "transporter",
          "type": "address"
        },
        {
          "indexed": false,
          "internalType": "uint256",
          "name": "fee",
          "type": "uint256"
        }
      ],
      "name": "TransporterCreated",
      "type": "event"
    },
    {
      "anonymous": false,
      "inputs": [
        {
          "indexed": false,
          "internalType": "address",
          "name": "transporter",
          "type": "address"
        },
        {
          "indexed": false,
          "internalType": "uint256",
          "name": "price",
          "type": "uint256"
        }
      ],
      "name": "TransporterSecurityDeposit",
      "type": "event"
    },
    {
      "inputs": [],
      "name": "buyer",
      "outputs": [
        {
          "internalType": "address payable",
          "name": "",
          "type": "address"
        }
      ],
      "stateMutability": "view",
      "type": "function"
    },
    {
      "inputs": [],
      "name": "deliveryFee",
      "outputs": [
        {
          "internalType": "uint256",
          "name": "",
          "type": "uint256"
        }
      ],
      "stateMutability": "view",
      "type": "function"
    },
    {
      "inputs": [],
      "name": "id",
      "outputs": [
        {
          "internalType": "uint256",
          "name": "",
          "type": "uint256"
        }
      ],
      "stateMutability": "view",
      "type": "function"
    },
    {
      "inputs": [],
      "name": "name",
      "outputs": [
        {
          "internalType": "string",
          "name": "",
          "type": "string"
        }
      ],
      "stateMutability": "view",
      "type": "function"
    },
    {
      "inputs": [],
      "name": "owner",
      "outputs": [
        {
          "internalType": "address payable",
          "name": "",
          "type": "address"
        }
      ],
      "stateMutability": "view",
      "type": "function"
    },
    {
      "inputs": [],
      "name": "price",
      "outputs": [
        {
          "internalType": "uint256",
          "name": "",
          "type": "uint256"
        }
      ],
      "stateMutability": "view",
      "type": "function"
    },
    {
      "inputs": [],
      "name": "purchased",
      "outputs": [
        {
          "internalType": "bool",
          "name": "",
          "type": "bool"
        }
      ],
      "stateMutability": "view",
      "type": "function"
    },
    {
      "inputs": [],
      "name": "securityDepositAmount",
      "outputs": [
        {
          "internalType": "uint256",
          "name": "",
          "type": "uint256"
        }
      ],
      "stateMutability": "view",
      "type": "function"
    },
    {
      "inputs": [],
      "name": "transporter",
      "outputs": [
        {
          "internalType": "address payable",
          "name": "",
          "type": "address"
        }
      ],
      "stateMutability": "view",
      "type": "function"
    },
    {
      "inputs": [
        {
          "internalType": "uint256",
          "name": "",
          "type": "uint256"
        }
      ],
      "name": "transporterAddresses",
      "outputs": [
        {
          "internalType": "address",
          "name": "",
          "type": "address"
        }
      ],
      "stateMutability": "view",
      "type": "function"
    },
    {
      "inputs": [],
      "name": "transporterCount",
      "outputs": [
        {
          "internalType": "uint256",
          "name": "",
          "type": "uint256"
        }
      ],
      "stateMutability": "view",
      "type": "function"
    },
    {
      "inputs": [
        {
          "internalType": "address",
          "name": "",
          "type": "address"
        }
      ],
      "name": "transporters",
      "outputs": [
        {
          "internalType": "uint256",
          "name": "fee",
          "type": "uint256"
        }
      ],
      "stateMutability": "view",
      "type": "function"
    },
    {
      "inputs": [],
      "name": "vcCID",
      "outputs": [
        {
          "internalType": "string",
          "name": "",
          "type": "string"
        }
      ],
      "stateMutability": "view",
      "type": "function"
    },
    {
      "inputs": [],
      "name": "confirmDelivery",
      "outputs": [],
      "stateMutability": "nonpayable",
      "type": "function"
    },
    {
      "inputs": [],
      "name": "depositPurchase",
      "outputs": [],
      "stateMutability": "payable",
      "type": "function"
    },
    {
      "inputs": [
        {
          "internalType": "address payable",
          "name": "_transporter",
          "type": "address"
        }
      ],
      "name": "setTransporter",
      "outputs": [],
      "stateMutability": "payable",
      "type": "function"
    },
    {
      "inputs": [
        {
          "internalType": "uint256",
          "name": "_feeInEther",
          "type": "uint256"
        }
      ],
      "name": "createTransporter",
      "outputs": [],
      "stateMutability": "nonpayable",
      "type": "function"
    },
    {
      "inputs": [],
      "name": "securityDeposit",
      "outputs": [],
      "stateMutability": "payable",
      "type": "function"
    },
    {
      "inputs": [],
      "name": "getAllTransporters",
      "outputs": [
        {
          "internalType": "address[]",
          "name": "",
          "type": "address[]"
        },
        {
          "internalType": "uint256[]",
          "name": "",
          "type": "uint256[]"
        }
      ],
      "stateMutability": "view",
      "type": "function"
    },
    {
      "inputs": [],
      "name": "getCid",
      "outputs": [
        {
          "internalType": "string",
          "name": "",
          "type": "string"
        }
      ],
      "stateMutability": "view",
      "type": "function"
    }
  ],
  "bytecode": "0x60806040523480156200001157600080fd5b506040516200249738038062002497833981810160405281019062000037919062000268565b83600190805190602001906200004f92919062000118565b508260028190555081600360006101000a81548173ffffffffffffffffffffffffffffffffffffffff021916908373ffffffffffffffffffffffffffffffffffffffff1602179055506000600360146101000a81548160ff0219169083151502179055506000600460006101000a81548173ffffffffffffffffffffffffffffffffffffffff021916908373ffffffffffffffffffffffffffffffffffffffff16021790555080600990805190602001906200010d92919062000118565b5050505050620004a9565b8280546200012690620003e1565b90600052602060002090601f0160209004810192826200014a576000855562000196565b82601f106200016557805160ff191683800117855562000196565b8280016001018555821562000196579182015b828111156200019557825182559160200191906001019062000178565b5b509050620001a59190620001a9565b5090565b5b80821115620001c4576000816000905550600101620001aa565b5090565b6000620001df620001d9846200033a565b62000306565b905082815260208101848484011115620001f857600080fd5b62000205848285620003ab565b509392505050565b6000815190506200021e8162000475565b92915050565b600082601f8301126200023657600080fd5b815162000248848260208601620001c8565b91505092915050565b60008151905062000262816200048f565b92915050565b600080600080608085870312156200027f57600080fd5b600085015167ffffffffffffffff8111156200029a57600080fd5b620002a88782880162000224565b9450506020620002bb8782880162000251565b9350506040620002ce878288016200020d565b925050606085015167ffffffffffffffff811115620002ec57600080fd5b620002fa8782880162000224565b91505092959194509250565b6000604051905081810181811067ffffffffffffffff8211171562000330576200032f62000446565b5b8060405250919050565b600067ffffffffffffffff82111562000358576200035762000446565b5b601f19601f8301169050602081019050919050565b60006200037a8262000381565b9050919050565b600073ffffffffffffffffffffffffffffffffffffffff82169050919050565b6000819050919050565b60005b83811015620003cb578082015181840152602081019050620003ae565b83811115620003db576000848401525b50505050565b60006002820490506001821680620003fa57607f821691505b6020821081141562000411576200041062000417565b5b50919050565b7f4e487b7100000000000000000000000000000000000000000000000000000000600052602260045260246000fd5b7f4e487b7100000000000000000000000000000000000000000000000000000000600052604160045260246000fd5b62000480816200036d565b81146200048c57600080fd5b50565b6200049a81620003a1565b8114620004a657600080fd5b50565b611fde80620004b96000396000f3fe60806040526004361061011f5760003560e01c80639c8dadae116100a0578063d8f133f911610064578063d8f133f914610345578063e25bd1581461036e578063e42b0212146103ab578063f3cc0f1f146103d6578063fa949a01146104015761011f565b80639c8dadae1461027d5780639cb944b314610299578063a035b1fe146102c4578063af640d0f146102ef578063ca00c7021461031a5761011f565b80637150d8ae116100e75780637150d8ae146101a557806377db5719146101d05780637df140e0146101fc578063879f9c96146102275780638da5cb5b146102525761011f565b806306fdde0314610124578063220e5ab31461014f57806325901b8a1461015957806329dac7c6146101635780635e10177b1461018e575b600080fd5b34801561013057600080fd5b5061013961043e565b6040516101469190611ac6565b60405180910390f35b6101576104cc565b005b610161610687565b005b34801561016f57600080fd5b50610178610849565b6040516101859190611c48565b60405180910390f35b34801561019a57600080fd5b506101a361084f565b005b3480156101b157600080fd5b506101ba610b3a565b6040516101c791906119bb565b60405180910390f35b3480156101dc57600080fd5b506101e5610b60565b6040516101f3929190611a74565b60405180910390f35b34801561020857600080fd5b50610211610d85565b60405161021e9190611c48565b60405180910390f35b34801561023357600080fd5b5061023c610d8b565b6040516102499190611aab565b60405180910390f35b34801561025e57600080fd5b50610267610d9e565b60405161027491906119bb565b60405180910390f35b61029760048036038101906102929190611376565b610dc4565b005b3480156102a557600080fd5b506102ae610fa9565b6040516102bb9190611ac6565b60405180910390f35b3480156102d057600080fd5b506102d9611037565b6040516102e69190611c48565b60405180910390f35b3480156102fb57600080fd5b5061030461103d565b6040516103119190611c48565b60405180910390f35b34801561032657600080fd5b5061032f611043565b60405161033c9190611ac6565b60405180910390f35b34801561035157600080fd5b5061036c6004803603810190610367919061139f565b6110d5565b005b34801561037a57600080fd5b506103956004803603810190610390919061134d565b611285565b6040516103a29190611c48565b60405180910390f35b3480156103b757600080fd5b506103c06112a3565b6040516103cd91906119bb565b60405180910390f35b3480156103e257600080fd5b506103eb6112c9565b6040516103f89190611c48565b60405180910390f35b34801561040d57600080fd5b506104286004803603810190610423919061139f565b6112cf565b60405161043591906119a0565b60405180910390f35b6001805461044b90611e79565b80601f016020809104026020016040519081016040528092919081815260200182805461047790611e79565b80156104c45780601f10610499576101008083540402835291602001916104c4565b820191906000526020600020905b8154815290600101906020018083116104a757829003601f168201915b505050505081565b600660009054906101000a900473ffffffffffffffffffffffffffffffffffffffff1673ffffffffffffffffffffffffffffffffffffffff163373ffffffffffffffffffffffffffffffffffffffff161461055c576040517f08c379a000000000000000000000000000000000000000000000000000000000815260040161055390611be8565b60405180910390fd5b600073ffffffffffffffffffffffffffffffffffffffff16600660009054906101000a900473ffffffffffffffffffffffffffffffffffffffff1673ffffffffffffffffffffffffffffffffffffffff1614156105ee576040517f08c379a00000000000000000000000000000000000000000000000000000000081526004016105e590611b28565b60405180910390fd5b600254341015610633576040517f08c379a000000000000000000000000000000000000000000000000000000000815260040161062a90611b48565b60405180910390fd5b34600860008282546106459190611d06565b925050819055507f201b13bd8ab1bff9ab4fe027b08267af060c2ac596f9c2408338ae9030f9ec99333460405161067d929190611a0d565b60405180910390a1565b600360149054906101000a900460ff16156106d7576040517f08c379a00000000000000000000000000000000000000000000000000000000081526004016106ce90611b68565b60405180910390fd5b60025434101561071c576040517f08c379a000000000000000000000000000000000000000000000000000000000815260040161071390611c28565b60405180910390fd5b600360009054906101000a900473ffffffffffffffffffffffffffffffffffffffff1673ffffffffffffffffffffffffffffffffffffffff163373ffffffffffffffffffffffffffffffffffffffff1614156107ad576040517f08c379a00000000000000000000000000000000000000000000000000000000081526004016107a490611bc8565b60405180910390fd5b33600460006101000a81548173ffffffffffffffffffffffffffffffffffffffff021916908373ffffffffffffffffffffffffffffffffffffffff1602179055506001600360146101000a81548160ff0219169083151502179055507f5005c501164394cc38d9cc98c9ecc58c23b9bae65b6cb715f72bc1be481b764533600254600960405161083f93929190611a36565b60405180910390a1565b60055481565b600460009054906101000a900473ffffffffffffffffffffffffffffffffffffffff1673ffffffffffffffffffffffffffffffffffffffff163373ffffffffffffffffffffffffffffffffffffffff16146108df576040517f08c379a00000000000000000000000000000000000000000000000000000000081526004016108d690611b08565b60405180910390fd5b600073ffffffffffffffffffffffffffffffffffffffff16600660009054906101000a900473ffffffffffffffffffffffffffffffffffffffff1673ffffffffffffffffffffffffffffffffffffffff161415610971576040517f08c379a000000000000000000000000000000000000000000000000000000000815260040161096890611b28565b60405180910390fd5b600360009054906101000a900473ffffffffffffffffffffffffffffffffffffffff1673ffffffffffffffffffffffffffffffffffffffff166108fc6002549081150290604051600060405180830381858888f193505050501580156109db573d6000803e3d6000fd5b50600660009054906101000a900473ffffffffffffffffffffffffffffffffffffffff1673ffffffffffffffffffffffffffffffffffffffff166108fc600754600854610a289190611d06565b9081150290604051600060405180830381858888f19350505050158015610a53573d6000803e3d6000fd5b50600460009054906101000a900473ffffffffffffffffffffffffffffffffffffffff16600360006101000a81548173ffffffffffffffffffffffffffffffffffffffff021916908373ffffffffffffffffffffffffffffffffffffffff1602179055507fdf462b659b1ef8bf3bb666339203dff5a51e2430e9caaf35984dcb2a92c77d66600460009054906101000a900473ffffffffffffffffffffffffffffffffffffffff16600660009054906101000a900473ffffffffffffffffffffffffffffffffffffffff16600254604051610b30939291906119d6565b60405180910390a1565b600460009054906101000a900473ffffffffffffffffffffffffffffffffffffffff1681565b6060806000600b8054905067ffffffffffffffff811115610baa577f4e487b7100000000000000000000000000000000000000000000000000000000600052604160045260246000fd5b604051908082528060200260200182016040528015610bd85781602001602082028036833780820191505090505b50905060005b600b80549050811015610cf0576000600b8281548110610c27577f4e487b7100000000000000000000000000000000000000000000000000000000600052603260045260246000fd5b9060005260206000200160009054906101000a900473ffffffffffffffffffffffffffffffffffffffff169050600a60008273ffffffffffffffffffffffffffffffffffffffff1673ffffffffffffffffffffffffffffffffffffffff16815260200190815260200160002060000154838381518110610cd0577f4e487b7100000000000000000000000000000000000000000000000000000000600052603260045260246000fd5b602002602001018181525050508080610ce890611eab565b915050610bde565b50600b8181805480602002602001604051908101604052809291908181526020018280548015610d7557602002820191906000526020600020905b8160009054906101000a900473ffffffffffffffffffffffffffffffffffffffff1673ffffffffffffffffffffffffffffffffffffffff1681526020019060010190808311610d2b575b5050505050915092509250509091565b60085481565b600360149054906101000a900460ff1681565b600360009054906101000a900473ffffffffffffffffffffffffffffffffffffffff1681565b600360009054906101000a900473ffffffffffffffffffffffffffffffffffffffff1673ffffffffffffffffffffffffffffffffffffffff163373ffffffffffffffffffffffffffffffffffffffff1614610e54576040517f08c379a0000000000000000000000000000000000000000000000000000000008152600401610e4b90611b88565b60405180910390fd5b600a60008273ffffffffffffffffffffffffffffffffffffffff1673ffffffffffffffffffffffffffffffffffffffff168152602001908152602001600020600001543414610ed8576040517f08c379a0000000000000000000000000000000000000000000000000000000008152600401610ecf90611ae8565b60405180910390fd5b6000600a60008373ffffffffffffffffffffffffffffffffffffffff1673ffffffffffffffffffffffffffffffffffffffff168152602001908152602001600020600001541415610f5e576040517f08c379a0000000000000000000000000000000000000000000000000000000008152600401610f5590611ba8565b60405180910390fd5b3460078190555080600660006101000a81548173ffffffffffffffffffffffffffffffffffffffff021916908373ffffffffffffffffffffffffffffffffffffffff16021790555050565b60098054610fb690611e79565b80601f0160208091040260200160405190810160405280929190818152602001828054610fe290611e79565b801561102f5780601f106110045761010080835404028352916020019161102f565b820191906000526020600020905b81548152906001019060200180831161101257829003601f168201915b505050505081565b60025481565b60005481565b60606009805461105290611e79565b80601f016020809104026020016040519081016040528092919081815260200182805461107e90611e79565b80156110cb5780601f106110a0576101008083540402835291602001916110cb565b820191906000526020600020905b8154815290600101906020018083116110ae57829003601f168201915b5050505050905090565b6000600a60003373ffffffffffffffffffffffffffffffffffffffff1673ffffffffffffffffffffffffffffffffffffffff168152602001908152602001600020600001541461115a576040517f08c379a000000000000000000000000000000000000000000000000000000000815260040161115190611c08565b60405180910390fd5b6000670de0b6b3a7640000826111709190611d5c565b9050604051806020016040528082815250600a60003373ffffffffffffffffffffffffffffffffffffffff1673ffffffffffffffffffffffffffffffffffffffff16815260200190815260200160002060008201518160000155905050600b339080600181540180825580915050600190039060005260206000200160009091909190916101000a81548173ffffffffffffffffffffffffffffffffffffffff021916908373ffffffffffffffffffffffffffffffffffffffff1602179055506005600081548092919061124390611eab565b91905055507f82cd66133dda5e11a8bcba54ad8282733b8517996ec937641ea79418fb1415743382604051611279929190611a0d565b60405180910390a15050565b600a6020528060005260406000206000915090508060000154905081565b600660009054906101000a900473ffffffffffffffffffffffffffffffffffffffff1681565b60075481565b600b81815481106112df57600080fd5b906000526020600020016000915054906101000a900473ffffffffffffffffffffffffffffffffffffffff1681565b60008135905061131d81611f63565b92915050565b60008135905061133281611f7a565b92915050565b60008135905061134781611f91565b92915050565b60006020828403121561135f57600080fd5b600061136d8482850161130e565b91505092915050565b60006020828403121561138857600080fd5b600061139684828501611323565b91505092915050565b6000602082840312156113b157600080fd5b60006113bf84828501611338565b91505092915050565b60006113d48383611416565b60208301905092915050565b60006113ec8383611982565b60208301905092915050565b61140181611e10565b82525050565b61141081611dc8565b82525050565b61141f81611db6565b82525050565b61142e81611db6565b82525050565b600061143f82611c98565b6114498185611cd3565b935061145483611c63565b8060005b8381101561148557815161146c88826113c8565b975061147783611cb9565b925050600181019050611458565b5085935050505092915050565b600061149d82611ca3565b6114a78185611ce4565b93506114b283611c73565b8060005b838110156114e35781516114ca88826113e0565b97506114d583611cc6565b9250506001810190506114b6565b5085935050505092915050565b6114f981611dda565b82525050565b600061150a82611cae565b6115148185611cf5565b9350611524818560208601611e46565b61152d81611f52565b840191505092915050565b6000815461154581611e79565b61154f8186611cf5565b9450600182166000811461156a576001811461157c576115af565b60ff19831686526020860193506115af565b61158585611c83565b60005b838110156115a757815481890152600182019150602081019050611588565b808801955050505b50505092915050565b60006115c5602483611cf5565b91507f53656c6c6572206e6565647320746f206465706f7369742064656c697665727960008301527f20666565000000000000000000000000000000000000000000000000000000006020830152604082019050919050565b600061162b602583611cf5565b91507f4f6e6c79207468652062757965722063616e2063616c6c20746869732066756e60008301527f6374696f6e0000000000000000000000000000000000000000000000000000006020830152604082019050919050565b6000611691602883611cf5565b91507f5472616e73706f72746572206e656564656420746f2063616c6c20746869732060008301527f66756e6374696f6e0000000000000000000000000000000000000000000000006020830152604082019050919050565b60006116f7603983611cf5565b91507f5472616e73706f72746572206e6565647320746f206465706f73697420616e2060008301527f616d6f756e7420657175616c20746f20746865207072696365000000000000006020830152604082019050919050565b600061175d601983611cf5565b91507f50726f6475637420616c726561647920707572636861736564000000000000006000830152602082019050919050565b600061179d602683611cf5565b91507f4f6e6c79207468652073656c6c65722063616e2063616c6c207468697320667560008301527f6e6374696f6e00000000000000000000000000000000000000000000000000006020830152604082019050919050565b6000611803602d83611cf5565b91507f5472616e73706f727465722061646472657373206e6f7420666f756e6420696e60008301527f207472616e73706f7274657273000000000000000000000000000000000000006020830152604082019050919050565b6000611869601683611cf5565b91507f43616e6e6f7420627579206f776e2070726f64756374000000000000000000006000830152602082019050919050565b60006118a9602b83611cf5565b91507f4f6e6c7920746865207472616e73706f727465722063616e2063616c6c20746860008301527f69732066756e6374696f6e0000000000000000000000000000000000000000006020830152604082019050919050565b600061190f601a83611cf5565b91507f5472616e73706f7274657220616c7265616479206578697374730000000000006000830152602082019050919050565b600061194f601083611cf5565b91507f4e6f7420656e6f756768204574686572000000000000000000000000000000006000830152602082019050919050565b61198b81611e06565b82525050565b61199a81611e06565b82525050565b60006020820190506119b56000830184611425565b92915050565b60006020820190506119d06000830184611407565b92915050565b60006060820190506119eb60008301866113f8565b6119f860208301856113f8565b611a056040830184611991565b949350505050565b6000604082019050611a226000830185611425565b611a2f6020830184611991565b9392505050565b6000606082019050611a4b6000830186611425565b611a586020830185611991565b8181036040830152611a6a8184611538565b9050949350505050565b60006040820190508181036000830152611a8e8185611434565b90508181036020830152611aa28184611492565b90509392505050565b6000602082019050611ac060008301846114f0565b92915050565b60006020820190508181036000830152611ae081846114ff565b905092915050565b60006020820190508181036000830152611b01816115b8565b9050919050565b60006020820190508181036000830152611b218161161e565b9050919050565b60006020820190508181036000830152611b4181611684565b9050919050565b60006020820190508181036000830152611b61816116ea565b9050919050565b60006020820190508181036000830152611b8181611750565b9050919050565b60006020820190508181036000830152611ba181611790565b9050919050565b60006020820190508181036000830152611bc1816117f6565b9050919050565b60006020820190508181036000830152611be18161185c565b9050919050565b60006020820190508181036000830152611c018161189c565b9050919050565b60006020820190508181036000830152611c2181611902565b9050919050565b60006020820190508181036000830152611c4181611942565b9050919050565b6000602082019050611c5d6000830184611991565b92915050565b6000819050602082019050919050565b6000819050602082019050919050565b60008190508160005260206000209050919050565b600081519050919050565b600081519050919050565b600081519050919050565b6000602082019050919050565b6000602082019050919050565b600082825260208201905092915050565b600082825260208201905092915050565b600082825260208201905092915050565b6000611d1182611e06565b9150611d1c83611e06565b9250827fffffffffffffffffffffffffffffffffffffffffffffffffffffffffffffffff03821115611d5157611d50611ef4565b5b828201905092915050565b6000611d6782611e06565b9150611d7283611e06565b9250817fffffffffffffffffffffffffffffffffffffffffffffffffffffffffffffffff0483118215151615611dab57611daa611ef4565b5b828202905092915050565b6000611dc182611de6565b9050919050565b6000611dd382611de6565b9050919050565b60008115159050919050565b600073ffffffffffffffffffffffffffffffffffffffff82169050919050565b6000819050919050565b6000611e1b82611e22565b9050919050565b6000611e2d82611e34565b9050919050565b6000611e3f82611de6565b9050919050565b60005b83811015611e64578082015181840152602081019050611e49565b83811115611e73576000848401525b50505050565b60006002820490506001821680611e9157607f821691505b60208210811415611ea557611ea4611f23565b5b50919050565b6000611eb682611e06565b91507fffffffffffffffffffffffffffffffffffffffffffffffffffffffffffffffff821415611ee957611ee8611ef4565b5b600182019050919050565b7f4e487b7100000000000000000000000000000000000000000000000000000000600052601160045260246000fd5b7f4e487b7100000000000000000000000000000000000000000000000000000000600052602260045260246000fd5b6000601f19601f8301169050919050565b611f6c81611db6565b8114611f7757600080fd5b50565b611f8381611dc8565b8114611f8e57600080fd5b50565b611f9a81611e06565b8114611fa557600080fd5b5056fea2646970667358221220c026c668f2eb59a9fb3a87b320af1e501e139d74962ad0a59d04070dc075fe2664736f6c63430008000033",
  "immutableReferences": {},
  "source": "// SPDX-License-Identifier: MIT\npragma solidity ^0.8.0;\n\ncontract ProductEscrow {\n    uint public id;\n    string public name;\n    uint public price; // Price in wei\n    address payable public owner;\n    bool public purchased;\n    address payable public buyer;\n    uint public transporterCount;\n    address payable public transporter;\n    uint public deliveryFee;\n    uint public securityDepositAmount;\n    string public vcCID; // Store the CID for the verifiable credentials\n\n    struct TransporterFees {\n        uint fee;\n    }\n\n    mapping(address => TransporterFees) public transporters;\n    address[] public transporterAddresses;\n\n    modifier onlyBuyer() {\n        require(msg.sender == buyer, \"Only the buyer can call this function\");\n        _;\n    }\n\n    modifier onlySeller() {\n        require(msg.sender == owner, \"Only the seller can call this function\");\n        _;\n    }\n\n    modifier transporterSet() {\n        require(transporter != address(0), \"Transporter needed to call this function\");\n        _;\n    }\n\n    modifier onlyTransporter(){\n        require(msg.sender == transporter, \"Only the transporter can call this function\");\n        _;\n    }\n\n    event ProductPurchased(address buyer, uint price, string vcCID); // Include CID in the event\n    event TransporterCreated(address transporter, uint fee);\n    event TransporterSecurityDeposit(address transporter, uint price);\n    event DeliveryConfirmed(address buyer, address transporter, uint price);\n\n    constructor(string memory _name, uint _price, address _owner, string memory _vcCID) {\n        name = _name;\n        price = _price;\n        owner = payable(_owner);\n        purchased = false;\n        buyer = payable(address(0));\n        vcCID = _vcCID; // Initialize the CID\n    }\n\n    function confirmDelivery() public onlyBuyer transporterSet {\n        owner.transfer(price);\n        transporter.transfer(securityDepositAmount + deliveryFee);\n        owner = buyer;\n        emit DeliveryConfirmed(buyer, transporter, price);\n    }\n\n    function depositPurchase() public payable {\n        require(!purchased, \"Product already purchased\");\n        require(msg.value >= price, \"Not enough Ether\");\n        require(msg.sender != owner, \"Cannot buy own product\");\n\n        buyer = payable(msg.sender);\n        purchased = true;\n        emit ProductPurchased(msg.sender, price, vcCID); // Emit the CID with the purchase event\n    }\n\n    function setTransporter(address payable _transporter) external payable onlySeller {\n        require(msg.value == transporters[_transporter].fee, \"Seller needs to deposit delivery fee\");\n        require(transporters[_transporter].fee != 0, \"Transporter address not found in transporters\");\n\n        deliveryFee = msg.value;\n        transporter = _transporter;\n    }\n\n    function createTransporter(uint _feeInEther) public {\n        require(transporters[msg.sender].fee == 0, \"Transporter already exists\");\n\n        uint _feeInWei = _feeInEther * 1 ether;\n\n        transporters[msg.sender] = TransporterFees({ fee: _feeInWei });\n        transporterAddresses.push(msg.sender);\n        transporterCount++;\n        emit TransporterCreated(msg.sender, _feeInWei);\n    }\n\n    function securityDeposit() public payable onlyTransporter transporterSet {\n        require(msg.value >= price, \"Transporter needs to deposit an amount equal to the price\");\n        securityDepositAmount += msg.value;\n        emit TransporterSecurityDeposit(msg.sender, msg.value);\n    }\n\n    function getAllTransporters() public view returns (address[] memory, uint[] memory) {\n        uint[] memory fees = new uint[](transporterAddresses.length);\n        for (uint i = 0; i < transporterAddresses.length; i++) {\n            address transporterAddress = transporterAddresses[i];\n            fees[i] = transporters[transporterAddress].fee;\n        }\n        return (transporterAddresses, fees);\n    }\n\n    // Function to retrieve the CID\n    function getCid() public view returns (string memory) {\n        return vcCID;\n    }\n}\n",
  "sourcePath": "/Users/elias.safo/Desktop/BA/DecentralizedMarket2.0/decentralized-marketplace/contracts/ProductEscrow.sol",
  "compiler": {
    "name": "solc",
    "version": "0.8.0+commit.c7dfd78e.Emscripten.clang"
  },
  "schemaVersion": "3.4.16",
  "updatedAt": "2024-08-22T17:57:17.335Z",
  "devdoc": {
    "kind": "dev",
    "methods": {},
    "version": 1
  },
  "userdoc": {
    "kind": "user",
    "methods": {},
    "version": 1
  }
}