{
  "contractName": "ProductEscrow",
  "abi": [
    {
      "inputs": [
        {
          "internalType": "string",
          "name": "_name",
          "type": "string"
        },
        {
          "internalType": "uint256",
          "name": "_price",
          "type": "uint256"
        },
        {
          "internalType": "address",
          "name": "_owner",
          "type": "address"
        }
      ],
      "stateMutability": "nonpayable",
      "type": "constructor"
    },
    {
      "anonymous": false,
      "inputs": [
        {
          "indexed": false,
          "internalType": "address",
          "name": "buyer",
          "type": "address"
        },
        {
          "indexed": false,
          "internalType": "address",
          "name": "transporter",
          "type": "address"
        },
        {
          "indexed": false,
          "internalType": "uint256",
          "name": "price",
          "type": "uint256"
        }
      ],
      "name": "DeliveryConfirmed",
      "type": "event"
    },
    {
      "anonymous": false,
      "inputs": [
        {
          "indexed": false,
          "internalType": "address",
          "name": "buyer",
          "type": "address"
        },
        {
          "indexed": false,
          "internalType": "uint256",
          "name": "price",
          "type": "uint256"
        },
        {
          "indexed": false,
          "internalType": "string",
          "name": "vcCID",
          "type": "string"
        }
      ],
      "name": "OrderConfirmed",
      "type": "event"
    },
    {
      "anonymous": false,
      "inputs": [
        {
          "indexed": false,
          "internalType": "address",
          "name": "transporter",
          "type": "address"
        },
        {
          "indexed": false,
          "internalType": "uint256",
          "name": "fee",
          "type": "uint256"
        }
      ],
      "name": "TransporterCreated",
      "type": "event"
    },
    {
      "anonymous": false,
      "inputs": [
        {
          "indexed": false,
          "internalType": "address",
          "name": "transporter",
          "type": "address"
        },
        {
          "indexed": false,
          "internalType": "uint256",
          "name": "price",
          "type": "uint256"
        }
      ],
      "name": "TransporterSecurityDeposit",
      "type": "event"
    },
    {
      "inputs": [],
      "name": "buyer",
      "outputs": [
        {
          "internalType": "address payable",
          "name": "",
          "type": "address"
        }
      ],
      "stateMutability": "view",
      "type": "function"
    },
    {
      "inputs": [],
      "name": "deliveryFee",
      "outputs": [
        {
          "internalType": "uint256",
          "name": "",
          "type": "uint256"
        }
      ],
      "stateMutability": "view",
      "type": "function"
    },
    {
      "inputs": [],
      "name": "id",
      "outputs": [
        {
          "internalType": "uint256",
          "name": "",
          "type": "uint256"
        }
      ],
      "stateMutability": "view",
      "type": "function"
    },
    {
      "inputs": [],
      "name": "name",
      "outputs": [
        {
          "internalType": "string",
          "name": "",
          "type": "string"
        }
      ],
      "stateMutability": "view",
      "type": "function"
    },
    {
      "inputs": [],
      "name": "owner",
      "outputs": [
        {
          "internalType": "address payable",
          "name": "",
          "type": "address"
        }
      ],
      "stateMutability": "view",
      "type": "function"
    },
    {
      "inputs": [],
      "name": "price",
      "outputs": [
        {
          "internalType": "uint256",
          "name": "",
          "type": "uint256"
        }
      ],
      "stateMutability": "view",
      "type": "function"
    },
    {
      "inputs": [],
      "name": "purchased",
      "outputs": [
        {
          "internalType": "bool",
          "name": "",
          "type": "bool"
        }
      ],
      "stateMutability": "view",
      "type": "function"
    },
    {
      "inputs": [],
      "name": "securityDepositAmount",
      "outputs": [
        {
          "internalType": "uint256",
          "name": "",
          "type": "uint256"
        }
      ],
      "stateMutability": "view",
      "type": "function"
    },
    {
      "inputs": [],
      "name": "transporter",
      "outputs": [
        {
          "internalType": "address payable",
          "name": "",
          "type": "address"
        }
      ],
      "stateMutability": "view",
      "type": "function"
    },
    {
      "inputs": [
        {
          "internalType": "uint256",
          "name": "",
          "type": "uint256"
        }
      ],
      "name": "transporterAddresses",
      "outputs": [
        {
          "internalType": "address",
          "name": "",
          "type": "address"
        }
      ],
      "stateMutability": "view",
      "type": "function"
    },
    {
      "inputs": [],
      "name": "transporterCount",
      "outputs": [
        {
          "internalType": "uint256",
          "name": "",
          "type": "uint256"
        }
      ],
      "stateMutability": "view",
      "type": "function"
    },
    {
      "inputs": [
        {
          "internalType": "address",
          "name": "",
          "type": "address"
        }
      ],
      "name": "transporters",
      "outputs": [
        {
          "internalType": "uint256",
          "name": "fee",
          "type": "uint256"
        }
      ],
      "stateMutability": "view",
      "type": "function"
    },
    {
      "inputs": [],
      "name": "confirmDelivery",
      "outputs": [],
      "stateMutability": "nonpayable",
      "type": "function"
    },
    {
      "inputs": [
        {
          "internalType": "string",
          "name": "vc",
          "type": "string"
        }
      ],
      "name": "confirmOrder",
      "outputs": [],
      "stateMutability": "nonpayable",
      "type": "function"
    },
    {
      "inputs": [],
      "name": "depositPurchase",
      "outputs": [],
      "stateMutability": "payable",
      "type": "function"
    },
    {
      "inputs": [],
      "name": "withdrawProductPrice",
      "outputs": [],
      "stateMutability": "nonpayable",
      "type": "function"
    },
    {
      "inputs": [
        {
          "internalType": "address payable",
          "name": "_transporter",
          "type": "address"
        }
      ],
      "name": "setTransporter",
      "outputs": [],
      "stateMutability": "payable",
      "type": "function"
    },
    {
      "inputs": [
        {
          "internalType": "uint256",
          "name": "_feeInEther",
          "type": "uint256"
        }
      ],
      "name": "createTransporter",
      "outputs": [],
      "stateMutability": "nonpayable",
      "type": "function"
    },
    {
      "inputs": [],
      "name": "securityDeposit",
      "outputs": [],
      "stateMutability": "payable",
      "type": "function"
    },
    {
      "inputs": [],
      "name": "getAllTransporters",
      "outputs": [
        {
          "internalType": "address[]",
          "name": "",
          "type": "address[]"
        },
        {
          "internalType": "uint256[]",
          "name": "",
          "type": "uint256[]"
        }
      ],
      "stateMutability": "view",
      "type": "function"
    }
  ],
  "bytecode": "0x60806040523480156200001157600080fd5b50604051620027203803806200272083398181016040528101906200003791906200024e565b82600190805190602001906200004f929190620000fe565b508160028190555080600360006101000a81548173ffffffffffffffffffffffffffffffffffffffff021916908373ffffffffffffffffffffffffffffffffffffffff1602179055506000600360146101000a81548160ff0219169083151502179055506000600460006101000a81548173ffffffffffffffffffffffffffffffffffffffff021916908373ffffffffffffffffffffffffffffffffffffffff16021790555050505062000460565b8280546200010c9062000398565b90600052602060002090601f0160209004810192826200013057600085556200017c565b82601f106200014b57805160ff19168380011785556200017c565b828001600101855582156200017c579182015b828111156200017b5782518255916020019190600101906200015e565b5b5090506200018b91906200018f565b5090565b5b80821115620001aa57600081600090555060010162000190565b5090565b6000620001c5620001bf84620002f1565b620002bd565b905082815260208101848484011115620001de57600080fd5b620001eb84828562000362565b509392505050565b60008151905062000204816200042c565b92915050565b600082601f8301126200021c57600080fd5b81516200022e848260208601620001ae565b91505092915050565b600081519050620002488162000446565b92915050565b6000806000606084860312156200026457600080fd5b600084015167ffffffffffffffff8111156200027f57600080fd5b6200028d868287016200020a565b9350506020620002a08682870162000237565b9250506040620002b386828701620001f3565b9150509250925092565b6000604051905081810181811067ffffffffffffffff82111715620002e757620002e6620003fd565b5b8060405250919050565b600067ffffffffffffffff8211156200030f576200030e620003fd565b5b601f19601f8301169050602081019050919050565b6000620003318262000338565b9050919050565b600073ffffffffffffffffffffffffffffffffffffffff82169050919050565b6000819050919050565b60005b838110156200038257808201518184015260208101905062000365565b8381111562000392576000848401525b50505050565b60006002820490506001821680620003b157607f821691505b60208210811415620003c857620003c7620003ce565b5b50919050565b7f4e487b7100000000000000000000000000000000000000000000000000000000600052602260045260246000fd5b7f4e487b7100000000000000000000000000000000000000000000000000000000600052604160045260246000fd5b620004378162000324565b81146200044357600080fd5b50565b620004518162000358565b81146200045d57600080fd5b50565b6122b080620004706000396000f3fe60806040526004361061011f5760003560e01c8063879f9c96116100a0578063d8f133f911610064578063d8f133f91461032f578063e25bd15814610358578063e42b021214610395578063f3cc0f1f146103c0578063fa949a01146103eb5761011f565b8063879f9c96146102675780638da5cb5b146102925780639c8dadae146102bd578063a035b1fe146102d9578063af640d0f146103045761011f565b8063533a559b116100e7578063533a559b146101b75780635e10177b146101ce5780637150d8ae146101e557806377db5719146102105780637df140e01461023c5761011f565b806306fdde0314610124578063220e5ab31461014f57806325901b8a1461015957806329dac7c6146101635780633ace041a1461018e575b600080fd5b34801561013057600080fd5b50610139610428565b6040516101469190611cee565b60405180910390f35b6101576104b6565b005b610161610671565b005b34801561016f57600080fd5b506101786107f5565b6040516101859190611e90565b60405180910390f35b34801561019a57600080fd5b506101b560048036038101906101b091906115c6565b6107fb565b005b3480156101c357600080fd5b506101cc6108ed565b005b3480156101da57600080fd5b506101e3610b2e565b005b3480156101f157600080fd5b506101fa610e19565b6040516102079190611be3565b60405180910390f35b34801561021c57600080fd5b50610225610e3f565b604051610233929190611c9c565b60405180910390f35b34801561024857600080fd5b50610251611064565b60405161025e9190611e90565b60405180910390f35b34801561027357600080fd5b5061027c61106a565b6040516102899190611cd3565b60405180910390f35b34801561029e57600080fd5b506102a761107d565b6040516102b49190611be3565b60405180910390f35b6102d760048036038101906102d2919061159d565b6110a3565b005b3480156102e557600080fd5b506102ee611288565b6040516102fb9190611e90565b60405180910390f35b34801561031057600080fd5b5061031961128e565b6040516103269190611e90565b60405180910390f35b34801561033b57600080fd5b5061035660048036038101906103519190611607565b611294565b005b34801561036457600080fd5b5061037f600480360381019061037a9190611574565b611444565b60405161038c9190611e90565b60405180910390f35b3480156103a157600080fd5b506103aa611462565b6040516103b79190611be3565b60405180910390f35b3480156103cc57600080fd5b506103d5611488565b6040516103e29190611e90565b60405180910390f35b3480156103f757600080fd5b50610412600480360381019061040d9190611607565b61148e565b60405161041f9190611bc8565b60405180910390f35b600180546104359061211c565b80601f01602080910402602001604051908101604052809291908181526020018280546104619061211c565b80156104ae5780601f10610483576101008083540402835291602001916104ae565b820191906000526020600020905b81548152906001019060200180831161049157829003601f168201915b505050505081565b600660009054906101000a900473ffffffffffffffffffffffffffffffffffffffff1673ffffffffffffffffffffffffffffffffffffffff163373ffffffffffffffffffffffffffffffffffffffff1614610546576040517f08c379a000000000000000000000000000000000000000000000000000000000815260040161053d90611e10565b60405180910390fd5b600073ffffffffffffffffffffffffffffffffffffffff16600660009054906101000a900473ffffffffffffffffffffffffffffffffffffffff1673ffffffffffffffffffffffffffffffffffffffff1614156105d8576040517f08c379a00000000000000000000000000000000000000000000000000000000081526004016105cf90611d50565b60405180910390fd5b60025434101561061d576040517f08c379a000000000000000000000000000000000000000000000000000000000815260040161061490611d70565b60405180910390fd5b346008600082825461062f9190611f9a565b925050819055507f201b13bd8ab1bff9ab4fe027b08267af060c2ac596f9c2408338ae9030f9ec993334604051610667929190611c73565b60405180910390a1565b600360149054906101000a900460ff16156106c1576040517f08c379a00000000000000000000000000000000000000000000000000000000081526004016106b890611d90565b60405180910390fd5b600254341015610706576040517f08c379a00000000000000000000000000000000000000000000000000000000081526004016106fd90611e70565b60405180910390fd5b600360009054906101000a900473ffffffffffffffffffffffffffffffffffffffff1673ffffffffffffffffffffffffffffffffffffffff163373ffffffffffffffffffffffffffffffffffffffff161415610797576040517f08c379a000000000000000000000000000000000000000000000000000000000815260040161078e90611df0565b60405180910390fd5b33600460006101000a81548173ffffffffffffffffffffffffffffffffffffffff021916908373ffffffffffffffffffffffffffffffffffffffff1602179055506001600360146101000a81548160ff021916908315150217905550565b60055481565b600360009054906101000a900473ffffffffffffffffffffffffffffffffffffffff1673ffffffffffffffffffffffffffffffffffffffff163373ffffffffffffffffffffffffffffffffffffffff161461088b576040517f08c379a000000000000000000000000000000000000000000000000000000000815260040161088290611db0565b60405180910390fd5b7f4d555b09790773793494942fb558f3a083c7f96b2515533f7bf3283952c93ec4600460009054906101000a900473ffffffffffffffffffffffffffffffffffffffff16600254836040516108e293929190611c35565b60405180910390a150565b600460009054906101000a900473ffffffffffffffffffffffffffffffffffffffff1673ffffffffffffffffffffffffffffffffffffffff163373ffffffffffffffffffffffffffffffffffffffff161461097d576040517f08c379a000000000000000000000000000000000000000000000000000000000815260040161097490611d30565b60405180910390fd5b600073ffffffffffffffffffffffffffffffffffffffff16600660009054906101000a900473ffffffffffffffffffffffffffffffffffffffff1673ffffffffffffffffffffffffffffffffffffffff161415610a0f576040517f08c379a0000000000000000000000000000000000000000000000000000000008152600401610a0690611d50565b60405180910390fd5b600360149054906101000a900460ff16610a5e576040517f08c379a0000000000000000000000000000000000000000000000000000000008152600401610a5590611e50565b60405180910390fd5b600360009054906101000a900473ffffffffffffffffffffffffffffffffffffffff1673ffffffffffffffffffffffffffffffffffffffff166108fc6002549081150290604051600060405180830381858888f19350505050158015610ac8573d6000803e3d6000fd5b50600460009054906101000a900473ffffffffffffffffffffffffffffffffffffffff16600360006101000a81548173ffffffffffffffffffffffffffffffffffffffff021916908373ffffffffffffffffffffffffffffffffffffffff160217905550565b600460009054906101000a900473ffffffffffffffffffffffffffffffffffffffff1673ffffffffffffffffffffffffffffffffffffffff163373ffffffffffffffffffffffffffffffffffffffff1614610bbe576040517f08c379a0000000000000000000000000000000000000000000000000000000008152600401610bb590611d30565b60405180910390fd5b600073ffffffffffffffffffffffffffffffffffffffff16600660009054906101000a900473ffffffffffffffffffffffffffffffffffffffff1673ffffffffffffffffffffffffffffffffffffffff161415610c50576040517f08c379a0000000000000000000000000000000000000000000000000000000008152600401610c4790611d50565b60405180910390fd5b600360009054906101000a900473ffffffffffffffffffffffffffffffffffffffff1673ffffffffffffffffffffffffffffffffffffffff166108fc6002549081150290604051600060405180830381858888f19350505050158015610cba573d6000803e3d6000fd5b50600660009054906101000a900473ffffffffffffffffffffffffffffffffffffffff1673ffffffffffffffffffffffffffffffffffffffff166108fc600754600854610d079190611f9a565b9081150290604051600060405180830381858888f19350505050158015610d32573d6000803e3d6000fd5b50600460009054906101000a900473ffffffffffffffffffffffffffffffffffffffff16600360006101000a81548173ffffffffffffffffffffffffffffffffffffffff021916908373ffffffffffffffffffffffffffffffffffffffff1602179055507fdf462b659b1ef8bf3bb666339203dff5a51e2430e9caaf35984dcb2a92c77d66600460009054906101000a900473ffffffffffffffffffffffffffffffffffffffff16600660009054906101000a900473ffffffffffffffffffffffffffffffffffffffff16600254604051610e0f93929190611bfe565b60405180910390a1565b600460009054906101000a900473ffffffffffffffffffffffffffffffffffffffff1681565b6060806000600a8054905067ffffffffffffffff811115610e89577f4e487b7100000000000000000000000000000000000000000000000000000000600052604160045260246000fd5b604051908082528060200260200182016040528015610eb75781602001602082028036833780820191505090505b50905060005b600a80549050811015610fcf576000600a8281548110610f06577f4e487b7100000000000000000000000000000000000000000000000000000000600052603260045260246000fd5b9060005260206000200160009054906101000a900473ffffffffffffffffffffffffffffffffffffffff169050600960008273ffffffffffffffffffffffffffffffffffffffff1673ffffffffffffffffffffffffffffffffffffffff16815260200190815260200160002060000154838381518110610faf577f4e487b7100000000000000000000000000000000000000000000000000000000600052603260045260246000fd5b602002602001018181525050508080610fc79061214e565b915050610ebd565b50600a818180548060200260200160405190810160405280929190818152602001828054801561105457602002820191906000526020600020905b8160009054906101000a900473ffffffffffffffffffffffffffffffffffffffff1673ffffffffffffffffffffffffffffffffffffffff168152602001906001019080831161100a575b5050505050915092509250509091565b60085481565b600360149054906101000a900460ff1681565b600360009054906101000a900473ffffffffffffffffffffffffffffffffffffffff1681565b600360009054906101000a900473ffffffffffffffffffffffffffffffffffffffff1673ffffffffffffffffffffffffffffffffffffffff163373ffffffffffffffffffffffffffffffffffffffff1614611133576040517f08c379a000000000000000000000000000000000000000000000000000000000815260040161112a90611db0565b60405180910390fd5b600960008273ffffffffffffffffffffffffffffffffffffffff1673ffffffffffffffffffffffffffffffffffffffff1681526020019081526020016000206000015434146111b7576040517f08c379a00000000000000000000000000000000000000000000000000000000081526004016111ae90611d10565b60405180910390fd5b6000600960008373ffffffffffffffffffffffffffffffffffffffff1673ffffffffffffffffffffffffffffffffffffffff16815260200190815260200160002060000154141561123d576040517f08c379a000000000000000000000000000000000000000000000000000000000815260040161123490611dd0565b60405180910390fd5b3460078190555080600660006101000a81548173ffffffffffffffffffffffffffffffffffffffff021916908373ffffffffffffffffffffffffffffffffffffffff16021790555050565b60025481565b60005481565b6000600960003373ffffffffffffffffffffffffffffffffffffffff1673ffffffffffffffffffffffffffffffffffffffff1681526020019081526020016000206000015414611319576040517f08c379a000000000000000000000000000000000000000000000000000000000815260040161131090611e30565b60405180910390fd5b6000670de0b6b3a76400008261132f9190611ff0565b9050604051806020016040528082815250600960003373ffffffffffffffffffffffffffffffffffffffff1673ffffffffffffffffffffffffffffffffffffffff16815260200190815260200160002060008201518160000155905050600a339080600181540180825580915050600190039060005260206000200160009091909190916101000a81548173ffffffffffffffffffffffffffffffffffffffff021916908373ffffffffffffffffffffffffffffffffffffffff160217905550600560008154809291906114029061214e565b91905055507f82cd66133dda5e11a8bcba54ad8282733b8517996ec937641ea79418fb1415743382604051611438929190611c73565b60405180910390a15050565b60096020528060005260406000206000915090508060000154905081565b600660009054906101000a900473ffffffffffffffffffffffffffffffffffffffff1681565b60075481565b600a818154811061149e57600080fd5b906000526020600020016000915054906101000a900473ffffffffffffffffffffffffffffffffffffffff1681565b60006114e06114db84611edc565b611eab565b9050828152602081018484840111156114f857600080fd5b6115038482856120da565b509392505050565b60008135905061151a81612235565b92915050565b60008135905061152f8161224c565b92915050565b600082601f83011261154657600080fd5b81356115568482602086016114cd565b91505092915050565b60008135905061156e81612263565b92915050565b60006020828403121561158657600080fd5b60006115948482850161150b565b91505092915050565b6000602082840312156115af57600080fd5b60006115bd84828501611520565b91505092915050565b6000602082840312156115d857600080fd5b600082013567ffffffffffffffff8111156115f257600080fd5b6115fe84828501611535565b91505092915050565b60006020828403121561161957600080fd5b60006116278482850161155f565b91505092915050565b600061163c838361167e565b60208301905092915050565b60006116548383611baa565b60208301905092915050565b611669816120a4565b82525050565b6116788161205c565b82525050565b6116878161204a565b82525050565b6116968161204a565b82525050565b60006116a782611f2c565b6116b18185611f67565b93506116bc83611f0c565b8060005b838110156116ed5781516116d48882611630565b97506116df83611f4d565b9250506001810190506116c0565b5085935050505092915050565b600061170582611f37565b61170f8185611f78565b935061171a83611f1c565b8060005b8381101561174b5781516117328882611648565b975061173d83611f5a565b92505060018101905061171e565b5085935050505092915050565b6117618161206e565b82525050565b600061177282611f42565b61177c8185611f89565b935061178c8185602086016120e9565b61179581612224565b840191505092915050565b60006117ad602483611f89565b91507f53656c6c6572206e6565647320746f206465706f7369742064656c697665727960008301527f20666565000000000000000000000000000000000000000000000000000000006020830152604082019050919050565b6000611813602583611f89565b91507f4f6e6c79207468652062757965722063616e2063616c6c20746869732066756e60008301527f6374696f6e0000000000000000000000000000000000000000000000000000006020830152604082019050919050565b6000611879602883611f89565b91507f5472616e73706f72746572206e656564656420746f2063616c6c20746869732060008301527f66756e6374696f6e0000000000000000000000000000000000000000000000006020830152604082019050919050565b60006118df603983611f89565b91507f5472616e73706f72746572206e6565647320746f206465706f73697420616e2060008301527f616d6f756e7420657175616c20746f20746865207072696365000000000000006020830152604082019050919050565b6000611945601983611f89565b91507f50726f6475637420616c726561647920707572636861736564000000000000006000830152602082019050919050565b6000611985602683611f89565b91507f4f6e6c79207468652073656c6c65722063616e2063616c6c207468697320667560008301527f6e6374696f6e00000000000000000000000000000000000000000000000000006020830152604082019050919050565b60006119eb602d83611f89565b91507f5472616e73706f727465722061646472657373206e6f7420666f756e6420696e60008301527f207472616e73706f7274657273000000000000000000000000000000000000006020830152604082019050919050565b6000611a51601683611f89565b91507f43616e6e6f7420627579206f776e2070726f64756374000000000000000000006000830152602082019050919050565b6000611a91602b83611f89565b91507f4f6e6c7920746865207472616e73706f727465722063616e2063616c6c20746860008301527f69732066756e6374696f6e0000000000000000000000000000000000000000006020830152604082019050919050565b6000611af7601a83611f89565b91507f5472616e73706f7274657220616c7265616479206578697374730000000000006000830152602082019050919050565b6000611b37601983611f89565b91507f50726f64756374206e6f742079657420707572636861736564000000000000006000830152602082019050919050565b6000611b77601083611f89565b91507f4e6f7420656e6f756768204574686572000000000000000000000000000000006000830152602082019050919050565b611bb38161209a565b82525050565b611bc28161209a565b82525050565b6000602082019050611bdd600083018461168d565b92915050565b6000602082019050611bf8600083018461166f565b92915050565b6000606082019050611c136000830186611660565b611c206020830185611660565b611c2d6040830184611bb9565b949350505050565b6000606082019050611c4a6000830186611660565b611c576020830185611bb9565b8181036040830152611c698184611767565b9050949350505050565b6000604082019050611c88600083018561168d565b611c956020830184611bb9565b9392505050565b60006040820190508181036000830152611cb6818561169c565b90508181036020830152611cca81846116fa565b90509392505050565b6000602082019050611ce86000830184611758565b92915050565b60006020820190508181036000830152611d088184611767565b905092915050565b60006020820190508181036000830152611d29816117a0565b9050919050565b60006020820190508181036000830152611d4981611806565b9050919050565b60006020820190508181036000830152611d698161186c565b9050919050565b60006020820190508181036000830152611d89816118d2565b9050919050565b60006020820190508181036000830152611da981611938565b9050919050565b60006020820190508181036000830152611dc981611978565b9050919050565b60006020820190508181036000830152611de9816119de565b9050919050565b60006020820190508181036000830152611e0981611a44565b9050919050565b60006020820190508181036000830152611e2981611a84565b9050919050565b60006020820190508181036000830152611e4981611aea565b9050919050565b60006020820190508181036000830152611e6981611b2a565b9050919050565b60006020820190508181036000830152611e8981611b6a565b9050919050565b6000602082019050611ea56000830184611bb9565b92915050565b6000604051905081810181811067ffffffffffffffff82111715611ed257611ed16121f5565b5b8060405250919050565b600067ffffffffffffffff821115611ef757611ef66121f5565b5b601f19601f8301169050602081019050919050565b6000819050602082019050919050565b6000819050602082019050919050565b600081519050919050565b600081519050919050565b600081519050919050565b6000602082019050919050565b6000602082019050919050565b600082825260208201905092915050565b600082825260208201905092915050565b600082825260208201905092915050565b6000611fa58261209a565b9150611fb08361209a565b9250827fffffffffffffffffffffffffffffffffffffffffffffffffffffffffffffffff03821115611fe557611fe4612197565b5b828201905092915050565b6000611ffb8261209a565b91506120068361209a565b9250817fffffffffffffffffffffffffffffffffffffffffffffffffffffffffffffffff048311821515161561203f5761203e612197565b5b828202905092915050565b60006120558261207a565b9050919050565b60006120678261207a565b9050919050565b60008115159050919050565b600073ffffffffffffffffffffffffffffffffffffffff82169050919050565b6000819050919050565b60006120af826120b6565b9050919050565b60006120c1826120c8565b9050919050565b60006120d38261207a565b9050919050565b82818337600083830152505050565b60005b838110156121075780820151818401526020810190506120ec565b83811115612116576000848401525b50505050565b6000600282049050600182168061213457607f821691505b60208210811415612148576121476121c6565b5b50919050565b60006121598261209a565b91507fffffffffffffffffffffffffffffffffffffffffffffffffffffffffffffffff82141561218c5761218b612197565b5b600182019050919050565b7f4e487b7100000000000000000000000000000000000000000000000000000000600052601160045260246000fd5b7f4e487b7100000000000000000000000000000000000000000000000000000000600052602260045260246000fd5b7f4e487b7100000000000000000000000000000000000000000000000000000000600052604160045260246000fd5b6000601f19601f8301169050919050565b61223e8161204a565b811461224957600080fd5b50565b6122558161205c565b811461226057600080fd5b50565b61226c8161209a565b811461227757600080fd5b5056fea264697066735822122024c7a87dbc83363487b13ae27e21c99a6943996e6541c4743f724bd9e258012d64736f6c63430008000033",
  "immutableReferences": {},
  "source": "// SPDX-License-Identifier: MIT\npragma solidity ^0.8.0;\n\ncontract ProductEscrow {\n    uint public id;\n    string public name;\n    uint public price; // Price in wei\n    address payable public owner;\n    bool public purchased;\n    address payable public buyer;\n    uint public transporterCount;\n    address payable public transporter;\n    uint public deliveryFee;\n    uint public securityDepositAmount;\n\n    struct TransporterFees {\n        uint fee;\n    }\n\n    mapping(address => TransporterFees) public transporters;\n    address[] public transporterAddresses;\n\n    modifier onlyBuyer() {\n        require(msg.sender == buyer, \"Only the buyer can call this function\");\n        _;\n    }\n\n    modifier onlySeller() {\n        require(msg.sender == owner, \"Only the seller can call this function\");\n        _;\n    }\n\n    modifier transporterSet() {\n        require(transporter != address(0), \"Transporter needed to call this function\");\n        _;\n    }\n\n    modifier onlyTransporter(){\n        require(msg.sender == transporter, \"Only the transporter can call this function\");\n        _;\n    }\n\n    event OrderConfirmed(address buyer, uint price, string vcCID); // Include CID in the event\n    event TransporterCreated(address transporter, uint fee);\n    event TransporterSecurityDeposit(address transporter, uint price);\n    event DeliveryConfirmed(address buyer, address transporter, uint price); // Correctly declare the event\n\n    constructor(string memory _name, uint _price, address _owner) {\n        name = _name;\n        price = _price;\n        owner = payable(_owner);\n        purchased = false;\n        buyer = payable(address(0));\n    }\n\n    function confirmDelivery() public onlyBuyer transporterSet {\n        owner.transfer(price);\n        transporter.transfer(securityDepositAmount + deliveryFee);\n        owner = buyer;\n        emit DeliveryConfirmed(buyer, transporter, price); // Emit the event inside the function\n    }\n\n    function confirmOrder(string memory vc) public onlySeller {\n        emit OrderConfirmed(buyer, price, vc); // Emit the ProductPurchased event with the correct parameters\n    }\n\n    function depositPurchase() public payable {\n        require(!purchased, \"Product already purchased\");\n        require(msg.value >= price, \"Not enough Ether\");\n        require(msg.sender != owner, \"Cannot buy own product\");\n\n        buyer = payable(msg.sender);\n        purchased = true;\n    }\n\n    function withdrawProductPrice() public onlyBuyer transporterSet {\n        require(purchased, \"Product not yet purchased\");\n        owner.transfer(price);\n        owner = buyer;\n    }\n\n    function setTransporter(address payable _transporter) external payable onlySeller {\n        require(msg.value == transporters[_transporter].fee, \"Seller needs to deposit delivery fee\");\n        require(transporters[_transporter].fee != 0, \"Transporter address not found in transporters\");\n\n        deliveryFee = msg.value;\n        transporter = _transporter;\n    }\n\n    function createTransporter(uint _feeInEther) public {\n        require(transporters[msg.sender].fee == 0, \"Transporter already exists\");\n\n        uint _feeInWei = _feeInEther * 1 ether;\n\n        transporters[msg.sender] = TransporterFees({ fee: _feeInWei });\n        transporterAddresses.push(msg.sender);\n        transporterCount++;\n        emit TransporterCreated(msg.sender, _feeInWei);\n    }\n\n    function securityDeposit() public payable onlyTransporter transporterSet {\n        require(msg.value >= price, \"Transporter needs to deposit an amount equal to the price\");\n        securityDepositAmount += msg.value;\n        emit TransporterSecurityDeposit(msg.sender, msg.value);\n    }\n\n    function getAllTransporters() public view returns (address[] memory, uint[] memory) {\n        uint[] memory fees = new uint[](transporterAddresses.length);\n        for (uint i = 0; i < transporterAddresses.length; i++) {\n            address transporterAddress = transporterAddresses[i];\n            fees[i] = transporters[transporterAddress].fee;\n        }\n        return (transporterAddresses, fees);\n    }\n}\n",
  "sourcePath": "/Users/elias.safo/Desktop/BA/DecentralizedMarket2.0/decentralized-marketplace/contracts/ProductEscrow.sol",
  "compiler": {
    "name": "solc",
    "version": "0.8.0+commit.c7dfd78e.Emscripten.clang"
  },
  "schemaVersion": "3.4.16",
  "updatedAt": "2024-08-26T15:42:08.901Z",
  "devdoc": {
    "kind": "dev",
    "methods": {},
    "version": 1
  },
  "userdoc": {
    "kind": "user",
    "methods": {},
    "version": 1
  }
}