{
  "contractName": "Escrow",
  "abi": [
    {
      "inputs": [
        {
          "internalType": "address payable",
          "name": "_seller",
          "type": "address"
        },
        {
          "internalType": "address",
          "name": "_agent",
          "type": "address"
        },
        {
          "internalType": "uint256",
          "name": "secondsTillExpiry",
          "type": "uint256"
        }
      ],
      "stateMutability": "payable",
      "type": "constructor"
    },
    {
      "inputs": [],
      "name": "escrow",
      "outputs": [
        {
          "internalType": "uint256",
          "name": "amount",
          "type": "uint256"
        },
        {
          "internalType": "uint256",
          "name": "deliveryFee",
          "type": "uint256"
        },
        {
          "internalType": "uint256",
          "name": "securityDeposit",
          "type": "uint256"
        },
        {
          "internalType": "uint256",
          "name": "expiryTimeStamp",
          "type": "uint256"
        },
        {
          "internalType": "address payable",
          "name": "buyer",
          "type": "address"
        },
        {
          "internalType": "address payable",
          "name": "seller",
          "type": "address"
        },
        {
          "internalType": "address",
          "name": "agent",
          "type": "address"
        },
        {
          "internalType": "address payable",
          "name": "transporter",
          "type": "address"
        },
        {
          "internalType": "bytes32",
          "name": "verificationCodeHash",
          "type": "bytes32"
        },
        {
          "internalType": "bool",
          "name": "delivered",
          "type": "bool"
        }
      ],
      "stateMutability": "view",
      "type": "function"
    },
    {
      "inputs": [
        {
          "internalType": "uint256",
          "name": "",
          "type": "uint256"
        }
      ],
      "name": "transporterAddresses",
      "outputs": [
        {
          "internalType": "address",
          "name": "",
          "type": "address"
        }
      ],
      "stateMutability": "view",
      "type": "function"
    },
    {
      "inputs": [],
      "name": "transporterCount",
      "outputs": [
        {
          "internalType": "uint256",
          "name": "",
          "type": "uint256"
        }
      ],
      "stateMutability": "view",
      "type": "function"
    },
    {
      "inputs": [
        {
          "internalType": "address",
          "name": "",
          "type": "address"
        }
      ],
      "name": "transporters",
      "outputs": [
        {
          "internalType": "uint256",
          "name": "fee",
          "type": "uint256"
        }
      ],
      "stateMutability": "view",
      "type": "function"
    },
    {
      "inputs": [],
      "name": "withdrawAmount",
      "outputs": [
        {
          "internalType": "bool",
          "name": "",
          "type": "bool"
        }
      ],
      "stateMutability": "payable",
      "type": "function"
    },
    {
      "inputs": [
        {
          "internalType": "string",
          "name": "verificationCode",
          "type": "string"
        }
      ],
      "name": "setVerificationCode",
      "outputs": [],
      "stateMutability": "nonpayable",
      "type": "function"
    },
    {
      "inputs": [
        {
          "internalType": "string",
          "name": "verificationCode",
          "type": "string"
        }
      ],
      "name": "delivered",
      "outputs": [
        {
          "internalType": "bool",
          "name": "",
          "type": "bool"
        }
      ],
      "stateMutability": "nonpayable",
      "type": "function"
    },
    {
      "inputs": [
        {
          "internalType": "string",
          "name": "verificationCode",
          "type": "string"
        }
      ],
      "name": "hashTester",
      "outputs": [
        {
          "internalType": "bytes32",
          "name": "",
          "type": "bytes32"
        }
      ],
      "stateMutability": "pure",
      "type": "function"
    },
    {
      "inputs": [
        {
          "internalType": "address payable",
          "name": "_transporter",
          "type": "address"
        }
      ],
      "name": "setTransporter",
      "outputs": [],
      "stateMutability": "payable",
      "type": "function"
    },
    {
      "inputs": [
        {
          "internalType": "uint256",
          "name": "_feeInEther",
          "type": "uint256"
        }
      ],
      "name": "createTransporter",
      "outputs": [],
      "stateMutability": "payable",
      "type": "function"
    },
    {
      "inputs": [],
      "name": "getAllTransporters",
      "outputs": [
        {
          "internalType": "address[]",
          "name": "",
          "type": "address[]"
        },
        {
          "internalType": "uint256[]",
          "name": "",
          "type": "uint256[]"
        }
      ],
      "stateMutability": "view",
      "type": "function"
    }
  ],
  "bytecode": "0x608060405260405162002016380380620020168339818101604052810190620000299190620002c3565b6040518061014001604052803481526020016000815260200160008152602001824262000057919062000357565b81526020013373ffffffffffffffffffffffffffffffffffffffff1681526020018473ffffffffffffffffffffffffffffffffffffffff1681526020018373ffffffffffffffffffffffffffffffffffffffff168152602001600073ffffffffffffffffffffffffffffffffffffffff168152602001604051602001620000de9062000335565b6040516020818303038152906040528051906020012081526020016000151581525060036000820151816000015560208201518160010155604082015181600201556060820151816003015560808201518160040160006101000a81548173ffffffffffffffffffffffffffffffffffffffff021916908373ffffffffffffffffffffffffffffffffffffffff16021790555060a08201518160050160006101000a81548173ffffffffffffffffffffffffffffffffffffffff021916908373ffffffffffffffffffffffffffffffffffffffff16021790555060c08201518160060160006101000a81548173ffffffffffffffffffffffffffffffffffffffff021916908373ffffffffffffffffffffffffffffffffffffffff16021790555060e08201518160070160006101000a81548173ffffffffffffffffffffffffffffffffffffffff021916908373ffffffffffffffffffffffffffffffffffffffff16021790555061010082015181600801556101208201518160090160006101000a81548160ff02191690831515021790555090505050505062000483565b6000815190506200028f8162000435565b92915050565b600081519050620002a6816200044f565b92915050565b600081519050620002bd8162000469565b92915050565b600080600060608486031215620002d957600080fd5b6000620002e98682870162000295565b9350506020620002fc868287016200027e565b92505060406200030f86828701620002ac565b9150509250925092565b6000620003286000836200034c565b9150600082019050919050565b6000620003428262000319565b9150819050919050565b600081905092915050565b60006200036482620003fc565b91506200037183620003fc565b9250827fffffffffffffffffffffffffffffffffffffffffffffffffffffffffffffffff03821115620003a957620003a862000406565b5b828201905092915050565b6000620003c182620003dc565b9050919050565b6000620003d582620003dc565b9050919050565b600073ffffffffffffffffffffffffffffffffffffffff82169050919050565b6000819050919050565b7f4e487b7100000000000000000000000000000000000000000000000000000000600052601160045260246000fd5b6200044081620003b4565b81146200044c57600080fd5b50565b6200045a81620003c8565b81146200046657600080fd5b50565b6200047481620003fc565b81146200048057600080fd5b50565b611b8380620004936000396000f3fe60806040526004361061009c5760003560e01c80639c8dadae116100645780639c8dadae14610190578063bc419f97146101ac578063d8f133f9146101d5578063e25bd158146101f1578063e2fdcc171461022e578063fa949a01146102625761009c565b806329dac7c6146100a1578063534844a2146100cc57806369bad82b146100ea57806373391c701461012757806377db571914610164575b600080fd5b3480156100ad57600080fd5b506100b661029f565b6040516100c39190611828565b60405180910390f35b6100d46102a5565b6040516100e191906116d2565b60405180910390f35b3480156100f657600080fd5b50610111600480360381019061010c919061110f565b61047b565b60405161011e91906116d2565b60405180910390f35b34801561013357600080fd5b5061014e6004803603810190610149919061110f565b61072e565b60405161015b91906116ed565b60405180910390f35b34801561017057600080fd5b50610179610761565b60405161018792919061169b565b60405180910390f35b6101aa60048036038101906101a591906110e6565b610986565b005b3480156101b857600080fd5b506101d360048036038101906101ce919061110f565b610c82565b005b6101ef60048036038101906101ea9190611154565b610d4b565b005b3480156101fd57600080fd5b50610218600480360381019061021391906110bd565b610f08565b6040516102259190611828565b60405180910390f35b34801561023a57600080fd5b50610243610f26565b6040516102599a99989796959493929190611843565b60405180910390f35b34801561026e57600080fd5b5061028960048036038101906102849190611154565b610ff5565b6040516102969190611680565b60405180910390f35b60005481565b6000600360050160009054906101000a900473ffffffffffffffffffffffffffffffffffffffff1673ffffffffffffffffffffffffffffffffffffffff163373ffffffffffffffffffffffffffffffffffffffff161461033a576040517f08c379a000000000000000000000000000000000000000000000000000000000815260040161033190611768565b60405180910390fd5b600073ffffffffffffffffffffffffffffffffffffffff16600360070160009054906101000a900473ffffffffffffffffffffffffffffffffffffffff1673ffffffffffffffffffffffffffffffffffffffff1614156103cf576040517f08c379a00000000000000000000000000000000000000000000000000000000081526004016103c690611748565b60405180910390fd5b60011515600360090160009054906101000a900460ff16151514610428576040517f08c379a000000000000000000000000000000000000000000000000000000000815260040161041f906117e8565b60405180910390fd5b3373ffffffffffffffffffffffffffffffffffffffff166108fc6003600001549081150290604051600060405180830381858888f19350505050158015610473573d6000803e3d6000fd5b506001905090565b6000600360040160009054906101000a900473ffffffffffffffffffffffffffffffffffffffff1673ffffffffffffffffffffffffffffffffffffffff163373ffffffffffffffffffffffffffffffffffffffff1614610510576040517f08c379a000000000000000000000000000000000000000000000000000000000815260040161050790611728565b60405180910390fd5b600073ffffffffffffffffffffffffffffffffffffffff16600360070160009054906101000a900473ffffffffffffffffffffffffffffffffffffffff1673ffffffffffffffffffffffffffffffffffffffff1614156105a5576040517f08c379a000000000000000000000000000000000000000000000000000000000815260040161059c90611748565b60405180910390fd5b60036008015483836040516020016105be929190611667565b6040516020818303038152906040528051906020012014610614576040517f08c379a000000000000000000000000000000000000000000000000000000000815260040161060b90611808565b60405180910390fd5b6001600360090160006101000a81548160ff021916908315150217905550600360050160009054906101000a900473ffffffffffffffffffffffffffffffffffffffff1673ffffffffffffffffffffffffffffffffffffffff166108fc6003600001549081150290604051600060405180830381858888f193505050501580156106a2573d6000803e3d6000fd5b50600360070160009054906101000a900473ffffffffffffffffffffffffffffffffffffffff1673ffffffffffffffffffffffffffffffffffffffff166108fc6003600101546003600001546106f8919061196d565b9081150290604051600060405180830381858888f19350505050158015610723573d6000803e3d6000fd5b506001905092915050565b60008282604051602001610743929190611667565b60405160208183030381529060405280519060200120905092915050565b606080600060028054905067ffffffffffffffff8111156107ab577f4e487b7100000000000000000000000000000000000000000000000000000000600052604160045260246000fd5b6040519080825280602002602001820160405280156107d95781602001602082028036833780820191505090505b50905060005b6002805490508110156108f157600060028281548110610828577f4e487b7100000000000000000000000000000000000000000000000000000000600052603260045260246000fd5b9060005260206000200160009054906101000a900473ffffffffffffffffffffffffffffffffffffffff169050600160008273ffffffffffffffffffffffffffffffffffffffff1673ffffffffffffffffffffffffffffffffffffffff168152602001908152602001600020600001548383815181106108d1577f4e487b7100000000000000000000000000000000000000000000000000000000600052603260045260246000fd5b6020026020010181815250505080806108e990611a90565b9150506107df565b506002818180548060200260200160405190810160405280929190818152602001828054801561097657602002820191906000526020600020905b8160009054906101000a900473ffffffffffffffffffffffffffffffffffffffff1673ffffffffffffffffffffffffffffffffffffffff168152602001906001019080831161092c575b5050505050915092509250509091565b600360050160009054906101000a900473ffffffffffffffffffffffffffffffffffffffff1673ffffffffffffffffffffffffffffffffffffffff163373ffffffffffffffffffffffffffffffffffffffff1614610a19576040517f08c379a0000000000000000000000000000000000000000000000000000000008152600401610a1090611768565b60405180910390fd5b600160008273ffffffffffffffffffffffffffffffffffffffff1673ffffffffffffffffffffffffffffffffffffffff168152602001908152602001600020600001543414610a9d576040517f08c379a0000000000000000000000000000000000000000000000000000000008152600401610a9490611708565b60405180910390fd5b6000600160008373ffffffffffffffffffffffffffffffffffffffff1673ffffffffffffffffffffffffffffffffffffffff168152602001908152602001600020600001541415610b23576040517f08c379a0000000000000000000000000000000000000000000000000000000008152600401610b1a906117a8565b60405180910390fd5b3460036001018190555080600360070160006101000a81548173ffffffffffffffffffffffffffffffffffffffff021916908373ffffffffffffffffffffffffffffffffffffffff16021790555060005b600280549050811015610c7e57600060028281548110610bbd577f4e487b7100000000000000000000000000000000000000000000000000000000600052603260045260246000fd5b9060005260206000200160009054906101000a900473ffffffffffffffffffffffffffffffffffffffff1690508273ffffffffffffffffffffffffffffffffffffffff168173ffffffffffffffffffffffffffffffffffffffff1614610c6a578073ffffffffffffffffffffffffffffffffffffffff166108fc6003600001549081150290604051600060405180830381858888f19350505050158015610c68573d6000803e3d6000fd5b505b508080610c7690611a90565b915050610b74565b5050565b600360050160009054906101000a900473ffffffffffffffffffffffffffffffffffffffff1673ffffffffffffffffffffffffffffffffffffffff163373ffffffffffffffffffffffffffffffffffffffff1614610d15576040517f08c379a0000000000000000000000000000000000000000000000000000000008152600401610d0c90611768565b60405180910390fd5b8181604051602001610d28929190611667565b604051602081830303815290604052805190602001206003600801819055505050565b6003600001543414610d92576040517f08c379a0000000000000000000000000000000000000000000000000000000008152600401610d8990611788565b60405180910390fd5b6000600160003373ffffffffffffffffffffffffffffffffffffffff1673ffffffffffffffffffffffffffffffffffffffff1681526020019081526020016000206000015414610e17576040517f08c379a0000000000000000000000000000000000000000000000000000000008152600401610e0e906117c8565b60405180910390fd5b6000670de0b6b3a764000082610e2d91906119c3565b9050604051806020016040528082815250600160003373ffffffffffffffffffffffffffffffffffffffff1673ffffffffffffffffffffffffffffffffffffffff168152602001908152602001600020600082015181600001559050506002339080600181540180825580915050600190039060005260206000200160009091909190916101000a81548173ffffffffffffffffffffffffffffffffffffffff021916908373ffffffffffffffffffffffffffffffffffffffff160217905550600080815480929190610eff90611a90565b91905055505050565b60016020528060005260406000206000915090508060000154905081565b60038060000154908060010154908060020154908060030154908060040160009054906101000a900473ffffffffffffffffffffffffffffffffffffffff16908060050160009054906101000a900473ffffffffffffffffffffffffffffffffffffffff16908060060160009054906101000a900473ffffffffffffffffffffffffffffffffffffffff16908060070160009054906101000a900473ffffffffffffffffffffffffffffffffffffffff16908060080154908060090160009054906101000a900460ff1690508a565b6002818154811061100557600080fd5b906000526020600020016000915054906101000a900473ffffffffffffffffffffffffffffffffffffffff1681565b60008135905061104381611b08565b92915050565b60008135905061105881611b1f565b92915050565b60008083601f84011261107057600080fd5b8235905067ffffffffffffffff81111561108957600080fd5b6020830191508360018202830111156110a157600080fd5b9250929050565b6000813590506110b781611b36565b92915050565b6000602082840312156110cf57600080fd5b60006110dd84828501611034565b91505092915050565b6000602082840312156110f857600080fd5b600061110684828501611049565b91505092915050565b6000806020838503121561112257600080fd5b600083013567ffffffffffffffff81111561113c57600080fd5b6111488582860161105e565b92509250509250929050565b60006020828403121561116657600080fd5b6000611174848285016110a8565b91505092915050565b600061118983836111bc565b60208301905092915050565b60006111a18383611649565b60208301905092915050565b6111b681611a2f565b82525050565b6111c581611a1d565b82525050565b6111d481611a1d565b82525050565b60006111e5826118ff565b6111ef818561192f565b93506111fa836118df565b8060005b8381101561122b578151611212888261117d565b975061121d83611915565b9250506001810190506111fe565b5085935050505092915050565b60006112438261190a565b61124d8185611940565b9350611258836118ef565b8060005b838110156112895781516112708882611195565b975061127b83611922565b92505060018101905061125c565b5085935050505092915050565b61129f81611a41565b82525050565b6112ae81611a4d565b82525050565b60006112c08385611962565b93506112cd838584611a81565b82840190509392505050565b60006112e6602483611951565b91507f53656c6c6572206e6565647320746f206465706f7369742064656c697665727960008301527f20666565000000000000000000000000000000000000000000000000000000006020830152604082019050919050565b600061134c602583611951565b91507f4f6e6c79207468652062757965722063616e2063616c6c20746869732066756e60008301527f6374696f6e0000000000000000000000000000000000000000000000000000006020830152604082019050919050565b60006113b2602883611951565b91507f5472616e73706f72746572206e656564656420746f2063616c6c20746869732060008301527f66756e6374696f6e0000000000000000000000000000000000000000000000006020830152604082019050919050565b6000611418602683611951565b91507f4f6e6c79207468652073656c6c65722063616e2063616c6c207468697320667560008301527f6e6374696f6e00000000000000000000000000000000000000000000000000006020830152604082019050919050565b600061147e602b83611951565b91507f5472616e73706f727465722068617320746f206465706f73697420736563757260008301527f697479206465706f7369740000000000000000000000000000000000000000006020830152604082019050919050565b60006114e4602d83611951565b91507f5472616e73706f727465722061646472657373206e6f7420666f756e6420696e60008301527f207472616e73706f7274657273000000000000000000000000000000000000006020830152604082019050919050565b600061154a601a83611951565b91507f5472616e73706f7274657220616c7265616479206578697374730000000000006000830152602082019050919050565b600061158a604583611951565b91507f46756e64732063616e206f6e6c792062652077697468647261776e206279207460008301527f68652073656c6c65722061667465722064656c697665727920636f6e6669726d60208301527f6174696f6e0000000000000000000000000000000000000000000000000000006040830152606082019050919050565b6000611616601f83611951565b91507f566572696669636174696f6e20636f646520646964206e6f74206d61746368006000830152602082019050919050565b61165281611a77565b82525050565b61166181611a77565b82525050565b60006116748284866112b4565b91508190509392505050565b600060208201905061169560008301846111cb565b92915050565b600060408201905081810360008301526116b581856111da565b905081810360208301526116c98184611238565b90509392505050565b60006020820190506116e76000830184611296565b92915050565b600060208201905061170260008301846112a5565b92915050565b60006020820190508181036000830152611721816112d9565b9050919050565b600060208201905081810360008301526117418161133f565b9050919050565b60006020820190508181036000830152611761816113a5565b9050919050565b600060208201905081810360008301526117818161140b565b9050919050565b600060208201905081810360008301526117a181611471565b9050919050565b600060208201905081810360008301526117c1816114d7565b9050919050565b600060208201905081810360008301526117e18161153d565b9050919050565b600060208201905081810360008301526118018161157d565b9050919050565b6000602082019050818103600083015261182181611609565b9050919050565b600060208201905061183d6000830184611658565b92915050565b600061014082019050611859600083018d611658565b611866602083018c611658565b611873604083018b611658565b611880606083018a611658565b61188d60808301896111ad565b61189a60a08301886111ad565b6118a760c08301876111cb565b6118b460e08301866111ad565b6118c26101008301856112a5565b6118d0610120830184611296565b9b9a5050505050505050505050565b6000819050602082019050919050565b6000819050602082019050919050565b600081519050919050565b600081519050919050565b6000602082019050919050565b6000602082019050919050565b600082825260208201905092915050565b600082825260208201905092915050565b600082825260208201905092915050565b600081905092915050565b600061197882611a77565b915061198383611a77565b9250827fffffffffffffffffffffffffffffffffffffffffffffffffffffffffffffffff038211156119b8576119b7611ad9565b5b828201905092915050565b60006119ce82611a77565b91506119d983611a77565b9250817fffffffffffffffffffffffffffffffffffffffffffffffffffffffffffffffff0483118215151615611a1257611a11611ad9565b5b828202905092915050565b6000611a2882611a57565b9050919050565b6000611a3a82611a57565b9050919050565b60008115159050919050565b6000819050919050565b600073ffffffffffffffffffffffffffffffffffffffff82169050919050565b6000819050919050565b82818337600083830152505050565b6000611a9b82611a77565b91507fffffffffffffffffffffffffffffffffffffffffffffffffffffffffffffffff821415611ace57611acd611ad9565b5b600182019050919050565b7f4e487b7100000000000000000000000000000000000000000000000000000000600052601160045260246000fd5b611b1181611a1d565b8114611b1c57600080fd5b50565b611b2881611a2f565b8114611b3357600080fd5b50565b611b3f81611a77565b8114611b4a57600080fd5b5056fea2646970667358221220829abf8c6c460968c75e5e6940e81fc96fa8077321c2ae4f4e01dff302bb1f9e64736f6c63430008000033",
  "immutableReferences": {},
  "source": "// SPDX-License-Identifier: MIT\npragma solidity ^0.8.0;\n\ncontract Escrow {\n    struct EscrowDetails {\n        uint amount;\n        uint deliveryFee;\n        uint securityDeposit;\n        uint expiryTimeStamp;\n        address payable buyer;\n        address payable seller;\n        address agent;\n        address payable transporter;\n        bytes32 verificationCodeHash;\n        bool delivered;\n    }\n\n    uint public transporterCount;\n\n    struct TransporterFees {\n        uint fee;\n    }\n\n    mapping(address => TransporterFees) public transporters; // Mapping with transporter address as key\n    address[] public transporterAddresses; // Array to store transporter addresses\n\n    EscrowDetails public escrow;\n\n    modifier onlyBuyer() {\n        require(msg.sender == escrow.buyer, \"Only the buyer can call this function\");\n        _; // Continue executing the function after the modifier's checks pass\n    }\n\n    modifier onlySeller() {\n        require(msg.sender == escrow.seller, \"Only the seller can call this function\");\n        _; // Continue executing the function after the modifier's checks pass\n    }\n\n    modifier transporterSet() {\n        require(escrow.transporter != address(0), \"Transporter needed to call this function\");\n        _;\n    }\n\n    constructor(\n        address payable _seller,\n        address _agent,\n        uint256 secondsTillExpiry\n    //item Id to sell multiple things\n    ) payable {\n        escrow = EscrowDetails({\n            amount: msg.value,\n            deliveryFee: 0, // Initialize to default value\n            securityDeposit: 0, // Initialize to default value\n            expiryTimeStamp: block.timestamp + secondsTillExpiry,\n            buyer: payable(msg.sender),\n            seller: payable(_seller),\n            agent: _agent,\n            transporter: payable(address(0)), // Initialize transporter to zero address\n            verificationCodeHash: keccak256(abi.encodePacked(\"\")), // verification code is set to empty string by default\n            delivered: false\n        });\n    }\n\n    function withdrawAmount() external payable onlySeller transporterSet returns (bool) {\n        require(\n            escrow.delivered == true,\n            \"Funds can only be withdrawn by the seller after delivery confirmation\"\n        );\n        payable(msg.sender).transfer(escrow.amount);\n        return true;\n    }\n\n    function setVerificationCode(string calldata verificationCode) external onlySeller {\n        escrow.verificationCodeHash = keccak256(abi.encodePacked(verificationCode));\n    }\n\n    function delivered(string calldata verificationCode) external onlyBuyer transporterSet returns (bool) {\n        require(\n            keccak256(abi.encodePacked(verificationCode)) == escrow.verificationCodeHash,\n            \"Verification code did not match\"\n        );\n        escrow.delivered = true;\n        payable(escrow.seller).transfer(escrow.amount);\n        payable(escrow.transporter).transfer(escrow.amount+escrow.deliveryFee);\n        return true;\n    }\n\n    function hashTester(string calldata verificationCode) pure external returns (bytes32) {\n        return keccak256(abi.encodePacked(verificationCode));\n    }\n\n    function setTransporter(address payable _transporter) external payable onlySeller {\n        require(msg.value == transporters[_transporter].fee, \"Seller needs to deposit delivery fee\");\n        require(transporters[_transporter].fee != 0, \"Transporter address not found in transporters\");\n\n        escrow.deliveryFee = msg.value;\n        escrow.transporter = _transporter;\n        // Refund all other transporters\n        for (uint i = 0; i < transporterAddresses.length; i++) {\n            address transporterAddress = transporterAddresses[i];\n            if (transporterAddress != _transporter) {\n                payable(transporterAddress).transfer(escrow.amount);\n            }\n        }\n    }\n\n    function createTransporter(uint _feeInEther) public payable {\n        require(msg.value == escrow.amount, \"Transporter has to deposit security deposit\");\n        require(transporters[msg.sender].fee == 0, \"Transporter already exists\");\n\n        // Convert fee from ether to wei\n        uint _feeInWei = _feeInEther * 1 ether;\n\n        transporters[msg.sender] = TransporterFees({\n            fee: _feeInWei\n        });\n        transporterAddresses.push(msg.sender);\n        transporterCount++;\n    }\n\n    function getAllTransporters() public view returns (address[] memory, uint[] memory) {\n        uint[] memory fees = new uint[](transporterAddresses.length);\n        for (uint i = 0; i < transporterAddresses.length; i++) {\n            address transporterAddress = transporterAddresses[i];\n            fees[i] = transporters[transporterAddress].fee;\n        }\n        return (transporterAddresses, fees);\n    }\n\n}\n\n//event to send verification code to buyer or VCs as verification code\n\n//cancelation from buyer",
  "sourcePath": "/Users/elias.safo/Desktop/BA/DecentralizedMarket2.0/decentralized-marketplace/contracts/Escrow.sol",
  "compiler": {
    "name": "solc",
    "version": "0.8.0+commit.c7dfd78e.Emscripten.clang"
  },
  "schemaVersion": "3.4.16",
  "updatedAt": "2024-08-25T16:21:40.781Z",
  "devdoc": {
    "kind": "dev",
    "methods": {},
    "version": 1
  },
  "userdoc": {
    "kind": "user",
    "methods": {},
    "version": 1
  }
}