{
  "contractName": "ProductFactory",
  "abi": [
    {
      "anonymous": false,
      "inputs": [
        {
          "indexed": false,
          "internalType": "address",
          "name": "productAddress",
          "type": "address"
        },
        {
          "indexed": false,
          "internalType": "string",
          "name": "name",
          "type": "string"
        },
        {
          "indexed": false,
          "internalType": "uint256",
          "name": "price",
          "type": "uint256"
        },
        {
          "indexed": false,
          "internalType": "address",
          "name": "owner",
          "type": "address"
        }
      ],
      "name": "ProductCreated",
      "type": "event"
    },
    {
      "inputs": [
        {
          "internalType": "uint256",
          "name": "",
          "type": "uint256"
        }
      ],
      "name": "products",
      "outputs": [
        {
          "internalType": "contract ProductEscrow",
          "name": "",
          "type": "address"
        }
      ],
      "stateMutability": "view",
      "type": "function",
      "constant": true
    },
    {
      "inputs": [
        {
          "internalType": "string",
          "name": "_name",
          "type": "string"
        },
        {
          "internalType": "uint256",
          "name": "_price",
          "type": "uint256"
        }
      ],
      "name": "createProduct",
      "outputs": [],
      "stateMutability": "nonpayable",
      "type": "function"
    },
    {
      "inputs": [],
      "name": "getProducts",
      "outputs": [
        {
          "internalType": "contract ProductEscrow[]",
          "name": "",
          "type": "address[]"
        }
      ],
      "stateMutability": "view",
      "type": "function",
      "constant": true
    }
  ],
  "bytecode": "0x608060405234801561001057600080fd5b50611564806100206000396000f3fe60806040523480156200001157600080fd5b5060043610620000465760003560e01c80637acc0b20146200004b578063c29b2f201462000081578063e9300c6c14620000a3575b600080fd5b620000696004803603810190620000639190620003f9565b620000c3565b60405162000078919062000650565b60405180910390f35b6200008b62000103565b6040516200009a91906200062c565b60405180910390f35b620000c16004803603810190620000bb91906200039f565b62000193565b005b60008181548110620000d457600080fd5b906000526020600020016000915054906101000a900473ffffffffffffffffffffffffffffffffffffffff1681565b606060008054806020026020016040519081016040528092919081815260200182805480156200018957602002820191906000526020600020905b8160009054906101000a900473ffffffffffffffffffffffffffffffffffffffff1673ffffffffffffffffffffffffffffffffffffffff16815260200190600101908083116200013e575b5050505050905090565b6000825111620001da576040517f08c379a0000000000000000000000000000000000000000000000000000000008152600401620001d190620006b1565b60405180910390fd5b6000811162000220576040517f08c379a00000000000000000000000000000000000000000000000000000000081526004016200021790620006d3565b60405180910390fd5b6000828233604051620002339062000308565b62000241939291906200066d565b604051809103906000f0801580156200025e573d6000803e3d6000fd5b5090506000819080600181540180825580915050600190039060005260206000200160009091909190916101000a81548173ffffffffffffffffffffffffffffffffffffffff021916908373ffffffffffffffffffffffffffffffffffffffff1602179055507f413566a1b4fcf331c4d565d4738119fa2a245671a20e2d8b71d5a219d7c8bbe281848433604051620002fb9493929190620005d8565b60405180910390a1505050565b610c7880620008b783390190565b60006200032d620003278462000729565b620006f5565b9050828152602081018484840111156200034657600080fd5b6200035384828562000817565b509392505050565b600082601f8301126200036d57600080fd5b81356200037f84826020860162000316565b91505092915050565b60008135905062000399816200089c565b92915050565b60008060408385031215620003b357600080fd5b600083013567ffffffffffffffff811115620003ce57600080fd5b620003dc858286016200035b565b9250506020620003ef8582860162000388565b9150509250929050565b6000602082840312156200040c57600080fd5b60006200041c8482850162000388565b91505092915050565b6000620004338383620004ba565b60208301905092915050565b6200044a81620007b1565b82525050565b60006200045d826200076c565b6200046981856200078f565b935062000476836200075c565b8060005b83811015620004ad57815162000491888262000425565b97506200049e8362000782565b9250506001810190506200047a565b5085935050505092915050565b620004c581620007ef565b82525050565b620004d681620007ef565b82525050565b6000620004e98262000777565b620004f58185620007a0565b93506200050781856020860162000826565b62000512816200088b565b840191505092915050565b60006200052c601c83620007a0565b91507f50726f64756374206e616d652063616e6e6f7420626520656d707479000000006000830152602082019050919050565b60006200056e602783620007a0565b91507f50726f64756374207072696365206d757374206265206772656174657220746860008301527f616e207a65726f000000000000000000000000000000000000000000000000006020830152604082019050919050565b620005d281620007e5565b82525050565b6000608082019050620005ef60008301876200043f565b8181036020830152620006038186620004dc565b9050620006146040830185620005c7565b6200062360608301846200043f565b95945050505050565b6000602082019050818103600083015262000648818462000450565b905092915050565b6000602082019050620006676000830184620004cb565b92915050565b60006060820190508181036000830152620006898186620004dc565b90506200069a6020830185620005c7565b620006a960408301846200043f565b949350505050565b60006020820190508181036000830152620006cc816200051d565b9050919050565b60006020820190508181036000830152620006ee816200055f565b9050919050565b6000604051905081810181811067ffffffffffffffff821117156200071f576200071e6200085c565b5b8060405250919050565b600067ffffffffffffffff8211156200074757620007466200085c565b5b601f19601f8301169050602081019050919050565b6000819050602082019050919050565b600081519050919050565b600081519050919050565b6000602082019050919050565b600082825260208201905092915050565b600082825260208201905092915050565b6000620007be82620007c5565b9050919050565b600073ffffffffffffffffffffffffffffffffffffffff82169050919050565b6000819050919050565b6000620007fc8262000803565b9050919050565b60006200081082620007c5565b9050919050565b82818337600083830152505050565b60005b838110156200084657808201518184015260208101905062000829565b8381111562000856576000848401525b50505050565b7f4e487b7100000000000000000000000000000000000000000000000000000000600052604160045260246000fd5b6000601f19601f8301169050919050565b620008a781620007e5565b8114620008b357600080fd5b5056fe60806040523480156200001157600080fd5b5060405162000c7838038062000c7883398181016040528101906200003791906200024e565b82600190805190602001906200004f929190620000fe565b508160028190555080600360006101000a81548173ffffffffffffffffffffffffffffffffffffffff021916908373ffffffffffffffffffffffffffffffffffffffff1602179055506000600360146101000a81548160ff0219169083151502179055506000600460006101000a81548173ffffffffffffffffffffffffffffffffffffffff021916908373ffffffffffffffffffffffffffffffffffffffff16021790555050505062000460565b8280546200010c9062000398565b90600052602060002090601f0160209004810192826200013057600085556200017c565b82601f106200014b57805160ff19168380011785556200017c565b828001600101855582156200017c579182015b828111156200017b5782518255916020019190600101906200015e565b5b5090506200018b91906200018f565b5090565b5b80821115620001aa57600081600090555060010162000190565b5090565b6000620001c5620001bf84620002f1565b620002bd565b905082815260208101848484011115620001de57600080fd5b620001eb84828562000362565b509392505050565b60008151905062000204816200042c565b92915050565b600082601f8301126200021c57600080fd5b81516200022e848260208601620001ae565b91505092915050565b600081519050620002488162000446565b92915050565b6000806000606084860312156200026457600080fd5b600084015167ffffffffffffffff8111156200027f57600080fd5b6200028d868287016200020a565b9350506020620002a08682870162000237565b9250506040620002b386828701620001f3565b9150509250925092565b6000604051905081810181811067ffffffffffffffff82111715620002e757620002e6620003fd565b5b8060405250919050565b600067ffffffffffffffff8211156200030f576200030e620003fd565b5b601f19601f8301169050602081019050919050565b6000620003318262000338565b9050919050565b600073ffffffffffffffffffffffffffffffffffffffff82169050919050565b6000819050919050565b60005b838110156200038257808201518184015260208101905062000365565b8381111562000392576000848401525b50505050565b60006002820490506001821680620003b157607f821691505b60208210811415620003c857620003c7620003ce565b5b50919050565b7f4e487b7100000000000000000000000000000000000000000000000000000000600052602260045260246000fd5b7f4e487b7100000000000000000000000000000000000000000000000000000000600052604160045260246000fd5b620004378162000324565b81146200044357600080fd5b50565b620004518162000358565b81146200045d57600080fd5b50565b61080880620004706000396000f3fe60806040526004361061007b5760003560e01c8063879f9c961161004e578063879f9c96146100f75780638da5cb5b14610122578063a035b1fe1461014d578063af640d0f146101785761007b565b806306fdde031461008057806325901b8a146100ab578063533a559b146100b55780637150d8ae146100cc575b600080fd5b34801561008c57600080fd5b506100956101a3565b6040516100a2919061061a565b60405180910390f35b6100b3610231565b005b3480156100c157600080fd5b506100ca61035f565b005b3480156100d857600080fd5b506100e161041b565b6040516100ee91906105bb565b60405180910390f35b34801561010357600080fd5b5061010c610441565b60405161011991906105ff565b60405180910390f35b34801561012e57600080fd5b50610137610454565b60405161014491906105bb565b60405180910390f35b34801561015957600080fd5b5061016261047a565b60405161016f919061069c565b60405180910390f35b34801561018457600080fd5b5061018d610480565b60405161019a919061069c565b60405180910390f35b600180546101b090610760565b80601f01602080910402602001604051908101604052809291908181526020018280546101dc90610760565b80156102295780601f106101fe57610100808354040283529160200191610229565b820191906000526020600020905b81548152906001019060200180831161020c57829003601f168201915b505050505081565b600360149054906101000a900460ff1615610281576040517f08c379a00000000000000000000000000000000000000000000000000000000081526004016102789061063c565b60405180910390fd5b6002543410156102c6576040517f08c379a00000000000000000000000000000000000000000000000000000000081526004016102bd9061067c565b60405180910390fd5b33600460006101000a81548173ffffffffffffffffffffffffffffffffffffffff021916908373ffffffffffffffffffffffffffffffffffffffff1602179055506001600360146101000a81548160ff0219169083151502179055507f621472621639c4a230476ed039dff3e99add1be6bca286f58ed565e08e781a5f336002546040516103559291906105d6565b60405180910390a1565b600360149054906101000a900460ff166103ae576040517f08c379a00000000000000000000000000000000000000000000000000000000081526004016103a59061065c565b60405180910390fd5b600360009054906101000a900473ffffffffffffffffffffffffffffffffffffffff1673ffffffffffffffffffffffffffffffffffffffff166108fc6002549081150290604051600060405180830381858888f19350505050158015610418573d6000803e3d6000fd5b50565b600460009054906101000a900473ffffffffffffffffffffffffffffffffffffffff1681565b600360149054906101000a900460ff1681565b600360009054906101000a900473ffffffffffffffffffffffffffffffffffffffff1681565b60025481565b60005481565b61048f816106e5565b82525050565b61049e816106d3565b82525050565b6104ad816106f7565b82525050565b60006104be826106b7565b6104c881856106c2565b93506104d881856020860161072d565b6104e1816107c1565b840191505092915050565b60006104f96019836106c2565b91507f50726f6475637420616c726561647920707572636861736564000000000000006000830152602082019050919050565b60006105396019836106c2565b91507f50726f64756374206e6f742079657420707572636861736564000000000000006000830152602082019050919050565b60006105796010836106c2565b91507f4e6f7420656e6f756768204574686572000000000000000000000000000000006000830152602082019050919050565b6105b581610723565b82525050565b60006020820190506105d06000830184610486565b92915050565b60006040820190506105eb6000830185610495565b6105f860208301846105ac565b9392505050565b600060208201905061061460008301846104a4565b92915050565b6000602082019050818103600083015261063481846104b3565b905092915050565b60006020820190508181036000830152610655816104ec565b9050919050565b600060208201905081810360008301526106758161052c565b9050919050565b600060208201905081810360008301526106958161056c565b9050919050565b60006020820190506106b160008301846105ac565b92915050565b600081519050919050565b600082825260208201905092915050565b60006106de82610703565b9050919050565b60006106f082610703565b9050919050565b60008115159050919050565b600073ffffffffffffffffffffffffffffffffffffffff82169050919050565b6000819050919050565b60005b8381101561074b578082015181840152602081019050610730565b8381111561075a576000848401525b50505050565b6000600282049050600182168061077857607f821691505b6020821081141561078c5761078b610792565b5b50919050565b7f4e487b7100000000000000000000000000000000000000000000000000000000600052602260045260246000fd5b6000601f19601f830116905091905056fea2646970667358221220b06659209d0eadd6bb47de010e80ed82404729c3074b59f7500515f4aed6fa2064736f6c63430008000033a2646970667358221220849011f912d31ecff6609b76415189a738c82bb22a0e0c91c742301e3fd046d364736f6c63430008000033",
  "immutableReferences": {},
  "source": "// SPDX-License-Identifier: MIT\npragma solidity ^0.8.0;\n\nimport \"./ProductEscrow.sol\";\n\ncontract ProductFactory {\n    ProductEscrow[] public products;\n\n    event ProductCreated(address productAddress, string name, uint price, address owner);\n\n    function createProduct(string memory _name, uint _price) public {\n        require(bytes(_name).length > 0, \"Product name cannot be empty\");\n        require(_price > 0, \"Product price must be greater than zero\");\n\n        ProductEscrow newProduct = new ProductEscrow(_name, _price, msg.sender);\n        products.push(newProduct);\n        emit ProductCreated(address(newProduct), _name, _price, msg.sender);\n    }\n\n    function getProducts() public view returns (ProductEscrow[] memory) {\n        return products;\n    }\n}\n",
  "sourcePath": "/Users/elias.safo/Desktop/BA/DecentralizedMarket2.0/decentralized-marketplace/contracts/ProductFactory.sol",
  "compiler": {
    "name": "solc",
    "version": "0.8.0+commit.c7dfd78e.Emscripten.clang"
  },
  "schemaVersion": "3.4.16",
  "updatedAt": "2024-07-15T12:41:23.754Z",
  "networkType": "ethereum",
  "devdoc": {
    "kind": "dev",
    "methods": {},
    "version": 1
  },
  "userdoc": {
    "kind": "user",
    "methods": {},
    "version": 1
  }
}