{
  "contractName": "ProductEscrow",
  "abi": [
    {
      "inputs": [
        {
          "internalType": "string",
          "name": "_name",
          "type": "string"
        },
        {
          "internalType": "uint256",
          "name": "_price",
          "type": "uint256"
        },
        {
          "internalType": "address",
          "name": "_owner",
          "type": "address"
        }
      ],
      "stateMutability": "nonpayable",
      "type": "constructor"
    },
    {
      "anonymous": false,
      "inputs": [
        {
          "indexed": true,
          "internalType": "address",
          "name": "seller",
          "type": "address"
        },
        {
          "indexed": true,
          "internalType": "address",
          "name": "transporter",
          "type": "address"
        },
        {
          "indexed": false,
          "internalType": "uint256",
          "name": "buyerRefund",
          "type": "uint256"
        }
      ],
      "name": "CancelDelivery",
      "type": "event"
    },
    {
      "anonymous": false,
      "inputs": [
        {
          "indexed": true,
          "internalType": "address",
          "name": "buyer",
          "type": "address"
        },
        {
          "indexed": true,
          "internalType": "address",
          "name": "transporter",
          "type": "address"
        },
        {
          "indexed": false,
          "internalType": "uint256",
          "name": "price",
          "type": "uint256"
        }
      ],
      "name": "DeliveryConfirmed",
      "type": "event"
    },
    {
      "anonymous": false,
      "inputs": [
        {
          "indexed": true,
          "internalType": "address",
          "name": "buyer",
          "type": "address"
        },
        {
          "indexed": true,
          "internalType": "uint256",
          "name": "price",
          "type": "uint256"
        },
        {
          "indexed": false,
          "internalType": "string",
          "name": "vcCID",
          "type": "string"
        }
      ],
      "name": "OrderConfirmed",
      "type": "event"
    },
    {
      "anonymous": false,
      "inputs": [
        {
          "indexed": false,
          "internalType": "address",
          "name": "transporter",
          "type": "address"
        },
        {
          "indexed": false,
          "internalType": "uint256",
          "name": "fee",
          "type": "uint256"
        }
      ],
      "name": "TransporterCreated",
      "type": "event"
    },
    {
      "anonymous": false,
      "inputs": [
        {
          "indexed": false,
          "internalType": "address",
          "name": "transporter",
          "type": "address"
        },
        {
          "indexed": false,
          "internalType": "uint256",
          "name": "price",
          "type": "uint256"
        }
      ],
      "name": "TransporterSecurityDeposit",
      "type": "event"
    },
    {
      "inputs": [],
      "name": "buyer",
      "outputs": [
        {
          "internalType": "address payable",
          "name": "",
          "type": "address"
        }
      ],
      "stateMutability": "view",
      "type": "function"
    },
    {
      "inputs": [],
      "name": "deliveryFee",
      "outputs": [
        {
          "internalType": "uint256",
          "name": "",
          "type": "uint256"
        }
      ],
      "stateMutability": "view",
      "type": "function"
    },
    {
      "inputs": [],
      "name": "id",
      "outputs": [
        {
          "internalType": "uint256",
          "name": "",
          "type": "uint256"
        }
      ],
      "stateMutability": "view",
      "type": "function"
    },
    {
      "inputs": [],
      "name": "name",
      "outputs": [
        {
          "internalType": "string",
          "name": "",
          "type": "string"
        }
      ],
      "stateMutability": "view",
      "type": "function"
    },
    {
      "inputs": [],
      "name": "owner",
      "outputs": [
        {
          "internalType": "address payable",
          "name": "",
          "type": "address"
        }
      ],
      "stateMutability": "view",
      "type": "function"
    },
    {
      "inputs": [],
      "name": "price",
      "outputs": [
        {
          "internalType": "uint256",
          "name": "",
          "type": "uint256"
        }
      ],
      "stateMutability": "view",
      "type": "function"
    },
    {
      "inputs": [],
      "name": "purchased",
      "outputs": [
        {
          "internalType": "bool",
          "name": "",
          "type": "bool"
        }
      ],
      "stateMutability": "view",
      "type": "function"
    },
    {
      "inputs": [],
      "name": "securityDepositAmount",
      "outputs": [
        {
          "internalType": "uint256",
          "name": "",
          "type": "uint256"
        }
      ],
      "stateMutability": "view",
      "type": "function"
    },
    {
      "inputs": [],
      "name": "transporter",
      "outputs": [
        {
          "internalType": "address payable",
          "name": "",
          "type": "address"
        }
      ],
      "stateMutability": "view",
      "type": "function"
    },
    {
      "inputs": [
        {
          "internalType": "uint256",
          "name": "",
          "type": "uint256"
        }
      ],
      "name": "transporterAddresses",
      "outputs": [
        {
          "internalType": "address",
          "name": "",
          "type": "address"
        }
      ],
      "stateMutability": "view",
      "type": "function"
    },
    {
      "inputs": [],
      "name": "transporterCount",
      "outputs": [
        {
          "internalType": "uint256",
          "name": "",
          "type": "uint256"
        }
      ],
      "stateMutability": "view",
      "type": "function"
    },
    {
      "inputs": [
        {
          "internalType": "address",
          "name": "",
          "type": "address"
        }
      ],
      "name": "transporters",
      "outputs": [
        {
          "internalType": "uint256",
          "name": "fee",
          "type": "uint256"
        }
      ],
      "stateMutability": "view",
      "type": "function"
    },
    {
      "inputs": [],
      "name": "confirmDelivery",
      "outputs": [],
      "stateMutability": "nonpayable",
      "type": "function"
    },
    {
      "inputs": [
        {
          "internalType": "string",
          "name": "vcCID",
          "type": "string"
        }
      ],
      "name": "confirmOrder",
      "outputs": [],
      "stateMutability": "nonpayable",
      "type": "function"
    },
    {
      "inputs": [],
      "name": "depositPurchase",
      "outputs": [],
      "stateMutability": "payable",
      "type": "function"
    },
    {
      "inputs": [],
      "name": "withdrawProductPrice",
      "outputs": [],
      "stateMutability": "nonpayable",
      "type": "function"
    },
    {
      "inputs": [],
      "name": "cancelDelivery",
      "outputs": [],
      "stateMutability": "nonpayable",
      "type": "function"
    },
    {
      "inputs": [
        {
          "internalType": "address payable",
          "name": "_transporter",
          "type": "address"
        }
      ],
      "name": "setTransporter",
      "outputs": [],
      "stateMutability": "payable",
      "type": "function"
    },
    {
      "inputs": [
        {
          "internalType": "uint256",
          "name": "_feeInEther",
          "type": "uint256"
        }
      ],
      "name": "createTransporter",
      "outputs": [],
      "stateMutability": "nonpayable",
      "type": "function"
    },
    {
      "inputs": [],
      "name": "securityDeposit",
      "outputs": [],
      "stateMutability": "payable",
      "type": "function"
    },
    {
      "inputs": [],
      "name": "getAllTransporters",
      "outputs": [
        {
          "internalType": "address[]",
          "name": "",
          "type": "address[]"
        },
        {
          "internalType": "uint256[]",
          "name": "",
          "type": "uint256[]"
        }
      ],
      "stateMutability": "view",
      "type": "function"
    }
  ],
  "bytecode": "0x60806040523480156200001157600080fd5b5060405162002b4938038062002b4983398181016040528101906200003791906200024e565b82600190805190602001906200004f929190620000fe565b508160028190555080600360006101000a81548173ffffffffffffffffffffffffffffffffffffffff021916908373ffffffffffffffffffffffffffffffffffffffff1602179055506000600360146101000a81548160ff0219169083151502179055506000600460006101000a81548173ffffffffffffffffffffffffffffffffffffffff021916908373ffffffffffffffffffffffffffffffffffffffff16021790555050505062000460565b8280546200010c9062000398565b90600052602060002090601f0160209004810192826200013057600085556200017c565b82601f106200014b57805160ff19168380011785556200017c565b828001600101855582156200017c579182015b828111156200017b5782518255916020019190600101906200015e565b5b5090506200018b91906200018f565b5090565b5b80821115620001aa57600081600090555060010162000190565b5090565b6000620001c5620001bf84620002f1565b620002bd565b905082815260208101848484011115620001de57600080fd5b620001eb84828562000362565b509392505050565b60008151905062000204816200042c565b92915050565b600082601f8301126200021c57600080fd5b81516200022e848260208601620001ae565b91505092915050565b600081519050620002488162000446565b92915050565b6000806000606084860312156200026457600080fd5b600084015167ffffffffffffffff8111156200027f57600080fd5b6200028d868287016200020a565b9350506020620002a08682870162000237565b9250506040620002b386828701620001f3565b9150509250925092565b6000604051905081810181811067ffffffffffffffff82111715620002e757620002e6620003fd565b5b8060405250919050565b600067ffffffffffffffff8211156200030f576200030e620003fd565b5b601f19601f8301169050602081019050919050565b6000620003318262000338565b9050919050565b600073ffffffffffffffffffffffffffffffffffffffff82169050919050565b6000819050919050565b60005b838110156200038257808201518184015260208101905062000365565b8381111562000392576000848401525b50505050565b60006002820490506001821680620003b157607f821691505b60208210811415620003c857620003c7620003ce565b5b50919050565b7f4e487b7100000000000000000000000000000000000000000000000000000000600052602260045260246000fd5b7f4e487b7100000000000000000000000000000000000000000000000000000000600052604160045260246000fd5b620004378162000324565b81146200044357600080fd5b50565b620004518162000358565b81146200045d57600080fd5b50565b6126d980620004706000396000f3fe60806040526004361061012a5760003560e01c8063879f9c96116100ab578063b5df610f1161006f578063b5df610f1461033a578063d8f133f914610351578063e25bd1581461037a578063e42b0212146103b7578063f3cc0f1f146103e2578063fa949a011461040d5761012a565b8063879f9c96146102725780638da5cb5b1461029d5780639c8dadae146102c8578063a035b1fe146102e4578063af640d0f1461030f5761012a565b8063533a559b116100f2578063533a559b146101c25780635e10177b146101d95780637150d8ae146101f057806377db57191461021b5780637df140e0146102475761012a565b806306fdde031461012f578063220e5ab31461015a57806325901b8a1461016457806329dac7c61461016e5780633ace041a14610199575b600080fd5b34801561013b57600080fd5b5061014461044a565b60405161015191906120ed565b60405180910390f35b6101626104d8565b005b61016c610693565b005b34801561017a57600080fd5b50610183610817565b604051610190919061228f565b60405180910390f35b3480156101a557600080fd5b506101c060048036038101906101bb9190611a49565b61081d565b005b3480156101ce57600080fd5b506101d7610923565b005b3480156101e557600080fd5b506101ee610bdc565b005b3480156101fc57600080fd5b50610205610ef1565b6040516102129190612057565b60405180910390f35b34801561022757600080fd5b50610230610f17565b60405161023e92919061209b565b60405180910390f35b34801561025357600080fd5b5061025c61113c565b604051610269919061228f565b60405180910390f35b34801561027e57600080fd5b50610287611142565b60405161029491906120d2565b60405180910390f35b3480156102a957600080fd5b506102b2611155565b6040516102bf9190612057565b60405180910390f35b6102e260048036038101906102dd9190611a20565b61117b565b005b3480156102f057600080fd5b506102f9611360565b604051610306919061228f565b60405180910390f35b34801561031b57600080fd5b50610324611366565b604051610331919061228f565b60405180910390f35b34801561034657600080fd5b5061034f61136c565b005b34801561035d57600080fd5b5061037860048036038101906103739190611a8a565b611717565b005b34801561038657600080fd5b506103a1600480360381019061039c91906119f7565b6118c7565b6040516103ae919061228f565b60405180910390f35b3480156103c357600080fd5b506103cc6118e5565b6040516103d99190612057565b60405180910390f35b3480156103ee57600080fd5b506103f761190b565b604051610404919061228f565b60405180910390f35b34801561041957600080fd5b50610434600480360381019061042f9190611a8a565b611911565b604051610441919061203c565b60405180910390f35b6001805461045790612516565b80601f016020809104026020016040519081016040528092919081815260200182805461048390612516565b80156104d05780601f106104a5576101008083540402835291602001916104d0565b820191906000526020600020905b8154815290600101906020018083116104b357829003601f168201915b505050505081565b600660009054906101000a900473ffffffffffffffffffffffffffffffffffffffff1673ffffffffffffffffffffffffffffffffffffffff163373ffffffffffffffffffffffffffffffffffffffff1614610568576040517f08c379a000000000000000000000000000000000000000000000000000000000815260040161055f9061220f565b60405180910390fd5b600073ffffffffffffffffffffffffffffffffffffffff16600660009054906101000a900473ffffffffffffffffffffffffffffffffffffffff1673ffffffffffffffffffffffffffffffffffffffff1614156105fa576040517f08c379a00000000000000000000000000000000000000000000000000000000081526004016105f19061214f565b60405180910390fd5b60025434101561063f576040517f08c379a00000000000000000000000000000000000000000000000000000000081526004016106369061216f565b60405180910390fd5b34600860008282546106519190612399565b925050819055507f201b13bd8ab1bff9ab4fe027b08267af060c2ac596f9c2408338ae9030f9ec993334604051610689929190612072565b60405180910390a1565b600360149054906101000a900460ff16156106e3576040517f08c379a00000000000000000000000000000000000000000000000000000000081526004016106da9061218f565b60405180910390fd5b600254341015610728576040517f08c379a000000000000000000000000000000000000000000000000000000000815260040161071f9061226f565b60405180910390fd5b600360009054906101000a900473ffffffffffffffffffffffffffffffffffffffff1673ffffffffffffffffffffffffffffffffffffffff163373ffffffffffffffffffffffffffffffffffffffff1614156107b9576040517f08c379a00000000000000000000000000000000000000000000000000000000081526004016107b0906121ef565b60405180910390fd5b33600460006101000a81548173ffffffffffffffffffffffffffffffffffffffff021916908373ffffffffffffffffffffffffffffffffffffffff1602179055506001600360146101000a81548160ff021916908315150217905550565b60055481565b600360009054906101000a900473ffffffffffffffffffffffffffffffffffffffff1673ffffffffffffffffffffffffffffffffffffffff163373ffffffffffffffffffffffffffffffffffffffff16146108ad576040517f08c379a00000000000000000000000000000000000000000000000000000000081526004016108a4906121af565b60405180910390fd5b600254600460009054906101000a900473ffffffffffffffffffffffffffffffffffffffff1673ffffffffffffffffffffffffffffffffffffffff167f4d555b09790773793494942fb558f3a083c7f96b2515533f7bf3283952c93ec48360405161091891906120ed565b60405180910390a350565b600460009054906101000a900473ffffffffffffffffffffffffffffffffffffffff1673ffffffffffffffffffffffffffffffffffffffff163373ffffffffffffffffffffffffffffffffffffffff16146109b3576040517f08c379a00000000000000000000000000000000000000000000000000000000081526004016109aa9061212f565b60405180910390fd5b600073ffffffffffffffffffffffffffffffffffffffff16600660009054906101000a900473ffffffffffffffffffffffffffffffffffffffff1673ffffffffffffffffffffffffffffffffffffffff161415610a45576040517f08c379a0000000000000000000000000000000000000000000000000000000008152600401610a3c9061214f565b60405180910390fd5b600360149054906101000a900460ff16610a94576040517f08c379a0000000000000000000000000000000000000000000000000000000008152600401610a8b9061224f565b60405180910390fd5b600360009054906101000a900473ffffffffffffffffffffffffffffffffffffffff1673ffffffffffffffffffffffffffffffffffffffff166108fc6002549081150290604051600060405180830381858888f19350505050158015610afe573d6000803e3d6000fd5b50600660009054906101000a900473ffffffffffffffffffffffffffffffffffffffff1673ffffffffffffffffffffffffffffffffffffffff166108fc600754600254610b4b9190612399565b9081150290604051600060405180830381858888f19350505050158015610b76573d6000803e3d6000fd5b50600460009054906101000a900473ffffffffffffffffffffffffffffffffffffffff16600360006101000a81548173ffffffffffffffffffffffffffffffffffffffff021916908373ffffffffffffffffffffffffffffffffffffffff160217905550565b600460009054906101000a900473ffffffffffffffffffffffffffffffffffffffff1673ffffffffffffffffffffffffffffffffffffffff163373ffffffffffffffffffffffffffffffffffffffff1614610c6c576040517f08c379a0000000000000000000000000000000000000000000000000000000008152600401610c639061212f565b60405180910390fd5b600073ffffffffffffffffffffffffffffffffffffffff16600660009054906101000a900473ffffffffffffffffffffffffffffffffffffffff1673ffffffffffffffffffffffffffffffffffffffff161415610cfe576040517f08c379a0000000000000000000000000000000000000000000000000000000008152600401610cf59061214f565b60405180910390fd5b600360009054906101000a900473ffffffffffffffffffffffffffffffffffffffff1673ffffffffffffffffffffffffffffffffffffffff166108fc6002549081150290604051600060405180830381858888f19350505050158015610d68573d6000803e3d6000fd5b50600660009054906101000a900473ffffffffffffffffffffffffffffffffffffffff1673ffffffffffffffffffffffffffffffffffffffff166108fc600754600854610db59190612399565b9081150290604051600060405180830381858888f19350505050158015610de0573d6000803e3d6000fd5b50600460009054906101000a900473ffffffffffffffffffffffffffffffffffffffff16600360006101000a81548173ffffffffffffffffffffffffffffffffffffffff021916908373ffffffffffffffffffffffffffffffffffffffff160217905550600660009054906101000a900473ffffffffffffffffffffffffffffffffffffffff1673ffffffffffffffffffffffffffffffffffffffff16600460009054906101000a900473ffffffffffffffffffffffffffffffffffffffff1673ffffffffffffffffffffffffffffffffffffffff167fdf462b659b1ef8bf3bb666339203dff5a51e2430e9caaf35984dcb2a92c77d66600254604051610ee7919061228f565b60405180910390a3565b600460009054906101000a900473ffffffffffffffffffffffffffffffffffffffff1681565b6060806000600a8054905067ffffffffffffffff811115610f61577f4e487b7100000000000000000000000000000000000000000000000000000000600052604160045260246000fd5b604051908082528060200260200182016040528015610f8f5781602001602082028036833780820191505090505b50905060005b600a805490508110156110a7576000600a8281548110610fde577f4e487b7100000000000000000000000000000000000000000000000000000000600052603260045260246000fd5b9060005260206000200160009054906101000a900473ffffffffffffffffffffffffffffffffffffffff169050600960008273ffffffffffffffffffffffffffffffffffffffff1673ffffffffffffffffffffffffffffffffffffffff16815260200190815260200160002060000154838381518110611087577f4e487b7100000000000000000000000000000000000000000000000000000000600052603260045260246000fd5b60200260200101818152505050808061109f90612548565b915050610f95565b50600a818180548060200260200160405190810160405280929190818152602001828054801561112c57602002820191906000526020600020905b8160009054906101000a900473ffffffffffffffffffffffffffffffffffffffff1673ffffffffffffffffffffffffffffffffffffffff16815260200190600101908083116110e2575b5050505050915092509250509091565b60085481565b600360149054906101000a900460ff1681565b600360009054906101000a900473ffffffffffffffffffffffffffffffffffffffff1681565b600360009054906101000a900473ffffffffffffffffffffffffffffffffffffffff1673ffffffffffffffffffffffffffffffffffffffff163373ffffffffffffffffffffffffffffffffffffffff161461120b576040517f08c379a0000000000000000000000000000000000000000000000000000000008152600401611202906121af565b60405180910390fd5b600960008273ffffffffffffffffffffffffffffffffffffffff1673ffffffffffffffffffffffffffffffffffffffff16815260200190815260200160002060000154341461128f576040517f08c379a00000000000000000000000000000000000000000000000000000000081526004016112869061210f565b60405180910390fd5b6000600960008373ffffffffffffffffffffffffffffffffffffffff1673ffffffffffffffffffffffffffffffffffffffff168152602001908152602001600020600001541415611315576040517f08c379a000000000000000000000000000000000000000000000000000000000815260040161130c906121cf565b60405180910390fd5b3460078190555080600660006101000a81548173ffffffffffffffffffffffffffffffffffffffff021916908373ffffffffffffffffffffffffffffffffffffffff16021790555050565b60025481565b60005481565b600360009054906101000a900473ffffffffffffffffffffffffffffffffffffffff1673ffffffffffffffffffffffffffffffffffffffff163373ffffffffffffffffffffffffffffffffffffffff16146113fc576040517f08c379a00000000000000000000000000000000000000000000000000000000081526004016113f3906121af565b60405180910390fd5b600073ffffffffffffffffffffffffffffffffffffffff16600660009054906101000a900473ffffffffffffffffffffffffffffffffffffffff1673ffffffffffffffffffffffffffffffffffffffff16141561148e576040517f08c379a00000000000000000000000000000000000000000000000000000000081526004016114859061214f565b60405180910390fd5b600360149054906101000a900460ff166114dd576040517f08c379a00000000000000000000000000000000000000000000000000000000081526004016114d49061224f565b60405180910390fd5b600660009054906101000a900473ffffffffffffffffffffffffffffffffffffffff1673ffffffffffffffffffffffffffffffffffffffff166108fc600254600754600a60025460026115309190612420565b61153a91906123ef565b6115449190612399565b61154e9190612399565b9081150290604051600060405180830381858888f19350505050158015611579573d6000803e3d6000fd5b50600360009054906101000a900473ffffffffffffffffffffffffffffffffffffffff1673ffffffffffffffffffffffffffffffffffffffff166108fc600a6002546115c591906123ef565b9081150290604051600060405180830381858888f193505050501580156115f0573d6000803e3d6000fd5b50600460009054906101000a900473ffffffffffffffffffffffffffffffffffffffff1673ffffffffffffffffffffffffffffffffffffffff166108fc600a600254600761163e9190612420565b61164891906123ef565b9081150290604051600060405180830381858888f19350505050158015611673573d6000803e3d6000fd5b50600660009054906101000a900473ffffffffffffffffffffffffffffffffffffffff1673ffffffffffffffffffffffffffffffffffffffff163373ffffffffffffffffffffffffffffffffffffffff167f08d1502fd01a62867241b61ec35d4ecbed54914c6ab56d5fe1b861dea75622f8600a60025460076116f69190612420565b61170091906123ef565b60405161170d919061228f565b60405180910390a3565b6000600960003373ffffffffffffffffffffffffffffffffffffffff1673ffffffffffffffffffffffffffffffffffffffff168152602001908152602001600020600001541461179c576040517f08c379a00000000000000000000000000000000000000000000000000000000081526004016117939061222f565b60405180910390fd5b6000670de0b6b3a7640000826117b29190612420565b9050604051806020016040528082815250600960003373ffffffffffffffffffffffffffffffffffffffff1673ffffffffffffffffffffffffffffffffffffffff16815260200190815260200160002060008201518160000155905050600a339080600181540180825580915050600190039060005260206000200160009091909190916101000a81548173ffffffffffffffffffffffffffffffffffffffff021916908373ffffffffffffffffffffffffffffffffffffffff1602179055506005600081548092919061188590612548565b91905055507f82cd66133dda5e11a8bcba54ad8282733b8517996ec937641ea79418fb14157433826040516118bb929190612072565b60405180910390a15050565b60096020528060005260406000206000915090508060000154905081565b600660009054906101000a900473ffffffffffffffffffffffffffffffffffffffff1681565b60075481565b600a818154811061192157600080fd5b906000526020600020016000915054906101000a900473ffffffffffffffffffffffffffffffffffffffff1681565b600061196361195e846122db565b6122aa565b90508281526020810184848401111561197b57600080fd5b6119868482856124d4565b509392505050565b60008135905061199d8161265e565b92915050565b6000813590506119b281612675565b92915050565b600082601f8301126119c957600080fd5b81356119d9848260208601611950565b91505092915050565b6000813590506119f18161268c565b92915050565b600060208284031215611a0957600080fd5b6000611a178482850161198e565b91505092915050565b600060208284031215611a3257600080fd5b6000611a40848285016119a3565b91505092915050565b600060208284031215611a5b57600080fd5b600082013567ffffffffffffffff811115611a7557600080fd5b611a81848285016119b8565b91505092915050565b600060208284031215611a9c57600080fd5b6000611aaa848285016119e2565b91505092915050565b6000611abf8383611af2565b60208301905092915050565b6000611ad7838361201e565b60208301905092915050565b611aec8161248c565b82525050565b611afb8161247a565b82525050565b611b0a8161247a565b82525050565b6000611b1b8261232b565b611b258185612366565b9350611b308361230b565b8060005b83811015611b61578151611b488882611ab3565b9750611b538361234c565b925050600181019050611b34565b5085935050505092915050565b6000611b7982612336565b611b838185612377565b9350611b8e8361231b565b8060005b83811015611bbf578151611ba68882611acb565b9750611bb183612359565b925050600181019050611b92565b5085935050505092915050565b611bd58161249e565b82525050565b6000611be682612341565b611bf08185612388565b9350611c008185602086016124e3565b611c098161264d565b840191505092915050565b6000611c21602483612388565b91507f53656c6c6572206e6565647320746f206465706f7369742064656c697665727960008301527f20666565000000000000000000000000000000000000000000000000000000006020830152604082019050919050565b6000611c87602583612388565b91507f4f6e6c79207468652062757965722063616e2063616c6c20746869732066756e60008301527f6374696f6e0000000000000000000000000000000000000000000000000000006020830152604082019050919050565b6000611ced602883612388565b91507f5472616e73706f72746572206e656564656420746f2063616c6c20746869732060008301527f66756e6374696f6e0000000000000000000000000000000000000000000000006020830152604082019050919050565b6000611d53603983612388565b91507f5472616e73706f72746572206e6565647320746f206465706f73697420616e2060008301527f616d6f756e7420657175616c20746f20746865207072696365000000000000006020830152604082019050919050565b6000611db9601983612388565b91507f50726f6475637420616c726561647920707572636861736564000000000000006000830152602082019050919050565b6000611df9602683612388565b91507f4f6e6c79207468652073656c6c65722063616e2063616c6c207468697320667560008301527f6e6374696f6e00000000000000000000000000000000000000000000000000006020830152604082019050919050565b6000611e5f602d83612388565b91507f5472616e73706f727465722061646472657373206e6f7420666f756e6420696e60008301527f207472616e73706f7274657273000000000000000000000000000000000000006020830152604082019050919050565b6000611ec5601683612388565b91507f43616e6e6f7420627579206f776e2070726f64756374000000000000000000006000830152602082019050919050565b6000611f05602b83612388565b91507f4f6e6c7920746865207472616e73706f727465722063616e2063616c6c20746860008301527f69732066756e6374696f6e0000000000000000000000000000000000000000006020830152604082019050919050565b6000611f6b601a83612388565b91507f5472616e73706f7274657220616c7265616479206578697374730000000000006000830152602082019050919050565b6000611fab601983612388565b91507f50726f64756374206e6f742079657420707572636861736564000000000000006000830152602082019050919050565b6000611feb601083612388565b91507f4e6f7420656e6f756768204574686572000000000000000000000000000000006000830152602082019050919050565b612027816124ca565b82525050565b612036816124ca565b82525050565b60006020820190506120516000830184611b01565b92915050565b600060208201905061206c6000830184611ae3565b92915050565b60006040820190506120876000830185611b01565b612094602083018461202d565b9392505050565b600060408201905081810360008301526120b58185611b10565b905081810360208301526120c98184611b6e565b90509392505050565b60006020820190506120e76000830184611bcc565b92915050565b600060208201905081810360008301526121078184611bdb565b905092915050565b6000602082019050818103600083015261212881611c14565b9050919050565b6000602082019050818103600083015261214881611c7a565b9050919050565b6000602082019050818103600083015261216881611ce0565b9050919050565b6000602082019050818103600083015261218881611d46565b9050919050565b600060208201905081810360008301526121a881611dac565b9050919050565b600060208201905081810360008301526121c881611dec565b9050919050565b600060208201905081810360008301526121e881611e52565b9050919050565b6000602082019050818103600083015261220881611eb8565b9050919050565b6000602082019050818103600083015261222881611ef8565b9050919050565b6000602082019050818103600083015261224881611f5e565b9050919050565b6000602082019050818103600083015261226881611f9e565b9050919050565b6000602082019050818103600083015261228881611fde565b9050919050565b60006020820190506122a4600083018461202d565b92915050565b6000604051905081810181811067ffffffffffffffff821117156122d1576122d061261e565b5b8060405250919050565b600067ffffffffffffffff8211156122f6576122f561261e565b5b601f19601f8301169050602081019050919050565b6000819050602082019050919050565b6000819050602082019050919050565b600081519050919050565b600081519050919050565b600081519050919050565b6000602082019050919050565b6000602082019050919050565b600082825260208201905092915050565b600082825260208201905092915050565b600082825260208201905092915050565b60006123a4826124ca565b91506123af836124ca565b9250827fffffffffffffffffffffffffffffffffffffffffffffffffffffffffffffffff038211156123e4576123e3612591565b5b828201905092915050565b60006123fa826124ca565b9150612405836124ca565b925082612415576124146125c0565b5b828204905092915050565b600061242b826124ca565b9150612436836124ca565b9250817fffffffffffffffffffffffffffffffffffffffffffffffffffffffffffffffff048311821515161561246f5761246e612591565b5b828202905092915050565b6000612485826124aa565b9050919050565b6000612497826124aa565b9050919050565b60008115159050919050565b600073ffffffffffffffffffffffffffffffffffffffff82169050919050565b6000819050919050565b82818337600083830152505050565b60005b838110156125015780820151818401526020810190506124e6565b83811115612510576000848401525b50505050565b6000600282049050600182168061252e57607f821691505b60208210811415612542576125416125ef565b5b50919050565b6000612553826124ca565b91507fffffffffffffffffffffffffffffffffffffffffffffffffffffffffffffffff82141561258657612585612591565b5b600182019050919050565b7f4e487b7100000000000000000000000000000000000000000000000000000000600052601160045260246000fd5b7f4e487b7100000000000000000000000000000000000000000000000000000000600052601260045260246000fd5b7f4e487b7100000000000000000000000000000000000000000000000000000000600052602260045260246000fd5b7f4e487b7100000000000000000000000000000000000000000000000000000000600052604160045260246000fd5b6000601f19601f8301169050919050565b6126678161247a565b811461267257600080fd5b50565b61267e8161248c565b811461268957600080fd5b50565b612695816124ca565b81146126a057600080fd5b5056fea264697066735822122093a563bbede20d134ae541c91123733076b02c4c15b56908b3a700ba66562afb64736f6c63430008000033",
  "immutableReferences": {},
  "source": "// SPDX-License-Identifier: MIT\npragma solidity ^0.8.0;\n\ncontract ProductEscrow {\n    uint public id;\n    string public name;\n    uint public price; // Price in wei\n    address payable public owner;\n    bool public purchased;\n    address payable public buyer;\n    uint public transporterCount;\n    address payable public transporter;\n    uint public deliveryFee;\n    uint public securityDepositAmount;\n\n    struct TransporterFees {\n        uint fee;\n    }\n\n    mapping(address => TransporterFees) public transporters;\n    address[] public transporterAddresses;\n\n    modifier onlyBuyer() {\n        require(msg.sender == buyer, \"Only the buyer can call this function\");\n        _;\n    }\n\n    modifier onlySeller() {\n        require(msg.sender == owner, \"Only the seller can call this function\");\n        _;\n    }\n\n    modifier transporterSet() {\n        require(transporter != address(0), \"Transporter needed to call this function\");\n        _;\n    }\n\n    modifier onlyTransporter(){\n        require(msg.sender == transporter, \"Only the transporter can call this function\");\n        _;\n    }\n\n    event OrderConfirmed(address indexed buyer, uint indexed price, string vcCID);\n    event TransporterCreated(address transporter, uint fee);\n    event TransporterSecurityDeposit(address transporter, uint price);\n    event DeliveryConfirmed(address indexed buyer, address indexed transporter, uint price);\n    event CancelDelivery(address indexed seller, address indexed transporter, uint buyerRefund);\n\n    constructor(string memory _name, uint _price, address _owner) {\n        name = _name;\n        price = _price;\n        owner = payable(_owner);\n        purchased = false;\n        buyer = payable(address(0));\n    }\n\n    function confirmDelivery() public onlyBuyer transporterSet {\n        owner.transfer(price);\n        transporter.transfer(securityDepositAmount + deliveryFee);\n        owner = buyer;\n        emit DeliveryConfirmed(buyer, transporter, price);\n    }\n\n    function confirmOrder(string memory vcCID) public onlySeller {\n        emit OrderConfirmed(buyer, price, vcCID);\n    }\n\n    function depositPurchase() public payable {\n        require(!purchased, \"Product already purchased\");\n        require(msg.value >= price, \"Not enough Ether\");\n        require(msg.sender != owner, \"Cannot buy own product\");\n\n        buyer = payable(msg.sender);\n        purchased = true;\n    }\n\n    function withdrawProductPrice() public onlyBuyer transporterSet {\n        require(purchased, \"Product not yet purchased\");\n        owner.transfer(price);\n        transporter.transfer(price + deliveryFee);\n        owner = buyer;\n    }\n\n    function cancelDelivery() public onlySeller transporterSet {\n        require(purchased, \"Product not yet purchased\");\n        transporter.transfer((2 * price) / 10 + deliveryFee + price); // Equivalent to 0.2 * price + deliveryFee + price\n        owner.transfer(price / 10); // Equivalent to 0.1 * price\n        buyer.transfer((7 * price) / 10); // Equivalent to 0.7 * price\n        emit CancelDelivery(msg.sender, transporter, (7 * price) / 10); // Emit the CancelDelivery event\n    }\n\n    function setTransporter(address payable _transporter) external payable onlySeller {\n        require(msg.value == transporters[_transporter].fee, \"Seller needs to deposit delivery fee\");\n        require(transporters[_transporter].fee != 0, \"Transporter address not found in transporters\");\n\n        deliveryFee = msg.value;\n        transporter = _transporter;\n    }\n\n    function createTransporter(uint _feeInEther) public {\n        require(transporters[msg.sender].fee == 0, \"Transporter already exists\");\n\n        uint _feeInWei = _feeInEther * 1 ether;\n\n        transporters[msg.sender] = TransporterFees({ fee: _feeInWei });\n        transporterAddresses.push(msg.sender);\n        transporterCount++;\n        emit TransporterCreated(msg.sender, _feeInWei);\n    }\n\n    function securityDeposit() public payable onlyTransporter transporterSet {\n        require(msg.value >= price, \"Transporter needs to deposit an amount equal to the price\");\n        securityDepositAmount += msg.value;\n        emit TransporterSecurityDeposit(msg.sender, msg.value);\n    }\n\n    function getAllTransporters() public view returns (address[] memory, uint[] memory) {\n        uint[] memory fees = new uint[](transporterAddresses.length);\n        for (uint i = 0; i < transporterAddresses.length; i++) {\n            address transporterAddress = transporterAddresses[i];\n            fees[i] = transporters[transporterAddress].fee;\n        }\n        return (transporterAddresses, fees);\n    }\n}\n",
  "sourcePath": "/Users/elias.safo/Desktop/BA/DecentralizedMarket2.0/decentralized-marketplace/contracts/ProductEscrow.sol",
  "compiler": {
    "name": "solc",
    "version": "0.8.0+commit.c7dfd78e.Emscripten.clang"
  },
  "schemaVersion": "3.4.16",
  "updatedAt": "2024-08-27T16:10:24.225Z",
  "devdoc": {
    "kind": "dev",
    "methods": {},
    "version": 1
  },
  "userdoc": {
    "kind": "user",
    "methods": {},
    "version": 1
  }
}