{
  "contractName": "ProductEscrow",
  "abi": [
    {
      "inputs": [
        {
          "internalType": "string",
          "name": "_name",
          "type": "string"
        },
        {
          "internalType": "uint256",
          "name": "_price",
          "type": "uint256"
        },
        {
          "internalType": "address",
          "name": "_owner",
          "type": "address"
        }
      ],
      "stateMutability": "nonpayable",
      "type": "constructor"
    },
    {
      "anonymous": false,
      "inputs": [
        {
          "indexed": true,
          "internalType": "address",
          "name": "seller",
          "type": "address"
        },
        {
          "indexed": true,
          "internalType": "address",
          "name": "transporter",
          "type": "address"
        },
        {
          "indexed": false,
          "internalType": "uint256",
          "name": "buyerRefund",
          "type": "uint256"
        }
      ],
      "name": "CancelDelivery",
      "type": "event"
    },
    {
      "anonymous": false,
      "inputs": [
        {
          "indexed": true,
          "internalType": "address",
          "name": "buyer",
          "type": "address"
        },
        {
          "indexed": true,
          "internalType": "address",
          "name": "transporter",
          "type": "address"
        },
        {
          "indexed": false,
          "internalType": "uint256",
          "name": "price",
          "type": "uint256"
        }
      ],
      "name": "DeliveryConfirmed",
      "type": "event"
    },
    {
      "anonymous": false,
      "inputs": [
        {
          "indexed": true,
          "internalType": "address",
          "name": "buyer",
          "type": "address"
        },
        {
          "indexed": true,
          "internalType": "uint256",
          "name": "price",
          "type": "uint256"
        },
        {
          "indexed": false,
          "internalType": "string",
          "name": "vcCID",
          "type": "string"
        }
      ],
      "name": "OrderConfirmed",
      "type": "event"
    },
    {
      "anonymous": false,
      "inputs": [
        {
          "indexed": false,
          "internalType": "uint256",
          "name": "productId",
          "type": "uint256"
        },
        {
          "indexed": false,
          "internalType": "string",
          "name": "productName",
          "type": "string"
        }
      ],
      "name": "ProductDeleted",
      "type": "event"
    },
    {
      "anonymous": false,
      "inputs": [
        {
          "indexed": false,
          "internalType": "address",
          "name": "transporter",
          "type": "address"
        },
        {
          "indexed": false,
          "internalType": "uint256",
          "name": "fee",
          "type": "uint256"
        }
      ],
      "name": "TransporterCreated",
      "type": "event"
    },
    {
      "anonymous": false,
      "inputs": [
        {
          "indexed": false,
          "internalType": "address",
          "name": "transporter",
          "type": "address"
        },
        {
          "indexed": false,
          "internalType": "uint256",
          "name": "price",
          "type": "uint256"
        }
      ],
      "name": "TransporterSecurityDeposit",
      "type": "event"
    },
    {
      "inputs": [],
      "name": "buyer",
      "outputs": [
        {
          "internalType": "address payable",
          "name": "",
          "type": "address"
        }
      ],
      "stateMutability": "view",
      "type": "function"
    },
    {
      "inputs": [],
      "name": "deliveryFee",
      "outputs": [
        {
          "internalType": "uint256",
          "name": "",
          "type": "uint256"
        }
      ],
      "stateMutability": "view",
      "type": "function"
    },
    {
      "inputs": [],
      "name": "id",
      "outputs": [
        {
          "internalType": "uint256",
          "name": "",
          "type": "uint256"
        }
      ],
      "stateMutability": "view",
      "type": "function"
    },
    {
      "inputs": [],
      "name": "name",
      "outputs": [
        {
          "internalType": "string",
          "name": "",
          "type": "string"
        }
      ],
      "stateMutability": "view",
      "type": "function"
    },
    {
      "inputs": [],
      "name": "owner",
      "outputs": [
        {
          "internalType": "address payable",
          "name": "",
          "type": "address"
        }
      ],
      "stateMutability": "view",
      "type": "function"
    },
    {
      "inputs": [],
      "name": "price",
      "outputs": [
        {
          "internalType": "uint256",
          "name": "",
          "type": "uint256"
        }
      ],
      "stateMutability": "view",
      "type": "function"
    },
    {
      "inputs": [],
      "name": "purchaseTimestamp",
      "outputs": [
        {
          "internalType": "uint256",
          "name": "",
          "type": "uint256"
        }
      ],
      "stateMutability": "view",
      "type": "function"
    },
    {
      "inputs": [],
      "name": "purchased",
      "outputs": [
        {
          "internalType": "bool",
          "name": "",
          "type": "bool"
        }
      ],
      "stateMutability": "view",
      "type": "function"
    },
    {
      "inputs": [],
      "name": "securityDepositAmount",
      "outputs": [
        {
          "internalType": "uint256",
          "name": "",
          "type": "uint256"
        }
      ],
      "stateMutability": "view",
      "type": "function"
    },
    {
      "inputs": [],
      "name": "transporter",
      "outputs": [
        {
          "internalType": "address payable",
          "name": "",
          "type": "address"
        }
      ],
      "stateMutability": "view",
      "type": "function"
    },
    {
      "inputs": [
        {
          "internalType": "uint256",
          "name": "",
          "type": "uint256"
        }
      ],
      "name": "transporterAddresses",
      "outputs": [
        {
          "internalType": "address",
          "name": "",
          "type": "address"
        }
      ],
      "stateMutability": "view",
      "type": "function"
    },
    {
      "inputs": [],
      "name": "transporterCount",
      "outputs": [
        {
          "internalType": "uint256",
          "name": "",
          "type": "uint256"
        }
      ],
      "stateMutability": "view",
      "type": "function"
    },
    {
      "inputs": [
        {
          "internalType": "address",
          "name": "",
          "type": "address"
        }
      ],
      "name": "transporters",
      "outputs": [
        {
          "internalType": "uint256",
          "name": "fee",
          "type": "uint256"
        }
      ],
      "stateMutability": "view",
      "type": "function"
    },
    {
      "inputs": [],
      "name": "confirmDelivery",
      "outputs": [],
      "stateMutability": "nonpayable",
      "type": "function"
    },
    {
      "inputs": [
        {
          "internalType": "string",
          "name": "vcCID",
          "type": "string"
        }
      ],
      "name": "confirmOrder",
      "outputs": [],
      "stateMutability": "nonpayable",
      "type": "function"
    },
    {
      "inputs": [],
      "name": "depositPurchase",
      "outputs": [],
      "stateMutability": "payable",
      "type": "function"
    },
    {
      "inputs": [],
      "name": "withdrawProductPrice",
      "outputs": [],
      "stateMutability": "nonpayable",
      "type": "function"
    },
    {
      "inputs": [],
      "name": "cancelDelivery",
      "outputs": [],
      "stateMutability": "nonpayable",
      "type": "function"
    },
    {
      "inputs": [
        {
          "internalType": "address payable",
          "name": "_transporter",
          "type": "address"
        }
      ],
      "name": "setTransporter",
      "outputs": [],
      "stateMutability": "payable",
      "type": "function"
    },
    {
      "inputs": [
        {
          "internalType": "uint256",
          "name": "_feeInEther",
          "type": "uint256"
        }
      ],
      "name": "createTransporter",
      "outputs": [],
      "stateMutability": "nonpayable",
      "type": "function"
    },
    {
      "inputs": [],
      "name": "securityDeposit",
      "outputs": [],
      "stateMutability": "payable",
      "type": "function"
    },
    {
      "inputs": [],
      "name": "getAllTransporters",
      "outputs": [
        {
          "internalType": "address[]",
          "name": "",
          "type": "address[]"
        },
        {
          "internalType": "uint256[]",
          "name": "",
          "type": "uint256[]"
        }
      ],
      "stateMutability": "view",
      "type": "function"
    },
    {
      "inputs": [],
      "name": "checkAndDeleteProduct",
      "outputs": [],
      "stateMutability": "nonpayable",
      "type": "function"
    }
  ],
  "bytecode": "0x60806040523480156200001157600080fd5b506040516200301c3803806200301c83398181016040528101906200003791906200024e565b82600190805190602001906200004f929190620000fe565b508160028190555080600360006101000a81548173ffffffffffffffffffffffffffffffffffffffff021916908373ffffffffffffffffffffffffffffffffffffffff1602179055506000600360146101000a81548160ff0219169083151502179055506000600460006101000a81548173ffffffffffffffffffffffffffffffffffffffff021916908373ffffffffffffffffffffffffffffffffffffffff16021790555050505062000460565b8280546200010c9062000398565b90600052602060002090601f0160209004810192826200013057600085556200017c565b82601f106200014b57805160ff19168380011785556200017c565b828001600101855582156200017c579182015b828111156200017b5782518255916020019190600101906200015e565b5b5090506200018b91906200018f565b5090565b5b80821115620001aa57600081600090555060010162000190565b5090565b6000620001c5620001bf84620002f1565b620002bd565b905082815260208101848484011115620001de57600080fd5b620001eb84828562000362565b509392505050565b60008151905062000204816200042c565b92915050565b600082601f8301126200021c57600080fd5b81516200022e848260208601620001ae565b91505092915050565b600081519050620002488162000446565b92915050565b6000806000606084860312156200026457600080fd5b600084015167ffffffffffffffff8111156200027f57600080fd5b6200028d868287016200020a565b9350506020620002a08682870162000237565b9250506040620002b386828701620001f3565b9150509250925092565b6000604051905081810181811067ffffffffffffffff82111715620002e757620002e6620003fd565b5b8060405250919050565b600067ffffffffffffffff8211156200030f576200030e620003fd565b5b601f19601f8301169050602081019050919050565b6000620003318262000338565b9050919050565b600073ffffffffffffffffffffffffffffffffffffffff82169050919050565b6000819050919050565b60005b838110156200038257808201518184015260208101905062000365565b8381111562000392576000848401525b50505050565b60006002820490506001821680620003b157607f821691505b60208210811415620003c857620003c7620003ce565b5b50919050565b7f4e487b7100000000000000000000000000000000000000000000000000000000600052602260045260246000fd5b7f4e487b7100000000000000000000000000000000000000000000000000000000600052604160045260246000fd5b620004378162000324565b81146200044357600080fd5b50565b620004518162000358565b81146200045d57600080fd5b50565b612bac80620004706000396000f3fe6080604052600436106101405760003560e01c80637df140e0116100b6578063b5df610f1161006f578063b5df610f14610392578063d8f133f9146103a9578063e25bd158146103d2578063e42b02121461040f578063f3cc0f1f1461043a578063fa949a011461046557610140565b80637df140e01461029f578063879f9c96146102ca5780638da5cb5b146102f55780639c8dadae14610320578063a035b1fe1461033c578063af640d0f1461036757610140565b80633ace041a116101085780633ace041a146101da5780633cf131e714610203578063533a559b1461021a5780635e10177b146102315780637150d8ae1461024857806377db57191461027357610140565b806306fdde0314610145578063220e5ab31461017057806325901b8a1461017a57806325d3d0e31461018457806329dac7c6146101af575b600080fd5b34801561015157600080fd5b5061015a6104a2565b604051610167919061253b565b60405180910390f35b610178610530565b005b6101826106eb565b005b34801561019057600080fd5b50610199610876565b6040516101a6919061271d565b60405180910390f35b3480156101bb57600080fd5b506101c461087c565b6040516101d1919061271d565b60405180910390f35b3480156101e657600080fd5b5061020160048036038101906101fc9190611d4b565b610882565b005b34801561020f57600080fd5b506102186109de565b005b34801561022657600080fd5b5061022f610ac6565b005b34801561023d57600080fd5b50610246610d7f565b005b34801561025457600080fd5b5061025d6110e7565b60405161026a91906124a5565b60405180910390f35b34801561027f57600080fd5b5061028861110d565b6040516102969291906124e9565b60405180910390f35b3480156102ab57600080fd5b506102b4611332565b6040516102c1919061271d565b60405180910390f35b3480156102d657600080fd5b506102df611338565b6040516102ec9190612520565b60405180910390f35b34801561030157600080fd5b5061030a61134b565b60405161031791906124a5565b60405180910390f35b61033a60048036038101906103359190611d22565b611371565b005b34801561034857600080fd5b50610351611556565b60405161035e919061271d565b60405180910390f35b34801561037357600080fd5b5061037c61155c565b604051610389919061271d565b60405180910390f35b34801561039e57600080fd5b506103a7611562565b005b3480156103b557600080fd5b506103d060048036038101906103cb9190611d8c565b61190d565b005b3480156103de57600080fd5b506103f960048036038101906103f49190611cf9565b611abd565b604051610406919061271d565b60405180910390f35b34801561041b57600080fd5b50610424611adb565b60405161043191906124a5565b60405180910390f35b34801561044657600080fd5b5061044f611b01565b60405161045c919061271d565b60405180910390f35b34801561047157600080fd5b5061048c60048036038101906104879190611d8c565b611b07565b604051610499919061248a565b60405180910390f35b600180546104af906129e9565b80601f01602080910402602001604051908101604052809291908181526020018280546104db906129e9565b80156105285780601f106104fd57610100808354040283529160200191610528565b820191906000526020600020905b81548152906001019060200180831161050b57829003601f168201915b505050505081565b600660009054906101000a900473ffffffffffffffffffffffffffffffffffffffff1673ffffffffffffffffffffffffffffffffffffffff163373ffffffffffffffffffffffffffffffffffffffff16146105c0576040517f08c379a00000000000000000000000000000000000000000000000000000000081526004016105b79061267d565b60405180910390fd5b600073ffffffffffffffffffffffffffffffffffffffff16600660009054906101000a900473ffffffffffffffffffffffffffffffffffffffff1673ffffffffffffffffffffffffffffffffffffffff161415610652576040517f08c379a0000000000000000000000000000000000000000000000000000000008152600401610649906125bd565b60405180910390fd5b600254341015610697576040517f08c379a000000000000000000000000000000000000000000000000000000000815260040161068e906125dd565b60405180910390fd5b34600860008282546106a9919061286c565b925050819055507f201b13bd8ab1bff9ab4fe027b08267af060c2ac596f9c2408338ae9030f9ec9933346040516106e19291906124c0565b60405180910390a1565b600360149054906101000a900460ff161561073b576040517f08c379a0000000000000000000000000000000000000000000000000000000008152600401610732906125fd565b60405180910390fd5b600254341015610780576040517f08c379a0000000000000000000000000000000000000000000000000000000008152600401610777906126dd565b60405180910390fd5b600360009054906101000a900473ffffffffffffffffffffffffffffffffffffffff1673ffffffffffffffffffffffffffffffffffffffff163373ffffffffffffffffffffffffffffffffffffffff161415610811576040517f08c379a00000000000000000000000000000000000000000000000000000000081526004016108089061265d565b60405180910390fd5b33600460006101000a81548173ffffffffffffffffffffffffffffffffffffffff021916908373ffffffffffffffffffffffffffffffffffffffff1602179055506001600360146101000a81548160ff02191690831515021790555042600981905550565b60095481565b60055481565b600360009054906101000a900473ffffffffffffffffffffffffffffffffffffffff1673ffffffffffffffffffffffffffffffffffffffff163373ffffffffffffffffffffffffffffffffffffffff1614610912576040517f08c379a00000000000000000000000000000000000000000000000000000000081526004016109099061261d565b60405180910390fd5b600360149054906101000a900460ff16610961576040517f08c379a0000000000000000000000000000000000000000000000000000000008152600401610958906126bd565b60405180910390fd5b42600981905550600254600460009054906101000a900473ffffffffffffffffffffffffffffffffffffffff1673ffffffffffffffffffffffffffffffffffffffff167f4d555b09790773793494942fb558f3a083c7f96b2515533f7bf3283952c93ec4836040516109d3919061253b565b60405180910390a350565b600360149054906101000a900460ff16610a2d576040517f08c379a0000000000000000000000000000000000000000000000000000000008152600401610a24906126bd565b60405180910390fd5b6202a300600954610a3e919061286c565b421015610a80576040517f08c379a0000000000000000000000000000000000000000000000000000000008152600401610a77906126fd565b60405180910390fd5b7ff05a5096d61e4686d4b77dc20985d768652606f536436749c7e215623853efe36000546001604051610ab4929190612738565b60405180910390a1610ac4611b46565b565b600460009054906101000a900473ffffffffffffffffffffffffffffffffffffffff1673ffffffffffffffffffffffffffffffffffffffff163373ffffffffffffffffffffffffffffffffffffffff1614610b56576040517f08c379a0000000000000000000000000000000000000000000000000000000008152600401610b4d9061257d565b60405180910390fd5b600073ffffffffffffffffffffffffffffffffffffffff16600660009054906101000a900473ffffffffffffffffffffffffffffffffffffffff1673ffffffffffffffffffffffffffffffffffffffff161415610be8576040517f08c379a0000000000000000000000000000000000000000000000000000000008152600401610bdf906125bd565b60405180910390fd5b600360149054906101000a900460ff16610c37576040517f08c379a0000000000000000000000000000000000000000000000000000000008152600401610c2e906126bd565b60405180910390fd5b600360009054906101000a900473ffffffffffffffffffffffffffffffffffffffff1673ffffffffffffffffffffffffffffffffffffffff166108fc6002549081150290604051600060405180830381858888f19350505050158015610ca1573d6000803e3d6000fd5b50600660009054906101000a900473ffffffffffffffffffffffffffffffffffffffff1673ffffffffffffffffffffffffffffffffffffffff166108fc600754600254610cee919061286c565b9081150290604051600060405180830381858888f19350505050158015610d19573d6000803e3d6000fd5b50600460009054906101000a900473ffffffffffffffffffffffffffffffffffffffff16600360006101000a81548173ffffffffffffffffffffffffffffffffffffffff021916908373ffffffffffffffffffffffffffffffffffffffff160217905550565b600460009054906101000a900473ffffffffffffffffffffffffffffffffffffffff1673ffffffffffffffffffffffffffffffffffffffff163373ffffffffffffffffffffffffffffffffffffffff1614610e0f576040517f08c379a0000000000000000000000000000000000000000000000000000000008152600401610e069061257d565b60405180910390fd5b600073ffffffffffffffffffffffffffffffffffffffff16600660009054906101000a900473ffffffffffffffffffffffffffffffffffffffff1673ffffffffffffffffffffffffffffffffffffffff161415610ea1576040517f08c379a0000000000000000000000000000000000000000000000000000000008152600401610e98906125bd565b60405180910390fd5b6202a300600954610eb2919061286c565b421115610ef4576040517f08c379a0000000000000000000000000000000000000000000000000000000008152600401610eeb9061259d565b60405180910390fd5b600360009054906101000a900473ffffffffffffffffffffffffffffffffffffffff1673ffffffffffffffffffffffffffffffffffffffff166108fc6002549081150290604051600060405180830381858888f19350505050158015610f5e573d6000803e3d6000fd5b50600660009054906101000a900473ffffffffffffffffffffffffffffffffffffffff1673ffffffffffffffffffffffffffffffffffffffff166108fc600754600854610fab919061286c565b9081150290604051600060405180830381858888f19350505050158015610fd6573d6000803e3d6000fd5b50600460009054906101000a900473ffffffffffffffffffffffffffffffffffffffff16600360006101000a81548173ffffffffffffffffffffffffffffffffffffffff021916908373ffffffffffffffffffffffffffffffffffffffff160217905550600660009054906101000a900473ffffffffffffffffffffffffffffffffffffffff1673ffffffffffffffffffffffffffffffffffffffff16600460009054906101000a900473ffffffffffffffffffffffffffffffffffffffff1673ffffffffffffffffffffffffffffffffffffffff167fdf462b659b1ef8bf3bb666339203dff5a51e2430e9caaf35984dcb2a92c77d666002546040516110dd919061271d565b60405180910390a3565b600460009054906101000a900473ffffffffffffffffffffffffffffffffffffffff1681565b6060806000600b8054905067ffffffffffffffff811115611157577f4e487b7100000000000000000000000000000000000000000000000000000000600052604160045260246000fd5b6040519080825280602002602001820160405280156111855781602001602082028036833780820191505090505b50905060005b600b8054905081101561129d576000600b82815481106111d4577f4e487b7100000000000000000000000000000000000000000000000000000000600052603260045260246000fd5b9060005260206000200160009054906101000a900473ffffffffffffffffffffffffffffffffffffffff169050600a60008273ffffffffffffffffffffffffffffffffffffffff1673ffffffffffffffffffffffffffffffffffffffff1681526020019081526020016000206000015483838151811061127d577f4e487b7100000000000000000000000000000000000000000000000000000000600052603260045260246000fd5b60200260200101818152505050808061129590612a1b565b91505061118b565b50600b818180548060200260200160405190810160405280929190818152602001828054801561132257602002820191906000526020600020905b8160009054906101000a900473ffffffffffffffffffffffffffffffffffffffff1673ffffffffffffffffffffffffffffffffffffffff16815260200190600101908083116112d8575b5050505050915092509250509091565b60085481565b600360149054906101000a900460ff1681565b600360009054906101000a900473ffffffffffffffffffffffffffffffffffffffff1681565b600360009054906101000a900473ffffffffffffffffffffffffffffffffffffffff1673ffffffffffffffffffffffffffffffffffffffff163373ffffffffffffffffffffffffffffffffffffffff1614611401576040517f08c379a00000000000000000000000000000000000000000000000000000000081526004016113f89061261d565b60405180910390fd5b600a60008273ffffffffffffffffffffffffffffffffffffffff1673ffffffffffffffffffffffffffffffffffffffff168152602001908152602001600020600001543414611485576040517f08c379a000000000000000000000000000000000000000000000000000000000815260040161147c9061255d565b60405180910390fd5b6000600a60008373ffffffffffffffffffffffffffffffffffffffff1673ffffffffffffffffffffffffffffffffffffffff16815260200190815260200160002060000154141561150b576040517f08c379a00000000000000000000000000000000000000000000000000000000081526004016115029061263d565b60405180910390fd5b3460078190555080600660006101000a81548173ffffffffffffffffffffffffffffffffffffffff021916908373ffffffffffffffffffffffffffffffffffffffff16021790555050565b60025481565b60005481565b600360009054906101000a900473ffffffffffffffffffffffffffffffffffffffff1673ffffffffffffffffffffffffffffffffffffffff163373ffffffffffffffffffffffffffffffffffffffff16146115f2576040517f08c379a00000000000000000000000000000000000000000000000000000000081526004016115e99061261d565b60405180910390fd5b600073ffffffffffffffffffffffffffffffffffffffff16600660009054906101000a900473ffffffffffffffffffffffffffffffffffffffff1673ffffffffffffffffffffffffffffffffffffffff161415611684576040517f08c379a000000000000000000000000000000000000000000000000000000000815260040161167b906125bd565b60405180910390fd5b600360149054906101000a900460ff166116d3576040517f08c379a00000000000000000000000000000000000000000000000000000000081526004016116ca906126bd565b60405180910390fd5b600660009054906101000a900473ffffffffffffffffffffffffffffffffffffffff1673ffffffffffffffffffffffffffffffffffffffff166108fc600254600754600a600254600261172691906128f3565b61173091906128c2565b61173a919061286c565b611744919061286c565b9081150290604051600060405180830381858888f1935050505015801561176f573d6000803e3d6000fd5b50600360009054906101000a900473ffffffffffffffffffffffffffffffffffffffff1673ffffffffffffffffffffffffffffffffffffffff166108fc600a6002546117bb91906128c2565b9081150290604051600060405180830381858888f193505050501580156117e6573d6000803e3d6000fd5b50600460009054906101000a900473ffffffffffffffffffffffffffffffffffffffff1673ffffffffffffffffffffffffffffffffffffffff166108fc600a600254600761183491906128f3565b61183e91906128c2565b9081150290604051600060405180830381858888f19350505050158015611869573d6000803e3d6000fd5b50600660009054906101000a900473ffffffffffffffffffffffffffffffffffffffff1673ffffffffffffffffffffffffffffffffffffffff163373ffffffffffffffffffffffffffffffffffffffff167f08d1502fd01a62867241b61ec35d4ecbed54914c6ab56d5fe1b861dea75622f8600a60025460076118ec91906128f3565b6118f691906128c2565b604051611903919061271d565b60405180910390a3565b6000600a60003373ffffffffffffffffffffffffffffffffffffffff1673ffffffffffffffffffffffffffffffffffffffff1681526020019081526020016000206000015414611992576040517f08c379a00000000000000000000000000000000000000000000000000000000081526004016119899061269d565b60405180910390fd5b6000670de0b6b3a7640000826119a891906128f3565b9050604051806020016040528082815250600a60003373ffffffffffffffffffffffffffffffffffffffff1673ffffffffffffffffffffffffffffffffffffffff16815260200190815260200160002060008201518160000155905050600b339080600181540180825580915050600190039060005260206000200160009091909190916101000a81548173ffffffffffffffffffffffffffffffffffffffff021916908373ffffffffffffffffffffffffffffffffffffffff16021790555060056000815480929190611a7b90612a1b565b91905055507f82cd66133dda5e11a8bcba54ad8282733b8517996ec937641ea79418fb1415743382604051611ab19291906124c0565b60405180910390a15050565b600a6020528060005260406000206000915090508060000154905081565b600660009054906101000a900473ffffffffffffffffffffffffffffffffffffffff1681565b60075481565b600b8181548110611b1757600080fd5b906000526020600020016000915054906101000a900473ffffffffffffffffffffffffffffffffffffffff1681565b60016000611b549190611bf5565b600260009055600360006101000a81549073ffffffffffffffffffffffffffffffffffffffff0219169055600360146101000a81549060ff0219169055600460006101000a81549073ffffffffffffffffffffffffffffffffffffffff0219169055600660006101000a81549073ffffffffffffffffffffffffffffffffffffffff0219169055600760009055600860009055600960009055600560009055565b508054611c01906129e9565b6000825580601f10611c135750611c32565b601f016020900490600052602060002090810190611c319190611c35565b5b50565b5b80821115611c4e576000816000905550600101611c36565b5090565b6000611c65611c6084612799565b612768565b905082815260208101848484011115611c7d57600080fd5b611c888482856129a7565b509392505050565b600081359050611c9f81612b31565b92915050565b600081359050611cb481612b48565b92915050565b600082601f830112611ccb57600080fd5b8135611cdb848260208601611c52565b91505092915050565b600081359050611cf381612b5f565b92915050565b600060208284031215611d0b57600080fd5b6000611d1984828501611c90565b91505092915050565b600060208284031215611d3457600080fd5b6000611d4284828501611ca5565b91505092915050565b600060208284031215611d5d57600080fd5b600082013567ffffffffffffffff811115611d7757600080fd5b611d8384828501611cba565b91505092915050565b600060208284031215611d9e57600080fd5b6000611dac84828501611ce4565b91505092915050565b6000611dc18383611df4565b60208301905092915050565b6000611dd9838361246c565b60208301905092915050565b611dee8161295f565b82525050565b611dfd8161294d565b82525050565b611e0c8161294d565b82525050565b6000611e1d826127fe565b611e278185612839565b9350611e32836127c9565b8060005b83811015611e63578151611e4a8882611db5565b9750611e558361281f565b925050600181019050611e36565b5085935050505092915050565b6000611e7b82612809565b611e85818561284a565b9350611e90836127d9565b8060005b83811015611ec1578151611ea88882611dcd565b9750611eb38361282c565b925050600181019050611e94565b5085935050505092915050565b611ed781612971565b82525050565b6000611ee882612814565b611ef2818561285b565b9350611f028185602086016129b6565b611f0b81612b20565b840191505092915050565b60008154611f23816129e9565b611f2d818661285b565b94506001821660008114611f485760018114611f5a57611f8d565b60ff1983168652602086019350611f8d565b611f63856127e9565b60005b83811015611f8557815481890152600182019150602081019050611f66565b808801955050505b50505092915050565b6000611fa360248361285b565b91507f53656c6c6572206e6565647320746f206465706f7369742064656c697665727960008301527f20666565000000000000000000000000000000000000000000000000000000006020830152604082019050919050565b600061200960258361285b565b91507f4f6e6c79207468652062757965722063616e2063616c6c20746869732066756e60008301527f6374696f6e0000000000000000000000000000000000000000000000000000006020830152604082019050919050565b600061206f60248361285b565b91507f44656c697665727920636f6e6669726d6174696f6e20706572696f642065787060008301527f69726564000000000000000000000000000000000000000000000000000000006020830152604082019050919050565b60006120d560288361285b565b91507f5472616e73706f72746572206e656564656420746f2063616c6c20746869732060008301527f66756e6374696f6e0000000000000000000000000000000000000000000000006020830152604082019050919050565b600061213b60398361285b565b91507f5472616e73706f72746572206e6565647320746f206465706f73697420616e2060008301527f616d6f756e7420657175616c20746f20746865207072696365000000000000006020830152604082019050919050565b60006121a160198361285b565b91507f50726f6475637420616c726561647920707572636861736564000000000000006000830152602082019050919050565b60006121e160268361285b565b91507f4f6e6c79207468652073656c6c65722063616e2063616c6c207468697320667560008301527f6e6374696f6e00000000000000000000000000000000000000000000000000006020830152604082019050919050565b6000612247602d8361285b565b91507f5472616e73706f727465722061646472657373206e6f7420666f756e6420696e60008301527f207472616e73706f7274657273000000000000000000000000000000000000006020830152604082019050919050565b60006122ad60168361285b565b91507f43616e6e6f7420627579206f776e2070726f64756374000000000000000000006000830152602082019050919050565b60006122ed602b8361285b565b91507f4f6e6c7920746865207472616e73706f727465722063616e2063616c6c20746860008301527f69732066756e6374696f6e0000000000000000000000000000000000000000006020830152604082019050919050565b6000612353601a8361285b565b91507f5472616e73706f7274657220616c7265616479206578697374730000000000006000830152602082019050919050565b600061239360198361285b565b91507f50726f64756374206e6f742079657420707572636861736564000000000000006000830152602082019050919050565b60006123d360108361285b565b91507f4e6f7420656e6f756768204574686572000000000000000000000000000000006000830152602082019050919050565b600061241360238361285b565b91507f50726f647563742064656c6574696f6e20706572696f64206e6f74207265616360008301527f68656400000000000000000000000000000000000000000000000000000000006020830152604082019050919050565b6124758161299d565b82525050565b6124848161299d565b82525050565b600060208201905061249f6000830184611e03565b92915050565b60006020820190506124ba6000830184611de5565b92915050565b60006040820190506124d56000830185611e03565b6124e2602083018461247b565b9392505050565b600060408201905081810360008301526125038185611e12565b905081810360208301526125178184611e70565b90509392505050565b60006020820190506125356000830184611ece565b92915050565b600060208201905081810360008301526125558184611edd565b905092915050565b6000602082019050818103600083015261257681611f96565b9050919050565b6000602082019050818103600083015261259681611ffc565b9050919050565b600060208201905081810360008301526125b681612062565b9050919050565b600060208201905081810360008301526125d6816120c8565b9050919050565b600060208201905081810360008301526125f68161212e565b9050919050565b6000602082019050818103600083015261261681612194565b9050919050565b60006020820190508181036000830152612636816121d4565b9050919050565b600060208201905081810360008301526126568161223a565b9050919050565b60006020820190508181036000830152612676816122a0565b9050919050565b60006020820190508181036000830152612696816122e0565b9050919050565b600060208201905081810360008301526126b681612346565b9050919050565b600060208201905081810360008301526126d681612386565b9050919050565b600060208201905081810360008301526126f6816123c6565b9050919050565b6000602082019050818103600083015261271681612406565b9050919050565b6000602082019050612732600083018461247b565b92915050565b600060408201905061274d600083018561247b565b818103602083015261275f8184611f16565b90509392505050565b6000604051905081810181811067ffffffffffffffff8211171561278f5761278e612af1565b5b8060405250919050565b600067ffffffffffffffff8211156127b4576127b3612af1565b5b601f19601f8301169050602081019050919050565b6000819050602082019050919050565b6000819050602082019050919050565b60008190508160005260206000209050919050565b600081519050919050565b600081519050919050565b600081519050919050565b6000602082019050919050565b6000602082019050919050565b600082825260208201905092915050565b600082825260208201905092915050565b600082825260208201905092915050565b60006128778261299d565b91506128828361299d565b9250827fffffffffffffffffffffffffffffffffffffffffffffffffffffffffffffffff038211156128b7576128b6612a64565b5b828201905092915050565b60006128cd8261299d565b91506128d88361299d565b9250826128e8576128e7612a93565b5b828204905092915050565b60006128fe8261299d565b91506129098361299d565b9250817fffffffffffffffffffffffffffffffffffffffffffffffffffffffffffffffff048311821515161561294257612941612a64565b5b828202905092915050565b60006129588261297d565b9050919050565b600061296a8261297d565b9050919050565b60008115159050919050565b600073ffffffffffffffffffffffffffffffffffffffff82169050919050565b6000819050919050565b82818337600083830152505050565b60005b838110156129d45780820151818401526020810190506129b9565b838111156129e3576000848401525b50505050565b60006002820490506001821680612a0157607f821691505b60208210811415612a1557612a14612ac2565b5b50919050565b6000612a268261299d565b91507fffffffffffffffffffffffffffffffffffffffffffffffffffffffffffffffff821415612a5957612a58612a64565b5b600182019050919050565b7f4e487b7100000000000000000000000000000000000000000000000000000000600052601160045260246000fd5b7f4e487b7100000000000000000000000000000000000000000000000000000000600052601260045260246000fd5b7f4e487b7100000000000000000000000000000000000000000000000000000000600052602260045260246000fd5b7f4e487b7100000000000000000000000000000000000000000000000000000000600052604160045260246000fd5b6000601f19601f8301169050919050565b612b3a8161294d565b8114612b4557600080fd5b50565b612b518161295f565b8114612b5c57600080fd5b50565b612b688161299d565b8114612b7357600080fd5b5056fea2646970667358221220d0f7181dc0c10c8c90ea7ac73a2d9cfc5cae06de1f51849f8f6406a83400b6cc64736f6c63430008000033",
  "immutableReferences": {},
  "source": "// SPDX-License-Identifier: MIT\npragma solidity ^0.8.0;\n\ncontract ProductEscrow {\n    uint public id;\n    string public name;\n    uint public price; // Price in wei\n    address payable public owner;\n    bool public purchased;\n    address payable public buyer;\n    uint public transporterCount;\n    address payable public transporter;\n    uint public deliveryFee;\n    uint public securityDepositAmount;\n    uint public purchaseTimestamp; // Timestamp when purchase is confirmed\n\n    struct TransporterFees {\n        uint fee;\n    }\n\n    mapping(address => TransporterFees) public transporters;\n    address[] public transporterAddresses;\n\n    modifier onlyBuyer() {\n        require(msg.sender == buyer, \"Only the buyer can call this function\");\n        _;\n    }\n\n    modifier onlySeller() {\n        require(msg.sender == owner, \"Only the seller can call this function\");\n        _;\n    }\n\n    modifier transporterSet() {\n        require(transporter != address(0), \"Transporter needed to call this function\");\n        _;\n    }\n\n    modifier onlyTransporter() {\n        require(msg.sender == transporter, \"Only the transporter can call this function\");\n        _;\n    }\n\n    event OrderConfirmed(address indexed buyer, uint indexed price, string vcCID);\n    event TransporterCreated(address transporter, uint fee);\n    event TransporterSecurityDeposit(address transporter, uint price);\n    event DeliveryConfirmed(address indexed buyer, address indexed transporter, uint price);\n    event CancelDelivery(address indexed seller, address indexed transporter, uint buyerRefund);\n    event ProductDeleted(uint productId, string productName);\n\n    constructor(string memory _name, uint _price, address _owner) {\n        name = _name;\n        price = _price;\n        owner = payable(_owner);\n        purchased = false;\n        buyer = payable(address(0));\n    }\n\n    function confirmDelivery() public onlyBuyer transporterSet {\n        require(block.timestamp <= purchaseTimestamp + 2 days, \"Delivery confirmation period expired\");\n        owner.transfer(price);\n        transporter.transfer(securityDepositAmount + deliveryFee);\n        owner = buyer;\n        emit DeliveryConfirmed(buyer, transporter, price);\n    }\n\n    function confirmOrder(string memory vcCID) public onlySeller {\n        require(purchased, \"Product not yet purchased\");\n        purchaseTimestamp = block.timestamp; // Extend the timer by resetting the timestamp\n        emit OrderConfirmed(buyer, price, vcCID);\n    }\n\n    function depositPurchase() public payable {\n        require(!purchased, \"Product already purchased\");\n        require(msg.value >= price, \"Not enough Ether\");\n        require(msg.sender != owner, \"Cannot buy own product\");\n\n        buyer = payable(msg.sender);\n        purchased = true;\n        purchaseTimestamp = block.timestamp; // Start the timer\n    }\n\n    function withdrawProductPrice() public onlyBuyer transporterSet {\n        require(purchased, \"Product not yet purchased\");\n        owner.transfer(price);\n        transporter.transfer(price + deliveryFee);\n        owner = buyer;\n    }\n\n    function cancelDelivery() public onlySeller transporterSet {\n        require(purchased, \"Product not yet purchased\");\n        transporter.transfer((2 * price) / 10 + deliveryFee + price); // Equivalent to 0.2 * price + deliveryFee + price\n        owner.transfer(price / 10); // Equivalent to 0.1 * price\n        buyer.transfer((7 * price) / 10); // Equivalent to 0.7 * price\n        emit CancelDelivery(msg.sender, transporter, (7 * price) / 10); // Emit the CancelDelivery event\n    }\n\n    function setTransporter(address payable _transporter) external payable onlySeller {\n        require(msg.value == transporters[_transporter].fee, \"Seller needs to deposit delivery fee\");\n        require(transporters[_transporter].fee != 0, \"Transporter address not found in transporters\");\n\n        deliveryFee = msg.value;\n        transporter = _transporter;\n    }\n\n    function createTransporter(uint _feeInEther) public {\n        require(transporters[msg.sender].fee == 0, \"Transporter already exists\");\n\n        uint _feeInWei = _feeInEther * 1 ether;\n\n        transporters[msg.sender] = TransporterFees({ fee: _feeInWei });\n        transporterAddresses.push(msg.sender);\n        transporterCount++;\n        emit TransporterCreated(msg.sender, _feeInWei);\n    }\n\n    function securityDeposit() public payable onlyTransporter transporterSet {\n        require(msg.value >= price, \"Transporter needs to deposit an amount equal to the price\");\n        securityDepositAmount += msg.value;\n        emit TransporterSecurityDeposit(msg.sender, msg.value);\n    }\n\n    function getAllTransporters() public view returns (address[] memory, uint[] memory) {\n        uint[] memory fees = new uint[](transporterAddresses.length);\n        for (uint i = 0; i < transporterAddresses.length; i++) {\n            address transporterAddress = transporterAddresses[i];\n            fees[i] = transporters[transporterAddress].fee;\n        }\n        return (transporterAddresses, fees);\n    }\n\n    function checkAndDeleteProduct() public {\n        require(purchased, \"Product not yet purchased\");\n        require(block.timestamp >= purchaseTimestamp + 2 days, \"Product deletion period not reached\");\n\n        emit ProductDeleted(id, name);\n        deleteProduct(); // Custom logic to delete the product from storage\n    }\n\n    function deleteProduct() internal {\n        // Logic to mark product as deleted or reset its state\n        delete name;\n        delete price;\n        delete owner;\n        delete purchased;\n        delete buyer;\n        delete transporter;\n        delete deliveryFee;\n        delete securityDepositAmount;\n        delete purchaseTimestamp;\n        delete transporterCount;\n        // Further deletion logic as required\n    }\n}\n",
  "sourcePath": "/Users/elias.safo/Desktop/BA/DecentralizedMarket2.0/decentralized-marketplace/contracts/ProductEscrow.sol",
  "compiler": {
    "name": "solc",
    "version": "0.8.0+commit.c7dfd78e.Emscripten.clang"
  },
  "schemaVersion": "3.4.16",
  "updatedAt": "2024-08-28T07:36:35.019Z",
  "devdoc": {
    "kind": "dev",
    "methods": {},
    "version": 1
  },
  "userdoc": {
    "kind": "user",
    "methods": {},
    "version": 1
  }
}