{
  "contractName": "ProductEscrow",
  "abi": [
    {
      "inputs": [
        {
          "internalType": "string",
          "name": "_name",
          "type": "string"
        },
        {
          "internalType": "uint256",
          "name": "_price",
          "type": "uint256"
        },
        {
          "internalType": "address",
          "name": "_owner",
          "type": "address"
        }
      ],
      "stateMutability": "nonpayable",
      "type": "constructor"
    },
    {
      "anonymous": false,
      "inputs": [
        {
          "indexed": true,
          "internalType": "address",
          "name": "seller",
          "type": "address"
        },
        {
          "indexed": true,
          "internalType": "address",
          "name": "transporter",
          "type": "address"
        },
        {
          "indexed": false,
          "internalType": "uint256",
          "name": "buyerRefund",
          "type": "uint256"
        }
      ],
      "name": "CancelDelivery",
      "type": "event"
    },
    {
      "anonymous": false,
      "inputs": [
        {
          "indexed": true,
          "internalType": "address",
          "name": "buyer",
          "type": "address"
        },
        {
          "indexed": true,
          "internalType": "address",
          "name": "transporter",
          "type": "address"
        },
        {
          "indexed": false,
          "internalType": "uint256",
          "name": "price",
          "type": "uint256"
        },
        {
          "indexed": false,
          "internalType": "string",
          "name": "vcCID",
          "type": "string"
        }
      ],
      "name": "DeliveryConfirmed",
      "type": "event"
    },
    {
      "anonymous": false,
      "inputs": [
        {
          "indexed": true,
          "internalType": "address",
          "name": "buyer",
          "type": "address"
        },
        {
          "indexed": true,
          "internalType": "uint256",
          "name": "price",
          "type": "uint256"
        },
        {
          "indexed": false,
          "internalType": "string",
          "name": "vcCID",
          "type": "string"
        }
      ],
      "name": "OrderConfirmed",
      "type": "event"
    },
    {
      "anonymous": false,
      "inputs": [
        {
          "indexed": false,
          "internalType": "uint256",
          "name": "productId",
          "type": "uint256"
        },
        {
          "indexed": false,
          "internalType": "string",
          "name": "productName",
          "type": "string"
        }
      ],
      "name": "ProductDeleted",
      "type": "event"
    },
    {
      "anonymous": false,
      "inputs": [
        {
          "indexed": false,
          "internalType": "address",
          "name": "transporter",
          "type": "address"
        },
        {
          "indexed": false,
          "internalType": "uint256",
          "name": "fee",
          "type": "uint256"
        }
      ],
      "name": "TransporterCreated",
      "type": "event"
    },
    {
      "anonymous": false,
      "inputs": [
        {
          "indexed": false,
          "internalType": "address",
          "name": "transporter",
          "type": "address"
        },
        {
          "indexed": false,
          "internalType": "uint256",
          "name": "price",
          "type": "uint256"
        }
      ],
      "name": "TransporterSecurityDeposit",
      "type": "event"
    },
    {
      "inputs": [],
      "name": "buyer",
      "outputs": [
        {
          "internalType": "address payable",
          "name": "",
          "type": "address"
        }
      ],
      "stateMutability": "view",
      "type": "function"
    },
    {
      "inputs": [],
      "name": "deliveryFee",
      "outputs": [
        {
          "internalType": "uint256",
          "name": "",
          "type": "uint256"
        }
      ],
      "stateMutability": "view",
      "type": "function"
    },
    {
      "inputs": [],
      "name": "id",
      "outputs": [
        {
          "internalType": "uint256",
          "name": "",
          "type": "uint256"
        }
      ],
      "stateMutability": "view",
      "type": "function"
    },
    {
      "inputs": [],
      "name": "name",
      "outputs": [
        {
          "internalType": "string",
          "name": "",
          "type": "string"
        }
      ],
      "stateMutability": "view",
      "type": "function"
    },
    {
      "inputs": [],
      "name": "owner",
      "outputs": [
        {
          "internalType": "address payable",
          "name": "",
          "type": "address"
        }
      ],
      "stateMutability": "view",
      "type": "function"
    },
    {
      "inputs": [],
      "name": "price",
      "outputs": [
        {
          "internalType": "uint256",
          "name": "",
          "type": "uint256"
        }
      ],
      "stateMutability": "view",
      "type": "function"
    },
    {
      "inputs": [],
      "name": "purchaseTimestamp",
      "outputs": [
        {
          "internalType": "uint256",
          "name": "",
          "type": "uint256"
        }
      ],
      "stateMutability": "view",
      "type": "function"
    },
    {
      "inputs": [],
      "name": "purchased",
      "outputs": [
        {
          "internalType": "bool",
          "name": "",
          "type": "bool"
        }
      ],
      "stateMutability": "view",
      "type": "function"
    },
    {
      "inputs": [],
      "name": "securityDepositAmount",
      "outputs": [
        {
          "internalType": "uint256",
          "name": "",
          "type": "uint256"
        }
      ],
      "stateMutability": "view",
      "type": "function"
    },
    {
      "inputs": [],
      "name": "transporter",
      "outputs": [
        {
          "internalType": "address payable",
          "name": "",
          "type": "address"
        }
      ],
      "stateMutability": "view",
      "type": "function"
    },
    {
      "inputs": [
        {
          "internalType": "uint256",
          "name": "",
          "type": "uint256"
        }
      ],
      "name": "transporterAddresses",
      "outputs": [
        {
          "internalType": "address",
          "name": "",
          "type": "address"
        }
      ],
      "stateMutability": "view",
      "type": "function"
    },
    {
      "inputs": [],
      "name": "transporterCount",
      "outputs": [
        {
          "internalType": "uint256",
          "name": "",
          "type": "uint256"
        }
      ],
      "stateMutability": "view",
      "type": "function"
    },
    {
      "inputs": [
        {
          "internalType": "address",
          "name": "",
          "type": "address"
        }
      ],
      "name": "transporters",
      "outputs": [
        {
          "internalType": "uint256",
          "name": "fee",
          "type": "uint256"
        }
      ],
      "stateMutability": "view",
      "type": "function"
    },
    {
      "inputs": [
        {
          "internalType": "string",
          "name": "vcCID",
          "type": "string"
        }
      ],
      "name": "confirmDelivery",
      "outputs": [],
      "stateMutability": "nonpayable",
      "type": "function"
    },
    {
      "inputs": [
        {
          "internalType": "string",
          "name": "vcCID",
          "type": "string"
        }
      ],
      "name": "confirmOrder",
      "outputs": [],
      "stateMutability": "nonpayable",
      "type": "function"
    },
    {
      "inputs": [],
      "name": "depositPurchase",
      "outputs": [],
      "stateMutability": "payable",
      "type": "function"
    },
    {
      "inputs": [],
      "name": "withdrawProductPrice",
      "outputs": [],
      "stateMutability": "nonpayable",
      "type": "function"
    },
    {
      "inputs": [],
      "name": "cancelDelivery",
      "outputs": [],
      "stateMutability": "nonpayable",
      "type": "function"
    },
    {
      "inputs": [
        {
          "internalType": "address payable",
          "name": "_transporter",
          "type": "address"
        }
      ],
      "name": "setTransporter",
      "outputs": [],
      "stateMutability": "payable",
      "type": "function"
    },
    {
      "inputs": [
        {
          "internalType": "uint256",
          "name": "_feeInEther",
          "type": "uint256"
        }
      ],
      "name": "createTransporter",
      "outputs": [],
      "stateMutability": "nonpayable",
      "type": "function"
    },
    {
      "inputs": [],
      "name": "securityDeposit",
      "outputs": [],
      "stateMutability": "payable",
      "type": "function"
    },
    {
      "inputs": [],
      "name": "getAllTransporters",
      "outputs": [
        {
          "internalType": "address[]",
          "name": "",
          "type": "address[]"
        },
        {
          "internalType": "uint256[]",
          "name": "",
          "type": "uint256[]"
        }
      ],
      "stateMutability": "view",
      "type": "function"
    },
    {
      "inputs": [],
      "name": "checkAndDeleteProduct",
      "outputs": [],
      "stateMutability": "nonpayable",
      "type": "function"
    }
  ],
  "bytecode": "0x60806040523480156200001157600080fd5b50604051620030613803806200306183398181016040528101906200003791906200024e565b82600190805190602001906200004f929190620000fe565b508160028190555080600360006101000a81548173ffffffffffffffffffffffffffffffffffffffff021916908373ffffffffffffffffffffffffffffffffffffffff1602179055506000600360146101000a81548160ff0219169083151502179055506000600460006101000a81548173ffffffffffffffffffffffffffffffffffffffff021916908373ffffffffffffffffffffffffffffffffffffffff16021790555050505062000460565b8280546200010c9062000398565b90600052602060002090601f0160209004810192826200013057600085556200017c565b82601f106200014b57805160ff19168380011785556200017c565b828001600101855582156200017c579182015b828111156200017b5782518255916020019190600101906200015e565b5b5090506200018b91906200018f565b5090565b5b80821115620001aa57600081600090555060010162000190565b5090565b6000620001c5620001bf84620002f1565b620002bd565b905082815260208101848484011115620001de57600080fd5b620001eb84828562000362565b509392505050565b60008151905062000204816200042c565b92915050565b600082601f8301126200021c57600080fd5b81516200022e848260208601620001ae565b91505092915050565b600081519050620002488162000446565b92915050565b6000806000606084860312156200026457600080fd5b600084015167ffffffffffffffff8111156200027f57600080fd5b6200028d868287016200020a565b9350506020620002a08682870162000237565b9250506040620002b386828701620001f3565b9150509250925092565b6000604051905081810181811067ffffffffffffffff82111715620002e757620002e6620003fd565b5b8060405250919050565b600067ffffffffffffffff8211156200030f576200030e620003fd565b5b601f19601f8301169050602081019050919050565b6000620003318262000338565b9050919050565b600073ffffffffffffffffffffffffffffffffffffffff82169050919050565b6000819050919050565b60005b838110156200038257808201518184015260208101905062000365565b8381111562000392576000848401525b50505050565b60006002820490506001821680620003b157607f821691505b60208210811415620003c857620003c7620003ce565b5b50919050565b7f4e487b7100000000000000000000000000000000000000000000000000000000600052602260045260246000fd5b7f4e487b7100000000000000000000000000000000000000000000000000000000600052604160045260246000fd5b620004378162000324565b81146200044357600080fd5b50565b620004518162000358565b81146200045d57600080fd5b50565b612bf180620004706000396000f3fe6080604052600436106101405760003560e01c8063879f9c96116100b6578063b5df610f1161006f578063b5df610f146103a4578063d8f133f9146103bb578063e25bd158146103e4578063e42b021214610421578063f3cc0f1f1461044c578063fa949a011461047757610140565b8063879f9c96146102b35780638da5cb5b146102de5780639c8dadae14610309578063a035b1fe14610325578063a450646014610350578063af640d0f1461037957610140565b80633ace041a116101085780633ace041a146101da5780633cf131e714610203578063533a559b1461021a5780637150d8ae1461023157806377db57191461025c5780637df140e01461028857610140565b806306fdde0314610145578063220e5ab31461017057806325901b8a1461017a57806325d3d0e31461018457806329dac7c6146101af575b600080fd5b34801561015157600080fd5b5061015a6104b4565b6040516101679190612550565b60405180910390f35b610178610542565b005b6101826106fd565b005b34801561019057600080fd5b50610199610888565b6040516101a69190612732565b60405180910390f35b3480156101bb57600080fd5b506101c461088e565b6040516101d19190612732565b60405180910390f35b3480156101e657600080fd5b5061020160048036038101906101fc9190611d60565b610894565b005b34801561020f57600080fd5b506102186109f0565b005b34801561022657600080fd5b5061022f610ad8565b005b34801561023d57600080fd5b50610246610d91565b60405161025391906124ba565b60405180910390f35b34801561026857600080fd5b50610271610db7565b60405161027f9291906124fe565b60405180910390f35b34801561029457600080fd5b5061029d610fdc565b6040516102aa9190612732565b60405180910390f35b3480156102bf57600080fd5b506102c8610fe2565b6040516102d59190612535565b60405180910390f35b3480156102ea57600080fd5b506102f3610ff5565b60405161030091906124ba565b60405180910390f35b610323600480360381019061031e9190611d37565b61101b565b005b34801561033157600080fd5b5061033a611200565b6040516103479190612732565b60405180910390f35b34801561035c57600080fd5b5061037760048036038101906103729190611d60565b611206565b005b34801561038557600080fd5b5061038e611571565b60405161039b9190612732565b60405180910390f35b3480156103b057600080fd5b506103b9611577565b005b3480156103c757600080fd5b506103e260048036038101906103dd9190611da1565b611922565b005b3480156103f057600080fd5b5061040b60048036038101906104069190611d0e565b611ad2565b6040516104189190612732565b60405180910390f35b34801561042d57600080fd5b50610436611af0565b60405161044391906124ba565b60405180910390f35b34801561045857600080fd5b50610461611b16565b60405161046e9190612732565b60405180910390f35b34801561048357600080fd5b5061049e60048036038101906104999190611da1565b611b1c565b6040516104ab919061249f565b60405180910390f35b600180546104c190612a2e565b80601f01602080910402602001604051908101604052809291908181526020018280546104ed90612a2e565b801561053a5780601f1061050f5761010080835404028352916020019161053a565b820191906000526020600020905b81548152906001019060200180831161051d57829003601f168201915b505050505081565b600660009054906101000a900473ffffffffffffffffffffffffffffffffffffffff1673ffffffffffffffffffffffffffffffffffffffff163373ffffffffffffffffffffffffffffffffffffffff16146105d2576040517f08c379a00000000000000000000000000000000000000000000000000000000081526004016105c990612692565b60405180910390fd5b600073ffffffffffffffffffffffffffffffffffffffff16600660009054906101000a900473ffffffffffffffffffffffffffffffffffffffff1673ffffffffffffffffffffffffffffffffffffffff161415610664576040517f08c379a000000000000000000000000000000000000000000000000000000000815260040161065b906125d2565b60405180910390fd5b6002543410156106a9576040517f08c379a00000000000000000000000000000000000000000000000000000000081526004016106a0906125f2565b60405180910390fd5b34600860008282546106bb91906128b1565b925050819055507f201b13bd8ab1bff9ab4fe027b08267af060c2ac596f9c2408338ae9030f9ec9933346040516106f39291906124d5565b60405180910390a1565b600360149054906101000a900460ff161561074d576040517f08c379a000000000000000000000000000000000000000000000000000000000815260040161074490612612565b60405180910390fd5b600254341015610792576040517f08c379a0000000000000000000000000000000000000000000000000000000008152600401610789906126f2565b60405180910390fd5b600360009054906101000a900473ffffffffffffffffffffffffffffffffffffffff1673ffffffffffffffffffffffffffffffffffffffff163373ffffffffffffffffffffffffffffffffffffffff161415610823576040517f08c379a000000000000000000000000000000000000000000000000000000000815260040161081a90612672565b60405180910390fd5b33600460006101000a81548173ffffffffffffffffffffffffffffffffffffffff021916908373ffffffffffffffffffffffffffffffffffffffff1602179055506001600360146101000a81548160ff02191690831515021790555042600981905550565b60095481565b60055481565b600360009054906101000a900473ffffffffffffffffffffffffffffffffffffffff1673ffffffffffffffffffffffffffffffffffffffff163373ffffffffffffffffffffffffffffffffffffffff1614610924576040517f08c379a000000000000000000000000000000000000000000000000000000000815260040161091b90612632565b60405180910390fd5b600360149054906101000a900460ff16610973576040517f08c379a000000000000000000000000000000000000000000000000000000000815260040161096a906126d2565b60405180910390fd5b42600981905550600254600460009054906101000a900473ffffffffffffffffffffffffffffffffffffffff1673ffffffffffffffffffffffffffffffffffffffff167f4d555b09790773793494942fb558f3a083c7f96b2515533f7bf3283952c93ec4836040516109e59190612550565b60405180910390a350565b600360149054906101000a900460ff16610a3f576040517f08c379a0000000000000000000000000000000000000000000000000000000008152600401610a36906126d2565b60405180910390fd5b6202a300600954610a5091906128b1565b421015610a92576040517f08c379a0000000000000000000000000000000000000000000000000000000008152600401610a8990612712565b60405180910390fd5b7ff05a5096d61e4686d4b77dc20985d768652606f536436749c7e215623853efe36000546001604051610ac692919061277d565b60405180910390a1610ad6611b5b565b565b600460009054906101000a900473ffffffffffffffffffffffffffffffffffffffff1673ffffffffffffffffffffffffffffffffffffffff163373ffffffffffffffffffffffffffffffffffffffff1614610b68576040517f08c379a0000000000000000000000000000000000000000000000000000000008152600401610b5f90612592565b60405180910390fd5b600073ffffffffffffffffffffffffffffffffffffffff16600660009054906101000a900473ffffffffffffffffffffffffffffffffffffffff1673ffffffffffffffffffffffffffffffffffffffff161415610bfa576040517f08c379a0000000000000000000000000000000000000000000000000000000008152600401610bf1906125d2565b60405180910390fd5b600360149054906101000a900460ff16610c49576040517f08c379a0000000000000000000000000000000000000000000000000000000008152600401610c40906126d2565b60405180910390fd5b600360009054906101000a900473ffffffffffffffffffffffffffffffffffffffff1673ffffffffffffffffffffffffffffffffffffffff166108fc6002549081150290604051600060405180830381858888f19350505050158015610cb3573d6000803e3d6000fd5b50600660009054906101000a900473ffffffffffffffffffffffffffffffffffffffff1673ffffffffffffffffffffffffffffffffffffffff166108fc600754600254610d0091906128b1565b9081150290604051600060405180830381858888f19350505050158015610d2b573d6000803e3d6000fd5b50600460009054906101000a900473ffffffffffffffffffffffffffffffffffffffff16600360006101000a81548173ffffffffffffffffffffffffffffffffffffffff021916908373ffffffffffffffffffffffffffffffffffffffff160217905550565b600460009054906101000a900473ffffffffffffffffffffffffffffffffffffffff1681565b6060806000600b8054905067ffffffffffffffff811115610e01577f4e487b7100000000000000000000000000000000000000000000000000000000600052604160045260246000fd5b604051908082528060200260200182016040528015610e2f5781602001602082028036833780820191505090505b50905060005b600b80549050811015610f47576000600b8281548110610e7e577f4e487b7100000000000000000000000000000000000000000000000000000000600052603260045260246000fd5b9060005260206000200160009054906101000a900473ffffffffffffffffffffffffffffffffffffffff169050600a60008273ffffffffffffffffffffffffffffffffffffffff1673ffffffffffffffffffffffffffffffffffffffff16815260200190815260200160002060000154838381518110610f27577f4e487b7100000000000000000000000000000000000000000000000000000000600052603260045260246000fd5b602002602001018181525050508080610f3f90612a60565b915050610e35565b50600b8181805480602002602001604051908101604052809291908181526020018280548015610fcc57602002820191906000526020600020905b8160009054906101000a900473ffffffffffffffffffffffffffffffffffffffff1673ffffffffffffffffffffffffffffffffffffffff1681526020019060010190808311610f82575b5050505050915092509250509091565b60085481565b600360149054906101000a900460ff1681565b600360009054906101000a900473ffffffffffffffffffffffffffffffffffffffff1681565b600360009054906101000a900473ffffffffffffffffffffffffffffffffffffffff1673ffffffffffffffffffffffffffffffffffffffff163373ffffffffffffffffffffffffffffffffffffffff16146110ab576040517f08c379a00000000000000000000000000000000000000000000000000000000081526004016110a290612632565b60405180910390fd5b600a60008273ffffffffffffffffffffffffffffffffffffffff1673ffffffffffffffffffffffffffffffffffffffff16815260200190815260200160002060000154341461112f576040517f08c379a000000000000000000000000000000000000000000000000000000000815260040161112690612572565b60405180910390fd5b6000600a60008373ffffffffffffffffffffffffffffffffffffffff1673ffffffffffffffffffffffffffffffffffffffff1681526020019081526020016000206000015414156111b5576040517f08c379a00000000000000000000000000000000000000000000000000000000081526004016111ac90612652565b60405180910390fd5b3460078190555080600660006101000a81548173ffffffffffffffffffffffffffffffffffffffff021916908373ffffffffffffffffffffffffffffffffffffffff16021790555050565b60025481565b600460009054906101000a900473ffffffffffffffffffffffffffffffffffffffff1673ffffffffffffffffffffffffffffffffffffffff163373ffffffffffffffffffffffffffffffffffffffff1614611296576040517f08c379a000000000000000000000000000000000000000000000000000000000815260040161128d90612592565b60405180910390fd5b600073ffffffffffffffffffffffffffffffffffffffff16600660009054906101000a900473ffffffffffffffffffffffffffffffffffffffff1673ffffffffffffffffffffffffffffffffffffffff161415611328576040517f08c379a000000000000000000000000000000000000000000000000000000000815260040161131f906125d2565b60405180910390fd5b6202a30060095461133991906128b1565b42111561137b576040517f08c379a0000000000000000000000000000000000000000000000000000000008152600401611372906125b2565b60405180910390fd5b600360009054906101000a900473ffffffffffffffffffffffffffffffffffffffff1673ffffffffffffffffffffffffffffffffffffffff166108fc6002549081150290604051600060405180830381858888f193505050501580156113e5573d6000803e3d6000fd5b50600660009054906101000a900473ffffffffffffffffffffffffffffffffffffffff1673ffffffffffffffffffffffffffffffffffffffff166108fc60075460085461143291906128b1565b9081150290604051600060405180830381858888f1935050505015801561145d573d6000803e3d6000fd5b50600460009054906101000a900473ffffffffffffffffffffffffffffffffffffffff16600360006101000a81548173ffffffffffffffffffffffffffffffffffffffff021916908373ffffffffffffffffffffffffffffffffffffffff160217905550600660009054906101000a900473ffffffffffffffffffffffffffffffffffffffff1673ffffffffffffffffffffffffffffffffffffffff16600460009054906101000a900473ffffffffffffffffffffffffffffffffffffffff1673ffffffffffffffffffffffffffffffffffffffff167fb4b124f04e4dbcf0062546e32d1a81d44f269b09f46a5434070a6d2ff05942456002548460405161156692919061274d565b60405180910390a350565b60005481565b600360009054906101000a900473ffffffffffffffffffffffffffffffffffffffff1673ffffffffffffffffffffffffffffffffffffffff163373ffffffffffffffffffffffffffffffffffffffff1614611607576040517f08c379a00000000000000000000000000000000000000000000000000000000081526004016115fe90612632565b60405180910390fd5b600073ffffffffffffffffffffffffffffffffffffffff16600660009054906101000a900473ffffffffffffffffffffffffffffffffffffffff1673ffffffffffffffffffffffffffffffffffffffff161415611699576040517f08c379a0000000000000000000000000000000000000000000000000000000008152600401611690906125d2565b60405180910390fd5b600360149054906101000a900460ff166116e8576040517f08c379a00000000000000000000000000000000000000000000000000000000081526004016116df906126d2565b60405180910390fd5b600660009054906101000a900473ffffffffffffffffffffffffffffffffffffffff1673ffffffffffffffffffffffffffffffffffffffff166108fc600254600754600a600254600261173b9190612938565b6117459190612907565b61174f91906128b1565b61175991906128b1565b9081150290604051600060405180830381858888f19350505050158015611784573d6000803e3d6000fd5b50600360009054906101000a900473ffffffffffffffffffffffffffffffffffffffff1673ffffffffffffffffffffffffffffffffffffffff166108fc600a6002546117d09190612907565b9081150290604051600060405180830381858888f193505050501580156117fb573d6000803e3d6000fd5b50600460009054906101000a900473ffffffffffffffffffffffffffffffffffffffff1673ffffffffffffffffffffffffffffffffffffffff166108fc600a60025460076118499190612938565b6118539190612907565b9081150290604051600060405180830381858888f1935050505015801561187e573d6000803e3d6000fd5b50600660009054906101000a900473ffffffffffffffffffffffffffffffffffffffff1673ffffffffffffffffffffffffffffffffffffffff163373ffffffffffffffffffffffffffffffffffffffff167f08d1502fd01a62867241b61ec35d4ecbed54914c6ab56d5fe1b861dea75622f8600a60025460076119019190612938565b61190b9190612907565b6040516119189190612732565b60405180910390a3565b6000600a60003373ffffffffffffffffffffffffffffffffffffffff1673ffffffffffffffffffffffffffffffffffffffff16815260200190815260200160002060000154146119a7576040517f08c379a000000000000000000000000000000000000000000000000000000000815260040161199e906126b2565b60405180910390fd5b6000670de0b6b3a7640000826119bd9190612938565b9050604051806020016040528082815250600a60003373ffffffffffffffffffffffffffffffffffffffff1673ffffffffffffffffffffffffffffffffffffffff16815260200190815260200160002060008201518160000155905050600b339080600181540180825580915050600190039060005260206000200160009091909190916101000a81548173ffffffffffffffffffffffffffffffffffffffff021916908373ffffffffffffffffffffffffffffffffffffffff16021790555060056000815480929190611a9090612a60565b91905055507f82cd66133dda5e11a8bcba54ad8282733b8517996ec937641ea79418fb1415743382604051611ac69291906124d5565b60405180910390a15050565b600a6020528060005260406000206000915090508060000154905081565b600660009054906101000a900473ffffffffffffffffffffffffffffffffffffffff1681565b60075481565b600b8181548110611b2c57600080fd5b906000526020600020016000915054906101000a900473ffffffffffffffffffffffffffffffffffffffff1681565b60016000611b699190611c0a565b600260009055600360006101000a81549073ffffffffffffffffffffffffffffffffffffffff0219169055600360146101000a81549060ff0219169055600460006101000a81549073ffffffffffffffffffffffffffffffffffffffff0219169055600660006101000a81549073ffffffffffffffffffffffffffffffffffffffff0219169055600760009055600860009055600960009055600560009055565b508054611c1690612a2e565b6000825580601f10611c285750611c47565b601f016020900490600052602060002090810190611c469190611c4a565b5b50565b5b80821115611c63576000816000905550600101611c4b565b5090565b6000611c7a611c75846127de565b6127ad565b905082815260208101848484011115611c9257600080fd5b611c9d8482856129ec565b509392505050565b600081359050611cb481612b76565b92915050565b600081359050611cc981612b8d565b92915050565b600082601f830112611ce057600080fd5b8135611cf0848260208601611c67565b91505092915050565b600081359050611d0881612ba4565b92915050565b600060208284031215611d2057600080fd5b6000611d2e84828501611ca5565b91505092915050565b600060208284031215611d4957600080fd5b6000611d5784828501611cba565b91505092915050565b600060208284031215611d7257600080fd5b600082013567ffffffffffffffff811115611d8c57600080fd5b611d9884828501611ccf565b91505092915050565b600060208284031215611db357600080fd5b6000611dc184828501611cf9565b91505092915050565b6000611dd68383611e09565b60208301905092915050565b6000611dee8383612481565b60208301905092915050565b611e03816129a4565b82525050565b611e1281612992565b82525050565b611e2181612992565b82525050565b6000611e3282612843565b611e3c818561287e565b9350611e478361280e565b8060005b83811015611e78578151611e5f8882611dca565b9750611e6a83612864565b925050600181019050611e4b565b5085935050505092915050565b6000611e908261284e565b611e9a818561288f565b9350611ea58361281e565b8060005b83811015611ed6578151611ebd8882611de2565b9750611ec883612871565b925050600181019050611ea9565b5085935050505092915050565b611eec816129b6565b82525050565b6000611efd82612859565b611f0781856128a0565b9350611f178185602086016129fb565b611f2081612b65565b840191505092915050565b60008154611f3881612a2e565b611f4281866128a0565b94506001821660008114611f5d5760018114611f6f57611fa2565b60ff1983168652602086019350611fa2565b611f788561282e565b60005b83811015611f9a57815481890152600182019150602081019050611f7b565b808801955050505b50505092915050565b6000611fb86024836128a0565b91507f53656c6c6572206e6565647320746f206465706f7369742064656c697665727960008301527f20666565000000000000000000000000000000000000000000000000000000006020830152604082019050919050565b600061201e6025836128a0565b91507f4f6e6c79207468652062757965722063616e2063616c6c20746869732066756e60008301527f6374696f6e0000000000000000000000000000000000000000000000000000006020830152604082019050919050565b60006120846024836128a0565b91507f44656c697665727920636f6e6669726d6174696f6e20706572696f642065787060008301527f69726564000000000000000000000000000000000000000000000000000000006020830152604082019050919050565b60006120ea6028836128a0565b91507f5472616e73706f72746572206e656564656420746f2063616c6c20746869732060008301527f66756e6374696f6e0000000000000000000000000000000000000000000000006020830152604082019050919050565b60006121506039836128a0565b91507f5472616e73706f72746572206e6565647320746f206465706f73697420616e2060008301527f616d6f756e7420657175616c20746f20746865207072696365000000000000006020830152604082019050919050565b60006121b66019836128a0565b91507f50726f6475637420616c726561647920707572636861736564000000000000006000830152602082019050919050565b60006121f66026836128a0565b91507f4f6e6c79207468652073656c6c65722063616e2063616c6c207468697320667560008301527f6e6374696f6e00000000000000000000000000000000000000000000000000006020830152604082019050919050565b600061225c602d836128a0565b91507f5472616e73706f727465722061646472657373206e6f7420666f756e6420696e60008301527f207472616e73706f7274657273000000000000000000000000000000000000006020830152604082019050919050565b60006122c26016836128a0565b91507f43616e6e6f7420627579206f776e2070726f64756374000000000000000000006000830152602082019050919050565b6000612302602b836128a0565b91507f4f6e6c7920746865207472616e73706f727465722063616e2063616c6c20746860008301527f69732066756e6374696f6e0000000000000000000000000000000000000000006020830152604082019050919050565b6000612368601a836128a0565b91507f5472616e73706f7274657220616c7265616479206578697374730000000000006000830152602082019050919050565b60006123a86019836128a0565b91507f50726f64756374206e6f742079657420707572636861736564000000000000006000830152602082019050919050565b60006123e86010836128a0565b91507f4e6f7420656e6f756768204574686572000000000000000000000000000000006000830152602082019050919050565b60006124286023836128a0565b91507f50726f647563742064656c6574696f6e20706572696f64206e6f74207265616360008301527f68656400000000000000000000000000000000000000000000000000000000006020830152604082019050919050565b61248a816129e2565b82525050565b612499816129e2565b82525050565b60006020820190506124b46000830184611e18565b92915050565b60006020820190506124cf6000830184611dfa565b92915050565b60006040820190506124ea6000830185611e18565b6124f76020830184612490565b9392505050565b600060408201905081810360008301526125188185611e27565b9050818103602083015261252c8184611e85565b90509392505050565b600060208201905061254a6000830184611ee3565b92915050565b6000602082019050818103600083015261256a8184611ef2565b905092915050565b6000602082019050818103600083015261258b81611fab565b9050919050565b600060208201905081810360008301526125ab81612011565b9050919050565b600060208201905081810360008301526125cb81612077565b9050919050565b600060208201905081810360008301526125eb816120dd565b9050919050565b6000602082019050818103600083015261260b81612143565b9050919050565b6000602082019050818103600083015261262b816121a9565b9050919050565b6000602082019050818103600083015261264b816121e9565b9050919050565b6000602082019050818103600083015261266b8161224f565b9050919050565b6000602082019050818103600083015261268b816122b5565b9050919050565b600060208201905081810360008301526126ab816122f5565b9050919050565b600060208201905081810360008301526126cb8161235b565b9050919050565b600060208201905081810360008301526126eb8161239b565b9050919050565b6000602082019050818103600083015261270b816123db565b9050919050565b6000602082019050818103600083015261272b8161241b565b9050919050565b60006020820190506127476000830184612490565b92915050565b60006040820190506127626000830185612490565b81810360208301526127748184611ef2565b90509392505050565b60006040820190506127926000830185612490565b81810360208301526127a48184611f2b565b90509392505050565b6000604051905081810181811067ffffffffffffffff821117156127d4576127d3612b36565b5b8060405250919050565b600067ffffffffffffffff8211156127f9576127f8612b36565b5b601f19601f8301169050602081019050919050565b6000819050602082019050919050565b6000819050602082019050919050565b60008190508160005260206000209050919050565b600081519050919050565b600081519050919050565b600081519050919050565b6000602082019050919050565b6000602082019050919050565b600082825260208201905092915050565b600082825260208201905092915050565b600082825260208201905092915050565b60006128bc826129e2565b91506128c7836129e2565b9250827fffffffffffffffffffffffffffffffffffffffffffffffffffffffffffffffff038211156128fc576128fb612aa9565b5b828201905092915050565b6000612912826129e2565b915061291d836129e2565b92508261292d5761292c612ad8565b5b828204905092915050565b6000612943826129e2565b915061294e836129e2565b9250817fffffffffffffffffffffffffffffffffffffffffffffffffffffffffffffffff048311821515161561298757612986612aa9565b5b828202905092915050565b600061299d826129c2565b9050919050565b60006129af826129c2565b9050919050565b60008115159050919050565b600073ffffffffffffffffffffffffffffffffffffffff82169050919050565b6000819050919050565b82818337600083830152505050565b60005b83811015612a195780820151818401526020810190506129fe565b83811115612a28576000848401525b50505050565b60006002820490506001821680612a4657607f821691505b60208210811415612a5a57612a59612b07565b5b50919050565b6000612a6b826129e2565b91507fffffffffffffffffffffffffffffffffffffffffffffffffffffffffffffffff821415612a9e57612a9d612aa9565b5b600182019050919050565b7f4e487b7100000000000000000000000000000000000000000000000000000000600052601160045260246000fd5b7f4e487b7100000000000000000000000000000000000000000000000000000000600052601260045260246000fd5b7f4e487b7100000000000000000000000000000000000000000000000000000000600052602260045260246000fd5b7f4e487b7100000000000000000000000000000000000000000000000000000000600052604160045260246000fd5b6000601f19601f8301169050919050565b612b7f81612992565b8114612b8a57600080fd5b50565b612b96816129a4565b8114612ba157600080fd5b50565b612bad816129e2565b8114612bb857600080fd5b5056fea2646970667358221220f1dcf3741cd093eb0b1e02d0cee6096f5c0f026f9a7e06474a3f15798136a82a64736f6c63430008000033",
  "immutableReferences": {},
  "source": "// SPDX-License-Identifier: MIT\npragma solidity ^0.8.0;\n\ncontract ProductEscrow {\n    uint public id;\n    string public name;\n    uint public price; // Price in wei\n    address payable public owner;\n    bool public purchased;\n    address payable public buyer;\n    uint public transporterCount;\n    address payable public transporter;\n    uint public deliveryFee;\n    uint public securityDepositAmount;\n    uint public purchaseTimestamp; // Timestamp when purchase is confirmed\n\n    struct TransporterFees {\n        uint fee;\n    }\n\n    mapping(address => TransporterFees) public transporters;\n    address[] public transporterAddresses;\n\n    modifier onlyBuyer() {\n        require(msg.sender == buyer, \"Only the buyer can call this function\");\n        _;\n    }\n\n    modifier onlySeller() {\n        require(msg.sender == owner, \"Only the seller can call this function\");\n        _;\n    }\n\n    modifier transporterSet() {\n        require(transporter != address(0), \"Transporter needed to call this function\");\n        _;\n    }\n\n    modifier onlyTransporter() {\n        require(msg.sender == transporter, \"Only the transporter can call this function\");\n        _;\n    }\n\n    event OrderConfirmed(address indexed buyer, uint indexed price, string vcCID);\n    event TransporterCreated(address transporter, uint fee);\n    event TransporterSecurityDeposit(address transporter, uint price);\n    event DeliveryConfirmed(address indexed buyer, address indexed transporter, uint price, string vcCID);\n    event CancelDelivery(address indexed seller, address indexed transporter, uint buyerRefund);\n    event ProductDeleted(uint productId, string productName);\n\n    constructor(string memory _name, uint _price, address _owner) {\n        name = _name;\n        price = _price;\n        owner = payable(_owner);\n        purchased = false;\n        buyer = payable(address(0));\n    }\n\n    function confirmDelivery(string memory vcCID) public onlyBuyer transporterSet {\n        require(block.timestamp <= purchaseTimestamp + 2 days, \"Delivery confirmation period expired\");\n        owner.transfer(price);\n        transporter.transfer(securityDepositAmount + deliveryFee);\n        owner = buyer;\n        emit DeliveryConfirmed(buyer, transporter, price,vcCID);\n    }\n\n    function confirmOrder(string memory vcCID) public onlySeller {\n        require(purchased, \"Product not yet purchased\");\n        purchaseTimestamp = block.timestamp; // Extend the timer by resetting the timestamp\n        emit OrderConfirmed(buyer, price, vcCID);\n    }\n\n    function depositPurchase() public payable {\n        require(!purchased, \"Product already purchased\");\n        require(msg.value >= price, \"Not enough Ether\");\n        require(msg.sender != owner, \"Cannot buy own product\");\n\n        buyer = payable(msg.sender);\n        purchased = true;\n        purchaseTimestamp = block.timestamp; // Start the timer\n    }\n\n    function withdrawProductPrice() public onlyBuyer transporterSet {\n        require(purchased, \"Product not yet purchased\");\n        owner.transfer(price);\n        transporter.transfer(price + deliveryFee);\n        owner = buyer;\n    }\n\n    function cancelDelivery() public onlySeller transporterSet {\n        require(purchased, \"Product not yet purchased\");\n        transporter.transfer((2 * price) / 10 + deliveryFee + price); // Equivalent to 0.2 * price + deliveryFee + price\n        owner.transfer(price / 10); // Equivalent to 0.1 * price\n        buyer.transfer((7 * price) / 10); // Equivalent to 0.7 * price\n        emit CancelDelivery(msg.sender, transporter, (7 * price) / 10); // Emit the CancelDelivery event\n    }\n\n    function setTransporter(address payable _transporter) external payable onlySeller {\n        require(msg.value == transporters[_transporter].fee, \"Seller needs to deposit delivery fee\");\n        require(transporters[_transporter].fee != 0, \"Transporter address not found in transporters\");\n\n        deliveryFee = msg.value;\n        transporter = _transporter;\n    }\n\n    function createTransporter(uint _feeInEther) public {\n        require(transporters[msg.sender].fee == 0, \"Transporter already exists\");\n\n        uint _feeInWei = _feeInEther * 1 ether;\n\n        transporters[msg.sender] = TransporterFees({ fee: _feeInWei });\n        transporterAddresses.push(msg.sender);\n        transporterCount++;\n        emit TransporterCreated(msg.sender, _feeInWei);\n    }\n\n    function securityDeposit() public payable onlyTransporter transporterSet {\n        require(msg.value >= price, \"Transporter needs to deposit an amount equal to the price\");\n        securityDepositAmount += msg.value;\n        emit TransporterSecurityDeposit(msg.sender, msg.value);\n    }\n\n    function getAllTransporters() public view returns (address[] memory, uint[] memory) {\n        uint[] memory fees = new uint[](transporterAddresses.length);\n        for (uint i = 0; i < transporterAddresses.length; i++) {\n            address transporterAddress = transporterAddresses[i];\n            fees[i] = transporters[transporterAddress].fee;\n        }\n        return (transporterAddresses, fees);\n    }\n\n    function checkAndDeleteProduct() public {\n        require(purchased, \"Product not yet purchased\");\n        require(block.timestamp >= purchaseTimestamp + 2 days, \"Product deletion period not reached\");\n\n        emit ProductDeleted(id, name);\n        deleteProduct(); // Custom logic to delete the product from storage\n    }\n\n    function deleteProduct() internal {\n        // Logic to mark product as deleted or reset its state\n        delete name;\n        delete price;\n        delete owner;\n        delete purchased;\n        delete buyer;\n        delete transporter;\n        delete deliveryFee;\n        delete securityDepositAmount;\n        delete purchaseTimestamp;\n        delete transporterCount;\n        // Further deletion logic as required\n    }\n}\n",
  "sourcePath": "/Users/elias.safo/Desktop/BA/DecentralizedMarket2.0/decentralized-marketplace/contracts/ProductEscrow.sol",
  "compiler": {
    "name": "solc",
    "version": "0.8.0+commit.c7dfd78e.Emscripten.clang"
  },
  "schemaVersion": "3.4.16",
  "updatedAt": "2024-09-05T14:34:53.630Z",
  "devdoc": {
    "kind": "dev",
    "methods": {},
    "version": 1
  },
  "userdoc": {
    "kind": "user",
    "methods": {},
    "version": 1
  }
}